{
  "contractName": "EllipticalArtNFT",
  "abi": [
    {
      "inputs": [
        {
          "internalType": "address",
          "name": "_VRFCoordinator",
          "type": "address"
        },
        {
          "internalType": "address",
          "name": "_LinkToken",
          "type": "address"
        },
        {
          "internalType": "bytes32",
          "name": "_keyHash",
          "type": "bytes32"
        },
        {
          "internalType": "address",
          "name": "_priceFeed",
          "type": "address"
        },
        {
          "internalType": "uint8",
          "name": "_maxSupply",
          "type": "uint8"
        }
      ],
      "stateMutability": "nonpayable",
      "type": "constructor"
    },
    {
      "anonymous": false,
      "inputs": [
        {
          "indexed": true,
          "internalType": "address",
          "name": "owner",
          "type": "address"
        },
        {
          "indexed": true,
          "internalType": "address",
          "name": "approved",
          "type": "address"
        },
        {
          "indexed": true,
          "internalType": "uint256",
          "name": "tokenId",
          "type": "uint256"
        }
      ],
      "name": "Approval",
      "type": "event"
    },
    {
      "anonymous": false,
      "inputs": [
        {
          "indexed": true,
          "internalType": "address",
          "name": "owner",
          "type": "address"
        },
        {
          "indexed": true,
          "internalType": "address",
          "name": "operator",
          "type": "address"
        },
        {
          "indexed": false,
          "internalType": "bool",
          "name": "approved",
          "type": "bool"
        }
      ],
      "name": "ApprovalForAll",
      "type": "event"
    },
    {
      "anonymous": false,
      "inputs": [
        {
          "indexed": true,
          "internalType": "address",
          "name": "previousOwner",
          "type": "address"
        },
        {
          "indexed": true,
          "internalType": "address",
          "name": "newOwner",
          "type": "address"
        }
      ],
      "name": "OwnershipTransferred",
      "type": "event"
    },
    {
      "anonymous": false,
      "inputs": [
        {
          "indexed": true,
          "internalType": "bytes32",
          "name": "requestId",
          "type": "bytes32"
        }
      ],
      "name": "RequestedElliptical",
      "type": "event"
    },
    {
      "anonymous": false,
      "inputs": [
        {
          "indexed": true,
          "internalType": "address",
          "name": "from",
          "type": "address"
        },
        {
          "indexed": true,
          "internalType": "address",
          "name": "to",
          "type": "address"
        },
        {
          "indexed": true,
          "internalType": "uint256",
          "name": "tokenId",
          "type": "uint256"
        }
      ],
      "name": "Transfer",
      "type": "event"
    },
    {
      "inputs": [],
      "name": "LinkToken",
      "outputs": [
        {
          "internalType": "address",
          "name": "",
          "type": "address"
        }
      ],
      "stateMutability": "view",
      "type": "function"
    },
    {
      "inputs": [],
      "name": "VRFCoordinator",
      "outputs": [
        {
          "internalType": "address",
          "name": "",
          "type": "address"
        }
      ],
      "stateMutability": "view",
      "type": "function"
    },
    {
      "inputs": [
        {
          "internalType": "address",
          "name": "owner",
          "type": "address"
        }
      ],
      "name": "balanceOf",
      "outputs": [
        {
          "internalType": "uint256",
          "name": "",
          "type": "uint256"
        }
      ],
      "stateMutability": "view",
      "type": "function"
    },
    {
      "inputs": [
        {
          "internalType": "uint256",
          "name": "",
          "type": "uint256"
        }
      ],
      "name": "ellipticalToOwner",
      "outputs": [
        {
          "internalType": "address",
          "name": "",
          "type": "address"
        }
      ],
      "stateMutability": "view",
      "type": "function"
    },
    {
      "inputs": [
        {
          "internalType": "uint256",
          "name": "",
          "type": "uint256"
        }
      ],
      "name": "ellipticals",
      "outputs": [
        {
          "internalType": "string",
          "name": "name",
          "type": "string"
        },
        {
          "internalType": "string",
          "name": "description",
          "type": "string"
        },
        {
          "internalType": "uint256",
          "name": "v1",
          "type": "uint256"
        },
        {
          "internalType": "uint256",
          "name": "v2",
          "type": "uint256"
        },
        {
          "internalType": "uint256",
          "name": "v3",
          "type": "uint256"
        },
        {
          "internalType": "uint256",
          "name": "alpha",
          "type": "uint256"
        },
        {
          "internalType": "uint256",
          "name": "x",
          "type": "uint256"
        },
        {
          "internalType": "uint256",
          "name": "y",
          "type": "uint256"
        },
        {
          "internalType": "uint256",
          "name": "w",
          "type": "uint256"
        },
        {
          "internalType": "uint256",
          "name": "h",
          "type": "uint256"
        }
      ],
      "stateMutability": "view",
      "type": "function"
    },
    {
      "inputs": [
        {
          "internalType": "uint256",
          "name": "tokenId",
          "type": "uint256"
        }
      ],
      "name": "getApproved",
      "outputs": [
        {
          "internalType": "address",
          "name": "",
          "type": "address"
        }
      ],
      "stateMutability": "view",
      "type": "function"
    },
    {
      "inputs": [
        {
          "internalType": "address",
          "name": "owner",
          "type": "address"
        },
        {
          "internalType": "address",
          "name": "operator",
          "type": "address"
        }
      ],
      "name": "isApprovedForAll",
      "outputs": [
        {
          "internalType": "bool",
          "name": "",
          "type": "bool"
        }
      ],
      "stateMutability": "view",
      "type": "function"
    },
    {
      "inputs": [],
      "name": "name",
      "outputs": [
        {
          "internalType": "string",
          "name": "",
          "type": "string"
        }
      ],
      "stateMutability": "view",
      "type": "function"
    },
    {
      "inputs": [],
      "name": "owner",
      "outputs": [
        {
          "internalType": "address",
          "name": "",
          "type": "address"
        }
      ],
      "stateMutability": "view",
      "type": "function"
    },
    {
      "inputs": [
        {
          "internalType": "uint256",
          "name": "tokenId",
          "type": "uint256"
        }
      ],
      "name": "ownerOf",
      "outputs": [
        {
          "internalType": "address",
          "name": "",
          "type": "address"
        }
      ],
      "stateMutability": "view",
      "type": "function"
    },
    {
      "inputs": [
        {
          "internalType": "bytes32",
          "name": "requestId",
          "type": "bytes32"
        },
        {
          "internalType": "uint256",
          "name": "randomness",
          "type": "uint256"
        }
      ],
      "name": "rawFulfillRandomness",
      "outputs": [],
      "stateMutability": "nonpayable",
      "type": "function"
    },
    {
      "inputs": [],
      "name": "renounceOwnership",
      "outputs": [],
      "stateMutability": "nonpayable",
      "type": "function"
    },
    {
      "inputs": [
        {
          "internalType": "bytes32",
          "name": "",
          "type": "bytes32"
        }
      ],
      "name": "requestToEllipticalDescription",
      "outputs": [
        {
          "internalType": "string",
          "name": "",
          "type": "string"
        }
      ],
      "stateMutability": "view",
      "type": "function"
    },
    {
      "inputs": [
        {
          "internalType": "bytes32",
          "name": "",
          "type": "bytes32"
        }
      ],
      "name": "requestToEllipticalName",
      "outputs": [
        {
          "internalType": "string",
          "name": "",
          "type": "string"
        }
      ],
      "stateMutability": "view",
      "type": "function"
    },
    {
      "inputs": [
        {
          "internalType": "bytes32",
          "name": "",
          "type": "bytes32"
        }
      ],
      "name": "requestToSender",
      "outputs": [
        {
          "internalType": "address",
          "name": "",
          "type": "address"
        }
      ],
      "stateMutability": "view",
      "type": "function"
    },
    {
      "inputs": [
        {
          "internalType": "address",
          "name": "from",
          "type": "address"
        },
        {
          "internalType": "address",
          "name": "to",
          "type": "address"
        },
        {
          "internalType": "uint256",
          "name": "tokenId",
          "type": "uint256"
        }
      ],
      "name": "safeTransferFrom",
      "outputs": [],
      "stateMutability": "nonpayable",
      "type": "function"
    },
    {
      "inputs": [
        {
          "internalType": "address",
          "name": "from",
          "type": "address"
        },
        {
          "internalType": "address",
          "name": "to",
          "type": "address"
        },
        {
          "internalType": "uint256",
          "name": "tokenId",
          "type": "uint256"
        },
        {
          "internalType": "bytes",
          "name": "_data",
          "type": "bytes"
        }
      ],
      "name": "safeTransferFrom",
      "outputs": [],
      "stateMutability": "nonpayable",
      "type": "function"
    },
    {
      "inputs": [
        {
          "internalType": "address",
          "name": "operator",
          "type": "address"
        },
        {
          "internalType": "bool",
          "name": "approved",
          "type": "bool"
        }
      ],
      "name": "setApprovalForAll",
      "outputs": [],
      "stateMutability": "nonpayable",
      "type": "function"
    },
    {
      "inputs": [
        {
          "internalType": "bytes4",
          "name": "interfaceId",
          "type": "bytes4"
        }
      ],
      "name": "supportsInterface",
      "outputs": [
        {
          "internalType": "bool",
          "name": "",
          "type": "bool"
        }
      ],
      "stateMutability": "view",
      "type": "function"
    },
    {
      "inputs": [],
      "name": "symbol",
      "outputs": [
        {
          "internalType": "string",
          "name": "",
          "type": "string"
        }
      ],
      "stateMutability": "view",
      "type": "function"
    },
    {
      "inputs": [
        {
          "internalType": "address",
          "name": "newOwner",
          "type": "address"
        }
      ],
      "name": "transferOwnership",
      "outputs": [],
      "stateMutability": "nonpayable",
      "type": "function"
    },
    {
      "inputs": [
        {
          "internalType": "string",
          "name": "_name",
          "type": "string"
        },
        {
          "internalType": "string",
          "name": "_description",
          "type": "string"
        }
      ],
      "name": "requestNewRandomElliptical",
      "outputs": [
        {
          "internalType": "bytes32",
          "name": "",
          "type": "bytes32"
        }
      ],
      "stateMutability": "nonpayable",
      "type": "function"
    },
    {
      "inputs": [
        {
          "internalType": "uint256",
          "name": "_tokenId",
          "type": "uint256"
        }
      ],
      "name": "getTokenURI",
      "outputs": [
        {
          "internalType": "string",
          "name": "",
          "type": "string"
        }
      ],
      "stateMutability": "view",
      "type": "function"
    },
    {
      "inputs": [
        {
          "internalType": "uint256",
          "name": "tokenId",
          "type": "uint256"
        },
        {
          "internalType": "string",
          "name": "_tokenURI",
          "type": "string"
        }
      ],
      "name": "setTokenURI",
      "outputs": [],
      "stateMutability": "nonpayable",
      "type": "function"
    },
    {
      "inputs": [],
      "name": "getEllipticalsCount",
      "outputs": [
        {
          "internalType": "uint256",
          "name": "",
          "type": "uint256"
        }
      ],
      "stateMutability": "view",
      "type": "function"
    },
    {
      "inputs": [
        {
          "internalType": "address",
          "name": "_from",
          "type": "address"
        },
        {
          "internalType": "address",
          "name": "_to",
          "type": "address"
        },
        {
          "internalType": "uint256",
          "name": "_tokenId",
          "type": "uint256"
        }
      ],
      "name": "transferFrom",
      "outputs": [],
      "stateMutability": "nonpayable",
      "type": "function"
    },
    {
      "inputs": [
        {
          "internalType": "address",
          "name": "_approved",
          "type": "address"
        },
        {
          "internalType": "uint256",
          "name": "_tokenId",
          "type": "uint256"
        }
      ],
      "name": "approve",
      "outputs": [],
      "stateMutability": "nonpayable",
      "type": "function"
    },
    {
      "inputs": [
        {
          "internalType": "uint256",
          "name": "_tokenId",
          "type": "uint256"
        }
      ],
      "name": "tokenURI",
      "outputs": [
        {
          "internalType": "string",
          "name": "",
          "type": "string"
        }
      ],
      "stateMutability": "view",
      "type": "function"
    }
  ],
  "bytecode": "0x60c060405262015180600e556002600f60006101000a81548160ff021916908360ff1602179055503480156200003457600080fd5b5060405162004d1438038062004d1483398181016040528101906200005a9190620004e6565b84846040518060400160405280601081526020017f456c6c6970746963616c4172744e4654000000000000000000000000000000008152506040518060400160405280600281526020017f45410000000000000000000000000000000000000000000000000000000000008152508160009080519060200190620000e092919062000353565b508060019080519060200190620000f992919062000353565b5050508173ffffffffffffffffffffffffffffffffffffffff1660a08173ffffffffffffffffffffffffffffffffffffffff16815250508073ffffffffffffffffffffffffffffffffffffffff1660808173ffffffffffffffffffffffffffffffffffffffff16815250505050620001866200017a6200028560201b60201c565b6200028d60201b60201c565b84600c60006101000a81548173ffffffffffffffffffffffffffffffffffffffff021916908373ffffffffffffffffffffffffffffffffffffffff16021790555081600960006101000a81548173ffffffffffffffffffffffffffffffffffffffff021916908373ffffffffffffffffffffffffffffffffffffffff16021790555083600d60006101000a81548173ffffffffffffffffffffffffffffffffffffffff021916908373ffffffffffffffffffffffffffffffffffffffff16021790555082600a8190555067016345785d8a0000600b8190555080600f60016101000a81548160ff021916908360ff1602179055505050505050620005d3565b600033905090565b6000600860009054906101000a900473ffffffffffffffffffffffffffffffffffffffff16905081600860006101000a81548173ffffffffffffffffffffffffffffffffffffffff021916908373ffffffffffffffffffffffffffffffffffffffff1602179055508173ffffffffffffffffffffffffffffffffffffffff168173ffffffffffffffffffffffffffffffffffffffff167f8be0079c531659141344cd1fd0a4f28419497f9722a3daafe3b4186f6b6457e060405160405180910390a35050565b82805462000361906200059d565b90600052602060002090601f016020900481019282620003855760008555620003d1565b82601f10620003a057805160ff1916838001178555620003d1565b82800160010185558215620003d1579182015b82811115620003d0578251825591602001919060010190620003b3565b5b509050620003e09190620003e4565b5090565b5b80821115620003ff576000816000905550600101620003e5565b5090565b600080fd5b600073ffffffffffffffffffffffffffffffffffffffff82169050919050565b6000620004358262000408565b9050919050565b620004478162000428565b81146200045357600080fd5b50565b60008151905062000467816200043c565b92915050565b6000819050919050565b62000482816200046d565b81146200048e57600080fd5b50565b600081519050620004a28162000477565b92915050565b600060ff82169050919050565b620004c081620004a8565b8114620004cc57600080fd5b50565b600081519050620004e081620004b5565b92915050565b600080600080600060a0868803121562000505576200050462000403565b5b6000620005158882890162000456565b9550506020620005288882890162000456565b94505060406200053b8882890162000491565b93505060606200054e8882890162000456565b92505060806200056188828901620004cf565b9150509295509295909350565b7f4e487b7100000000000000000000000000000000000000000000000000000000600052602260045260246000fd5b60006002820490506001821680620005b657607f821691505b60208210811415620005cd57620005cc6200056e565b5b50919050565b60805160a05161470d6200060760003960008181610ecd01526121b20152600081816110000152612176015261470d6000f3fe608060405234801561001057600080fd5b50600436106101c45760003560e01c8063715018a6116100f9578063a22cb46511610097578063c87b56dd11610071578063c87b56dd14610546578063e985e9c514610576578063ebebf72d146105a6578063f2fde38b146105c4576101c4565b8063a22cb465146104d5578063b54f40bc146104f1578063b88d4fde1461052a576101c4565b806392eb8b13116100d357806392eb8b131461043b57806394985ddd1461046b57806395d89b41146104875780639eb38d23146104a5576101c4565b8063715018a6146103e35780637497a5be146103ed5780638da5cb5b1461041d576101c4565b806333b6086311610166578063431df2a111610140578063431df2a1146103355780634f8e2fdf146103655780636352211e1461038357806370a08231146103b3576101c4565b806333b60863146102cb5780633bb3a24d146102e957806342842e0e14610319576101c4565b8063095ea7b3116101a2578063095ea7b314610247578063162094c41461026357806323b872dd1461027f578063274ac0c31461029b576101c4565b806301ffc9a7146101c957806306fdde03146101f9578063081812fc14610217575b600080fd5b6101e360048036038101906101de9190612d69565b6105e0565b6040516101f09190612db1565b60405180910390f35b6102016106c2565b60405161020e9190612e65565b60405180910390f35b610231600480360381019061022c9190612ebd565b610754565b60405161023e9190612f2b565b60405180910390f35b610261600480360381019061025c9190612f72565b6107d9565b005b61027d600480360381019061027891906130e7565b61093b565b005b61029960048036038101906102949190613143565b610999565b005b6102b560048036038101906102b091906131cc565b610a8b565b6040516102c29190612f2b565b60405180910390f35b6102d3610abe565b6040516102e09190612f2b565b60405180910390f35b61030360048036038101906102fe9190612ebd565b610ae4565b6040516103109190612e65565b60405180910390f35b610333600480360381019061032e9190613143565b610af6565b005b61034f600480360381019061034a91906131cc565b610b16565b60405161035c9190612e65565b60405180910390f35b61036d610bb6565b60405161037a9190612f2b565b60405180910390f35b61039d60048036038101906103989190612ebd565b610bdc565b6040516103aa9190612f2b565b60405180910390f35b6103cd60048036038101906103c891906131f9565b610c8e565b6040516103da9190613235565b60405180910390f35b6103eb610d46565b005b610407600480360381019061040291906131cc565b610dce565b6040516104149190612e65565b60405180910390f35b610425610e6e565b6040516104329190612f2b565b60405180910390f35b61045560048036038101906104509190612ebd565b610e98565b6040516104629190612f2b565b60405180910390f35b61048560048036038101906104809190613250565b610ecb565b005b61048f610f67565b60405161049c9190612e65565b60405180910390f35b6104bf60048036038101906104ba9190613290565b610ff9565b6040516104cc9190613317565b60405180910390f35b6104ef60048036038101906104ea919061335e565b61133e565b005b61050b60048036038101906105069190612ebd565b6114bf565b6040516105219a9998979695949392919061339e565b60405180910390f35b610544600480360381019061053f91906134e9565b611633565b005b610560600480360381019061055b9190612ebd565b611695565b60405161056d9190612e65565b60405180910390f35b610590600480360381019061058b919061356c565b6116a7565b60405161059d9190612db1565b60405180910390f35b6105ae61173b565b6040516105bb9190613235565b60405180910390f35b6105de60048036038101906105d991906131f9565b611748565b005b60007f80ac58cd000000000000000000000000000000000000000000000000000000007bffffffffffffffffffffffffffffffffffffffffffffffffffffffff1916827bffffffffffffffffffffffffffffffffffffffffffffffffffffffff191614806106ab57507f5b5e139f000000000000000000000000000000000000000000000000000000007bffffffffffffffffffffffffffffffffffffffffffffffffffffffff1916827bffffffffffffffffffffffffffffffffffffffffffffffffffffffff1916145b806106bb57506106ba82611840565b5b9050919050565b6060600080546106d1906135db565b80601f01602080910402602001604051908101604052809291908181526020018280546106fd906135db565b801561074a5780601f1061071f5761010080835404028352916020019161074a565b820191906000526020600020905b81548152906001019060200180831161072d57829003601f168201915b5050505050905090565b600061075f826118aa565b61079e576040517f08c379a00000000000000000000000000000000000000000000000000000000081526004016107959061367f565b60405180910390fd5b6004600083815260200190815260200160002060009054906101000a900473ffffffffffffffffffffffffffffffffffffffff169050919050565b806107e2611916565b73ffffffffffffffffffffffffffffffffffffffff166018600083815260200190815260200160002060009054906101000a900473ffffffffffffffffffffffffffffffffffffffff1673ffffffffffffffffffffffffffffffffffffffff1614610882576040517f08c379a000000000000000000000000000000000000000000000000000000000815260040161087990613711565b60405180910390fd5b826017600084815260200190815260200160002060006101000a81548173ffffffffffffffffffffffffffffffffffffffff021916908373ffffffffffffffffffffffffffffffffffffffff160217905550818373ffffffffffffffffffffffffffffffffffffffff166108f4611916565b73ffffffffffffffffffffffffffffffffffffffff167f8c5be1e5ebec7d5bd14f71427d1e84f3dd0314c0f7b2291e5b200ac8c7c3b92560405160405180910390a4505050565b61094c610946611916565b8361191e565b61098b576040517f08c379a0000000000000000000000000000000000000000000000000000000008152600401610982906137a3565b60405180910390fd5b61099582826119fc565b5050565b6109a1611916565b73ffffffffffffffffffffffffffffffffffffffff166018600083815260200190815260200160002060009054906101000a900473ffffffffffffffffffffffffffffffffffffffff1673ffffffffffffffffffffffffffffffffffffffff161480610a725750610a10611916565b73ffffffffffffffffffffffffffffffffffffffff166017600083815260200190815260200160002060009054906101000a900473ffffffffffffffffffffffffffffffffffffffff1673ffffffffffffffffffffffffffffffffffffffff16145b610a7b57600080fd5b610a86838383611a70565b505050565b60136020528060005260406000206000915054906101000a900473ffffffffffffffffffffffffffffffffffffffff1681565b600c60009054906101000a900473ffffffffffffffffffffffffffffffffffffffff1681565b6060610aef82611695565b9050919050565b610b1183838360405180602001604052806000815250611633565b505050565b60116020528060005260406000206000915090508054610b35906135db565b80601f0160208091040260200160405190810160405280929190818152602001828054610b61906135db565b8015610bae5780601f10610b8357610100808354040283529160200191610bae565b820191906000526020600020905b815481529060010190602001808311610b9157829003601f168201915b505050505081565b600d60009054906101000a900473ffffffffffffffffffffffffffffffffffffffff1681565b6000806002600084815260200190815260200160002060009054906101000a900473ffffffffffffffffffffffffffffffffffffffff169050600073ffffffffffffffffffffffffffffffffffffffff168173ffffffffffffffffffffffffffffffffffffffff161415610c85576040517f08c379a0000000000000000000000000000000000000000000000000000000008152600401610c7c90613835565b60405180910390fd5b80915050919050565b60008073ffffffffffffffffffffffffffffffffffffffff168273ffffffffffffffffffffffffffffffffffffffff161415610cff576040517f08c379a0000000000000000000000000000000000000000000000000000000008152600401610cf6906138c7565b60405180910390fd5b600360008373ffffffffffffffffffffffffffffffffffffffff1673ffffffffffffffffffffffffffffffffffffffff168152602001908152602001600020549050919050565b610d4e611916565b73ffffffffffffffffffffffffffffffffffffffff16610d6c610e6e565b73ffffffffffffffffffffffffffffffffffffffff1614610dc2576040517f08c379a0000000000000000000000000000000000000000000000000000000008152600401610db990613933565b60405180910390fd5b610dcc6000611c13565b565b60126020528060005260406000206000915090508054610ded906135db565b80601f0160208091040260200160405190810160405280929190818152602001828054610e19906135db565b8015610e665780601f10610e3b57610100808354040283529160200191610e66565b820191906000526020600020905b815481529060010190602001808311610e4957829003601f168201915b505050505081565b6000600860009054906101000a900473ffffffffffffffffffffffffffffffffffffffff16905090565b60186020528060005260406000206000915054906101000a900473ffffffffffffffffffffffffffffffffffffffff1681565b7f000000000000000000000000000000000000000000000000000000000000000073ffffffffffffffffffffffffffffffffffffffff163373ffffffffffffffffffffffffffffffffffffffff1614610f59576040517f08c379a0000000000000000000000000000000000000000000000000000000008152600401610f509061399f565b60405180910390fd5b610f638282611cd9565b5050565b606060018054610f76906135db565b80601f0160208091040260200160405190810160405280929190818152602001828054610fa2906135db565b8015610fef5780601f10610fc457610100808354040283529160200191610fef565b820191906000526020600020905b815481529060010190602001808311610fd257829003601f168201915b5050505050905090565b6000600b547f000000000000000000000000000000000000000000000000000000000000000073ffffffffffffffffffffffffffffffffffffffff166370a08231306040518263ffffffff1660e01b81526004016110579190612f2b565b60206040518083038186803b15801561106f57600080fd5b505afa158015611083573d6000803e3d6000fd5b505050506040513d601f19601f820116820180604052508101906110a791906139d4565b10156110e8576040517f08c379a00000000000000000000000000000000000000000000000000000000081526004016110df90613a4d565b60405180910390fd5b600f60019054906101000a900460ff1660ff1661110361173b565b10611143576040517f08c379a000000000000000000000000000000000000000000000000000000000815260040161113a90613adf565b60405180910390fd5b600f60009054906101000a900460ff1660ff1660166000611162611916565b73ffffffffffffffffffffffffffffffffffffffff1673ffffffffffffffffffffffffffffffffffffffff16815260200190815260200160002060009054906101000a900460ff1660ff16106111ed576040517f08c379a00000000000000000000000000000000000000000000000000000000081526004016111e490613b71565b60405180910390fd5b6111fd6111f8611916565b6120b1565b61123c576040517f08c379a000000000000000000000000000000000000000000000000000000000815260040161123390613c29565b60405180910390fd5b600061124c600a54600b54612172565b905083601160008381526020019081526020016000209080519060200190611275929190612c5a565b508260126000838152602001908152602001600020908051906020019061129d929190612c5a565b506112a6611916565b6013600083815260200190815260200160002060006101000a81548173ffffffffffffffffffffffffffffffffffffffff021916908373ffffffffffffffffffffffffffffffffffffffff160217905550611307611302611916565b6122d4565b807f9bdd58ca7efbbe7568872b890c7258ba3441e8b99fa6dfd476f1098bdf83a99260405160405180910390a28091505092915050565b611346611916565b73ffffffffffffffffffffffffffffffffffffffff168273ffffffffffffffffffffffffffffffffffffffff1614156113b4576040517f08c379a00000000000000000000000000000000000000000000000000000000081526004016113ab90613c95565b60405180910390fd5b80600560006113c1611916565b73ffffffffffffffffffffffffffffffffffffffff1673ffffffffffffffffffffffffffffffffffffffff16815260200190815260200160002060008473ffffffffffffffffffffffffffffffffffffffff1673ffffffffffffffffffffffffffffffffffffffff16815260200190815260200160002060006101000a81548160ff0219169083151502179055508173ffffffffffffffffffffffffffffffffffffffff1661146e611916565b73ffffffffffffffffffffffffffffffffffffffff167f17307eab39ab6107e8899845ad3d59bd9653f200f220920489ca2b5937696c31836040516114b39190612db1565b60405180910390a35050565b601081815481106114cf57600080fd5b90600052602060002090600a02016000915090508060000180546114f2906135db565b80601f016020809104026020016040519081016040528092919081815260200182805461151e906135db565b801561156b5780601f106115405761010080835404028352916020019161156b565b820191906000526020600020905b81548152906001019060200180831161154e57829003601f168201915b505050505090806001018054611580906135db565b80601f01602080910402602001604051908101604052809291908181526020018280546115ac906135db565b80156115f95780601f106115ce576101008083540402835291602001916115f9565b820191906000526020600020905b8154815290600101906020018083116115dc57829003601f168201915b505050505090806002015490806003015490806004015490806005015490806006015490806007015490806008015490806009015490508a565b61164461163e611916565b8361191e565b611683576040517f08c379a000000000000000000000000000000000000000000000000000000000815260040161167a906137a3565b60405180910390fd5b61168f84848484612342565b50505050565b60606116a08261239e565b9050919050565b6000600560008473ffffffffffffffffffffffffffffffffffffffff1673ffffffffffffffffffffffffffffffffffffffff16815260200190815260200160002060008373ffffffffffffffffffffffffffffffffffffffff1673ffffffffffffffffffffffffffffffffffffffff16815260200190815260200160002060009054906101000a900460ff16905092915050565b6000601080549050905090565b611750611916565b73ffffffffffffffffffffffffffffffffffffffff1661176e610e6e565b73ffffffffffffffffffffffffffffffffffffffff16146117c4576040517f08c379a00000000000000000000000000000000000000000000000000000000081526004016117bb90613933565b60405180910390fd5b600073ffffffffffffffffffffffffffffffffffffffff168173ffffffffffffffffffffffffffffffffffffffff161415611834576040517f08c379a000000000000000000000000000000000000000000000000000000000815260040161182b90613d27565b60405180910390fd5b61183d81611c13565b50565b60007f01ffc9a7000000000000000000000000000000000000000000000000000000007bffffffffffffffffffffffffffffffffffffffffffffffffffffffff1916827bffffffffffffffffffffffffffffffffffffffffffffffffffffffff1916149050919050565b60008073ffffffffffffffffffffffffffffffffffffffff166002600084815260200190815260200160002060009054906101000a900473ffffffffffffffffffffffffffffffffffffffff1673ffffffffffffffffffffffffffffffffffffffff1614159050919050565b600033905090565b6000611929826118aa565b611968576040517f08c379a000000000000000000000000000000000000000000000000000000000815260040161195f90613db9565b60405180910390fd5b600061197383610bdc565b90508073ffffffffffffffffffffffffffffffffffffffff168473ffffffffffffffffffffffffffffffffffffffff1614806119e257508373ffffffffffffffffffffffffffffffffffffffff166119ca84610754565b73ffffffffffffffffffffffffffffffffffffffff16145b806119f357506119f281856116a7565b5b91505092915050565b611a05826118aa565b611a44576040517f08c379a0000000000000000000000000000000000000000000000000000000008152600401611a3b90613e4b565b60405180910390fd5b80600660008481526020019081526020016000209080519060200190611a6b929190612c5a565b505050565b601660008373ffffffffffffffffffffffffffffffffffffffff1673ffffffffffffffffffffffffffffffffffffffff168152602001908152602001600020600081819054906101000a900460ff1680929190611acc90613ea7565b91906101000a81548160ff021916908360ff1602179055505060166000611af1611916565b73ffffffffffffffffffffffffffffffffffffffff1673ffffffffffffffffffffffffffffffffffffffff168152602001908152602001600020600081819054906101000a900460ff1680929190611b4890613ed1565b91906101000a81548160ff021916908360ff16021790555050816018600083815260200190815260200160002060006101000a81548173ffffffffffffffffffffffffffffffffffffffff021916908373ffffffffffffffffffffffffffffffffffffffff160217905550808273ffffffffffffffffffffffffffffffffffffffff168473ffffffffffffffffffffffffffffffffffffffff167fddf252ad1be2c89b69c2b068fc378daa952ba7f163c4a11628f55a4df523b3ef60405160405180910390a4505050565b6000600860009054906101000a900473ffffffffffffffffffffffffffffffffffffffff16905081600860006101000a81548173ffffffffffffffffffffffffffffffffffffffff021916908373ffffffffffffffffffffffffffffffffffffffff1602179055508173ffffffffffffffffffffffffffffffffffffffff168173ffffffffffffffffffffffffffffffffffffffff167f8be0079c531659141344cd1fd0a4f28419497f9722a3daafe3b4186f6b6457e060405160405180910390a35050565b600060108054905090506000611ced6124f0565b90506000611cfc8460016125a0565b90506000611d0b8560026125a0565b90506000611d1a8660036125a0565b90506000611d298760046125a0565b90506000611d388860056125a0565b90506000611d478960066125a0565b90506000611d568a60076125a0565b90506000604051806101400160405280601160008f81526020019081526020016000208054611d84906135db565b80601f0160208091040260200160405190810160405280929190818152602001828054611db0906135db565b8015611dfd5780601f10611dd257610100808354040283529160200191611dfd565b820191906000526020600020905b815481529060010190602001808311611de057829003601f168201915b50505050508152602001601260008f81526020019081526020016000208054611e25906135db565b80601f0160208091040260200160405190810160405280929190818152602001828054611e51906135db565b8015611e9e5780601f10611e7357610100808354040283529160200191611e9e565b820191906000526020600020905b815481529060010190602001808311611e8157829003601f168201915b505050505081526020018a81526020018981526020018881526020018781526020018681526020018581526020018481526020018381525090506000601360008e815260200190815260200160002060009054906101000a900473ffffffffffffffffffffffffffffffffffffffff16905060108290806001815401808255809150506001900390600052602060002090600a02016000909190919091506000820151816000019080519060200190611f58929190612c5a565b506020820151816001019080519060200190611f75929190612c5a565b5060408201518160020155606082015181600301556080820151816004015560a0820151816005015560c0820151816006015560e08201518160070155610100820151816008015561012082015181600901555050611fd2611916565b601860008d815260200190815260200160002060006101000a81548173ffffffffffffffffffffffffffffffffffffffff021916908373ffffffffffffffffffffffffffffffffffffffff160217905550601660008273ffffffffffffffffffffffffffffffffffffffff1673ffffffffffffffffffffffffffffffffffffffff168152602001908152602001600020600081819054906101000a900460ff168092919061207f90613ea7565b91906101000a81548160ff021916908360ff160217905550506120a2818c6125d6565b50505050505050505050505050565b600080601560008473ffffffffffffffffffffffffffffffffffffffff1673ffffffffffffffffffffffffffffffffffffffff16815260200190815260200160002060009054906101000a900463ffffffff1663ffffffff16148061216b575042601560008473ffffffffffffffffffffffffffffffffffffffff1673ffffffffffffffffffffffffffffffffffffffff16815260200190815260200160002060009054906101000a900463ffffffff1663ffffffff1611155b9050919050565b60007f000000000000000000000000000000000000000000000000000000000000000073ffffffffffffffffffffffffffffffffffffffff16634000aea07f0000000000000000000000000000000000000000000000000000000000000000848660006040516020016121e6929190613efb565b6040516020818303038152906040526040518463ffffffff1660e01b815260040161221393929190613f79565b602060405180830381600087803b15801561222d57600080fd5b505af1158015612241573d6000803e3d6000fd5b505050506040513d601f19601f820116820180604052508101906122659190613fcc565b5060006122888460003060076000898152602001908152602001600020546125f4565b9050600160076000868152602001908152602001600020546122aa9190613ff9565b60076000868152602001908152602001600020819055506122cb8482612630565b91505092915050565b600e54426122e29190613ff9565b601560008373ffffffffffffffffffffffffffffffffffffffff1673ffffffffffffffffffffffffffffffffffffffff16815260200190815260200160002060006101000a81548163ffffffff021916908363ffffffff16021790555050565b61234d848484611a70565b61235984848484612663565b612398576040517f08c379a000000000000000000000000000000000000000000000000000000000815260040161238f906140c1565b60405180910390fd5b50505050565b60606123a9826118aa565b6123e8576040517f08c379a00000000000000000000000000000000000000000000000000000000081526004016123df90614153565b60405180910390fd5b6000600660008481526020019081526020016000208054612408906135db565b80601f0160208091040260200160405190810160405280929190818152602001828054612434906135db565b80156124815780601f1061245657610100808354040283529160200191612481565b820191906000526020600020905b81548152906001019060200180831161246457829003601f168201915b5050505050905060006124926127fa565b90506000815114156124a85781925050506124eb565b6000825111156124dd5780826040516020016124c59291906141af565b604051602081830303815290604052925050506124eb565b6124e684612811565b925050505b919050565b600080600960009054906101000a900473ffffffffffffffffffffffffffffffffffffffff1673ffffffffffffffffffffffffffffffffffffffff1663feaf968c6040518163ffffffff1660e01b815260040160a06040518083038186803b15801561255b57600080fd5b505afa15801561256f573d6000803e3d6000fd5b505050506040513d601f19601f82011682018060405250810190612593919061424b565b5050509150508091505090565b600082826040516020016125b59291906142c6565b6040516020818303038152906040528051906020012060001c905092915050565b6125f08282604051806020016040528060008152506128b8565b5050565b60008484848460405160200161260d94939291906142ef565b6040516020818303038152906040528051906020012060001c9050949350505050565b60008282604051602001612645929190614376565b60405160208183030381529060405280519060200120905092915050565b60006126848473ffffffffffffffffffffffffffffffffffffffff16612913565b156127ed578373ffffffffffffffffffffffffffffffffffffffff1663150b7a026126ad611916565b8786866040518563ffffffff1660e01b81526004016126cf94939291906143a2565b602060405180830381600087803b1580156126e957600080fd5b505af192505050801561271a57506040513d601f19601f820116820180604052508101906127179190614403565b60015b61279d573d806000811461274a576040519150601f19603f3d011682016040523d82523d6000602084013e61274f565b606091505b50600081511415612795576040517f08c379a000000000000000000000000000000000000000000000000000000000815260040161278c906140c1565b60405180910390fd5b805181602001fd5b63150b7a0260e01b7bffffffffffffffffffffffffffffffffffffffffffffffffffffffff1916817bffffffffffffffffffffffffffffffffffffffffffffffffffffffff1916149150506127f2565b600190505b949350505050565b606060405180602001604052806000815250905090565b606061281c826118aa565b61285b576040517f08c379a0000000000000000000000000000000000000000000000000000000008152600401612852906144a2565b60405180910390fd5b60006128656127fa565b9050600081511161288557604051806020016040528060008152506128b0565b8061288f84612926565b6040516020016128a09291906141af565b6040516020818303038152906040525b915050919050565b6128c28383612a87565b6128cf6000848484612663565b61290e576040517f08c379a0000000000000000000000000000000000000000000000000000000008152600401612905906140c1565b60405180910390fd5b505050565b600080823b905060008111915050919050565b6060600082141561296e576040518060400160405280600181526020017f30000000000000000000000000000000000000000000000000000000000000008152509050612a82565b600082905060005b600082146129a0578080612989906144c2565b915050600a82612999919061453a565b9150612976565b60008167ffffffffffffffff8111156129bc576129bb612fbc565b5b6040519080825280601f01601f1916602001820160405280156129ee5781602001600182028036833780820191505090505b5090505b60008514612a7b57600182612a07919061456b565b9150600a85612a16919061459f565b6030612a229190613ff9565b60f81b818381518110612a3857612a376145d0565b5b60200101907effffffffffffffffffffffffffffffffffffffffffffffffffffffffffffff1916908160001a905350600a85612a74919061453a565b94506129f2565b8093505050505b919050565b600073ffffffffffffffffffffffffffffffffffffffff168273ffffffffffffffffffffffffffffffffffffffff161415612af7576040517f08c379a0000000000000000000000000000000000000000000000000000000008152600401612aee9061464b565b60405180910390fd5b612b00816118aa565b15612b40576040517f08c379a0000000000000000000000000000000000000000000000000000000008152600401612b37906146b7565b60405180910390fd5b612b4c60008383612c55565b6001600360008473ffffffffffffffffffffffffffffffffffffffff1673ffffffffffffffffffffffffffffffffffffffff1681526020019081526020016000206000828254612b9c9190613ff9565b92505081905550816002600083815260200190815260200160002060006101000a81548173ffffffffffffffffffffffffffffffffffffffff021916908373ffffffffffffffffffffffffffffffffffffffff160217905550808273ffffffffffffffffffffffffffffffffffffffff16600073ffffffffffffffffffffffffffffffffffffffff167fddf252ad1be2c89b69c2b068fc378daa952ba7f163c4a11628f55a4df523b3ef60405160405180910390a45050565b505050565b828054612c66906135db565b90600052602060002090601f016020900481019282612c885760008555612ccf565b82601f10612ca157805160ff1916838001178555612ccf565b82800160010185558215612ccf579182015b82811115612cce578251825591602001919060010190612cb3565b5b509050612cdc9190612ce0565b5090565b5b80821115612cf9576000816000905550600101612ce1565b5090565b6000604051905090565b600080fd5b600080fd5b60007fffffffff0000000000000000000000000000000000000000000000000000000082169050919050565b612d4681612d11565b8114612d5157600080fd5b50565b600081359050612d6381612d3d565b92915050565b600060208284031215612d7f57612d7e612d07565b5b6000612d8d84828501612d54565b91505092915050565b60008115159050919050565b612dab81612d96565b82525050565b6000602082019050612dc66000830184612da2565b92915050565b600081519050919050565b600082825260208201905092915050565b60005b83811015612e06578082015181840152602081019050612deb565b83811115612e15576000848401525b50505050565b6000601f19601f8301169050919050565b6000612e3782612dcc565b612e418185612dd7565b9350612e51818560208601612de8565b612e5a81612e1b565b840191505092915050565b60006020820190508181036000830152612e7f8184612e2c565b905092915050565b6000819050919050565b612e9a81612e87565b8114612ea557600080fd5b50565b600081359050612eb781612e91565b92915050565b600060208284031215612ed357612ed2612d07565b5b6000612ee184828501612ea8565b91505092915050565b600073ffffffffffffffffffffffffffffffffffffffff82169050919050565b6000612f1582612eea565b9050919050565b612f2581612f0a565b82525050565b6000602082019050612f406000830184612f1c565b92915050565b612f4f81612f0a565b8114612f5a57600080fd5b50565b600081359050612f6c81612f46565b92915050565b60008060408385031215612f8957612f88612d07565b5b6000612f9785828601612f5d565b9250506020612fa885828601612ea8565b9150509250929050565b600080fd5b600080fd5b7f4e487b7100000000000000000000000000000000000000000000000000000000600052604160045260246000fd5b612ff482612e1b565b810181811067ffffffffffffffff8211171561301357613012612fbc565b5b80604052505050565b6000613026612cfd565b90506130328282612feb565b919050565b600067ffffffffffffffff82111561305257613051612fbc565b5b61305b82612e1b565b9050602081019050919050565b82818337600083830152505050565b600061308a61308584613037565b61301c565b9050828152602081018484840111156130a6576130a5612fb7565b5b6130b1848285613068565b509392505050565b600082601f8301126130ce576130cd612fb2565b5b81356130de848260208601613077565b91505092915050565b600080604083850312156130fe576130fd612d07565b5b600061310c85828601612ea8565b925050602083013567ffffffffffffffff81111561312d5761312c612d0c565b5b613139858286016130b9565b9150509250929050565b60008060006060848603121561315c5761315b612d07565b5b600061316a86828701612f5d565b935050602061317b86828701612f5d565b925050604061318c86828701612ea8565b9150509250925092565b6000819050919050565b6131a981613196565b81146131b457600080fd5b50565b6000813590506131c6816131a0565b92915050565b6000602082840312156131e2576131e1612d07565b5b60006131f0848285016131b7565b91505092915050565b60006020828403121561320f5761320e612d07565b5b600061321d84828501612f5d565b91505092915050565b61322f81612e87565b82525050565b600060208201905061324a6000830184613226565b92915050565b6000806040838503121561326757613266612d07565b5b6000613275858286016131b7565b925050602061328685828601612ea8565b9150509250929050565b600080604083850312156132a7576132a6612d07565b5b600083013567ffffffffffffffff8111156132c5576132c4612d0c565b5b6132d1858286016130b9565b925050602083013567ffffffffffffffff8111156132f2576132f1612d0c565b5b6132fe858286016130b9565b9150509250929050565b61331181613196565b82525050565b600060208201905061332c6000830184613308565b92915050565b61333b81612d96565b811461334657600080fd5b50565b60008135905061335881613332565b92915050565b6000806040838503121561337557613374612d07565b5b600061338385828601612f5d565b925050602061339485828601613349565b9150509250929050565b60006101408201905081810360008301526133b9818d612e2c565b905081810360208301526133cd818c612e2c565b90506133dc604083018b613226565b6133e9606083018a613226565b6133f66080830189613226565b61340360a0830188613226565b61341060c0830187613226565b61341d60e0830186613226565b61342b610100830185613226565b613439610120830184613226565b9b9a5050505050505050505050565b600067ffffffffffffffff82111561346357613462612fbc565b5b61346c82612e1b565b9050602081019050919050565b600061348c61348784613448565b61301c565b9050828152602081018484840111156134a8576134a7612fb7565b5b6134b3848285613068565b509392505050565b600082601f8301126134d0576134cf612fb2565b5b81356134e0848260208601613479565b91505092915050565b6000806000806080858703121561350357613502612d07565b5b600061351187828801612f5d565b945050602061352287828801612f5d565b935050604061353387828801612ea8565b925050606085013567ffffffffffffffff81111561355457613553612d0c565b5b613560878288016134bb565b91505092959194509250565b6000806040838503121561358357613582612d07565b5b600061359185828601612f5d565b92505060206135a285828601612f5d565b9150509250929050565b7f4e487b7100000000000000000000000000000000000000000000000000000000600052602260045260246000fd5b600060028204905060018216806135f357607f821691505b60208210811415613607576136066135ac565b5b50919050565b7f4552433732313a20617070726f76656420717565727920666f72206e6f6e657860008201527f697374656e7420746f6b656e0000000000000000000000000000000000000000602082015250565b6000613669602c83612dd7565b91506136748261360d565b604082019050919050565b600060208201905081810360008301526136988161365c565b9050919050565b7f4f6e6c7920746865206f776e65722063616e20617070726f7665206120746f6b60008201527f656e207472616e73666572210000000000000000000000000000000000000000602082015250565b60006136fb602c83612dd7565b91506137068261369f565b604082019050919050565b6000602082019050818103600083015261372a816136ee565b9050919050565b7f4552433732313a207472616e736665722063616c6c6572206973206e6f74206f60008201527f776e6572206e6f7220617070726f766564000000000000000000000000000000602082015250565b600061378d603183612dd7565b915061379882613731565b604082019050919050565b600060208201905081810360008301526137bc81613780565b9050919050565b7f4552433732313a206f776e657220717565727920666f72206e6f6e657869737460008201527f656e7420746f6b656e0000000000000000000000000000000000000000000000602082015250565b600061381f602983612dd7565b915061382a826137c3565b604082019050919050565b6000602082019050818103600083015261384e81613812565b9050919050565b7f4552433732313a2062616c616e636520717565727920666f7220746865207a6560008201527f726f206164647265737300000000000000000000000000000000000000000000602082015250565b60006138b1602a83612dd7565b91506138bc82613855565b604082019050919050565b600060208201905081810360008301526138e0816138a4565b9050919050565b7f4f776e61626c653a2063616c6c6572206973206e6f7420746865206f776e6572600082015250565b600061391d602083612dd7565b9150613928826138e7565b602082019050919050565b6000602082019050818103600083015261394c81613910565b9050919050565b7f4f6e6c7920565246436f6f7264696e61746f722063616e2066756c66696c6c00600082015250565b6000613989601f83612dd7565b915061399482613953565b602082019050919050565b600060208201905081810360008301526139b88161397c565b9050919050565b6000815190506139ce81612e91565b92915050565b6000602082840312156139ea576139e9612d07565b5b60006139f8848285016139bf565b91505092915050565b7f506c656173652066696c6c20636f6e74726163742077697468204c494e4b0000600082015250565b6000613a37601e83612dd7565b9150613a4282613a01565b602082019050919050565b60006020820190508181036000830152613a6681613a2a565b9050919050565b7f4e6f206d6f726520656c6c6970746963616c732063616e206265206d696e746560008201527f6421000000000000000000000000000000000000000000000000000000000000602082015250565b6000613ac9602283612dd7565b9150613ad482613a6d565b604082019050919050565b60006020820190508181036000830152613af881613abc565b9050919050565b7f416e20616464726573732063616e6e6f74206d696e74206d6f7265207468616e60008201527f2074776f20656c6c6970746963616c7321000000000000000000000000000000602082015250565b6000613b5b603183612dd7565b9150613b6682613aff565b604082019050919050565b60006020820190508181036000830152613b8a81613b4e565b9050919050565b7f416e20616464726573732063616e6e6f74206d696e74206d6f7265207468616e60008201527f206f6e6520656c6c6970746963616c2077697468696e206120323420686f757260208201527f20706572696f6421000000000000000000000000000000000000000000000000604082015250565b6000613c13604883612dd7565b9150613c1e82613b91565b606082019050919050565b60006020820190508181036000830152613c4281613c06565b9050919050565b7f4552433732313a20617070726f766520746f2063616c6c657200000000000000600082015250565b6000613c7f601983612dd7565b9150613c8a82613c49565b602082019050919050565b60006020820190508181036000830152613cae81613c72565b9050919050565b7f4f776e61626c653a206e6577206f776e657220697320746865207a65726f206160008201527f6464726573730000000000000000000000000000000000000000000000000000602082015250565b6000613d11602683612dd7565b9150613d1c82613cb5565b604082019050919050565b60006020820190508181036000830152613d4081613d04565b9050919050565b7f4552433732313a206f70657261746f7220717565727920666f72206e6f6e657860008201527f697374656e7420746f6b656e0000000000000000000000000000000000000000602082015250565b6000613da3602c83612dd7565b9150613dae82613d47565b604082019050919050565b60006020820190508181036000830152613dd281613d96565b9050919050565b7f45524337323155524953746f726167653a2055524920736574206f66206e6f6e60008201527f6578697374656e7420746f6b656e000000000000000000000000000000000000602082015250565b6000613e35602e83612dd7565b9150613e4082613dd9565b604082019050919050565b60006020820190508181036000830152613e6481613e28565b9050919050565b7f4e487b7100000000000000000000000000000000000000000000000000000000600052601160045260246000fd5b600060ff82169050919050565b6000613eb282613e9a565b915060ff821415613ec657613ec5613e6b565b5b600182019050919050565b6000613edc82613e9a565b91506000821415613ef057613eef613e6b565b5b600182039050919050565b6000604082019050613f106000830185613308565b613f1d6020830184613226565b9392505050565b600081519050919050565b600082825260208201905092915050565b6000613f4b82613f24565b613f558185613f2f565b9350613f65818560208601612de8565b613f6e81612e1b565b840191505092915050565b6000606082019050613f8e6000830186612f1c565b613f9b6020830185613226565b8181036040830152613fad8184613f40565b9050949350505050565b600081519050613fc681613332565b92915050565b600060208284031215613fe257613fe1612d07565b5b6000613ff084828501613fb7565b91505092915050565b600061400482612e87565b915061400f83612e87565b9250827fffffffffffffffffffffffffffffffffffffffffffffffffffffffffffffffff0382111561404457614043613e6b565b5b828201905092915050565b7f4552433732313a207472616e7366657220746f206e6f6e20455243373231526560008201527f63656976657220696d706c656d656e7465720000000000000000000000000000602082015250565b60006140ab603283612dd7565b91506140b68261404f565b604082019050919050565b600060208201905081810360008301526140da8161409e565b9050919050565b7f45524337323155524953746f726167653a2055524920717565727920666f722060008201527f6e6f6e6578697374656e7420746f6b656e000000000000000000000000000000602082015250565b600061413d603183612dd7565b9150614148826140e1565b604082019050919050565b6000602082019050818103600083015261416c81614130565b9050919050565b600081905092915050565b600061418982612dcc565b6141938185614173565b93506141a3818560208601612de8565b80840191505092915050565b60006141bb828561417e565b91506141c7828461417e565b91508190509392505050565b600069ffffffffffffffffffff82169050919050565b6141f2816141d3565b81146141fd57600080fd5b50565b60008151905061420f816141e9565b92915050565b6000819050919050565b61422881614215565b811461423357600080fd5b50565b6000815190506142458161421f565b92915050565b600080600080600060a0868803121561426757614266612d07565b5b600061427588828901614200565b955050602061428688828901614236565b9450506040614297888289016139bf565b93505060606142a8888289016139bf565b92505060806142b988828901614200565b9150509295509295909350565b60006040820190506142db6000830185613226565b6142e86020830184613226565b9392505050565b60006080820190506143046000830187613308565b6143116020830186613226565b61431e6040830185612f1c565b61432b6060830184613226565b95945050505050565b6000819050919050565b61434f61434a82613196565b614334565b82525050565b6000819050919050565b61437061436b82612e87565b614355565b82525050565b6000614382828561433e565b602082019150614392828461435f565b6020820191508190509392505050565b60006080820190506143b76000830187612f1c565b6143c46020830186612f1c565b6143d16040830185613226565b81810360608301526143e38184613f40565b905095945050505050565b6000815190506143fd81612d3d565b92915050565b60006020828403121561441957614418612d07565b5b6000614427848285016143ee565b91505092915050565b7f4552433732314d657461646174613a2055524920717565727920666f72206e6f60008201527f6e6578697374656e7420746f6b656e0000000000000000000000000000000000602082015250565b600061448c602f83612dd7565b915061449782614430565b604082019050919050565b600060208201905081810360008301526144bb8161447f565b9050919050565b60006144cd82612e87565b91507fffffffffffffffffffffffffffffffffffffffffffffffffffffffffffffffff821415614500576144ff613e6b565b5b600182019050919050565b7f4e487b7100000000000000000000000000000000000000000000000000000000600052601260045260246000fd5b600061454582612e87565b915061455083612e87565b9250826145605761455f61450b565b5b828204905092915050565b600061457682612e87565b915061458183612e87565b92508282101561459457614593613e6b565b5b828203905092915050565b60006145aa82612e87565b91506145b583612e87565b9250826145c5576145c461450b565b5b828206905092915050565b7f4e487b7100000000000000000000000000000000000000000000000000000000600052603260045260246000fd5b7f4552433732313a206d696e7420746f20746865207a65726f2061646472657373600082015250565b6000614635602083612dd7565b9150614640826145ff565b602082019050919050565b6000602082019050818103600083015261466481614628565b9050919050565b7f4552433732313a20746f6b656e20616c7265616479206d696e74656400000000600082015250565b60006146a1601c83612dd7565b91506146ac8261466b565b602082019050919050565b600060208201905081810360008301526146d081614694565b905091905056fea2646970667358221220633f39d2cdf1ed9c9d55bed2c2bcfa683eb05bc049d943c27f44c78a31ddd38264736f6c63430008090033",
  "immutableReferences": {
    "1611": [
      {
        "length": 32,
        "start": 4096
      },
      {
        "length": 32,
        "start": 8566
      }
    ],
    "1613": [
      {
        "length": 32,
        "start": 3789
      },
      {
        "length": 32,
        "start": 8626
      }
    ]
  },
  "source": "// SPDX-License-Identifier: MIT\npragma solidity 0.8.9;\n\nimport \"@openzeppelin/contracts/token/ERC721/extensions/ERC721URIStorage.sol\";\nimport \"@openzeppelin/contracts/token/ERC721/ERC721.sol\";\nimport \"@chainlink/contracts/src/v0.8/dev/VRFConsumerBase.sol\";\nimport \"@openzeppelin/contracts/access/Ownable.sol\";\nimport \"@openzeppelin/contracts/utils/Strings.sol\";\nimport \"@chainlink/contracts/src/v0.8/interfaces/AggregatorV3Interface.sol\";\n\n/// @title Contract for creating tradeable, randomly generated, and rare elliptical art\n/// @author Hou Chia\n/// @notice You can use this contract to generate tradeable, randomly generated, and rare elliptical art\n\ncontract EllipticalArtNFT is\n    ERC721,\n    ERC721URIStorage,\n    VRFConsumerBase,\n    Ownable\n{\n    AggregatorV3Interface internal priceFeed;\n\n    /// @notice key hash.\n    /// @dev public key used to generate randomness, set during contract initialization\n    bytes32 internal keyHash;\n\n    /// @notice fee required to fulfill a VRF request for generating a verifiably random number\n    /// @dev Used as an input to the Chainlink VRF, set during contract initialization\n    uint256 internal fee;\n\n    /// @notice Chainlink VRFCoordinator address\n    /// @dev Used as an input to the Chainlink VRF, set during contract initialization\n    address public VRFCoordinator;\n\n    /// @notice Chainlink token address at a given network\n    /// @dev Used as an input to the Chainlink VRF, set during contract initialization\n    address public LinkToken;\n\n    /// @notice Cooldown period before an address can mint another elliptical\n    /// @dev Used to ensure that no address can mint more than 1 elliptical within a day\n    uint256 cooldownTime = 1 days;\n\n    /// @notice The maximum number of ellipticals that can be created per address\n    /// @dev Used to ensure that no address can mint more than 2 ellipticals\n    uint8 maxPerAddress = 2;\n\n    /// @notice The maximum number of ellipticals that can be created on this contract\n    /// @dev This value is set during contract initialization, and cannot be updated\n    uint8 maxSupply;\n\n    struct Elliptical {\n        string name;\n        string description;\n        uint256 v1;\n        uint256 v2;\n        uint256 v3;\n        uint256 alpha;\n        uint256 x;\n        uint256 y;\n        uint256 w;\n        uint256 h;\n    }\n\n    Elliptical[] public ellipticals;\n\n    mapping(bytes32 => string) public requestToEllipticalName;\n    mapping(bytes32 => string) public requestToEllipticalDescription;\n    mapping(bytes32 => address) public requestToSender;\n    mapping(bytes32 => uint256) requestToTokenId;\n    mapping(address => uint32) addressToReadyTime;\n    mapping(address => uint8) addressEllipticalCount;\n    mapping(uint256 => address) ellipticalApprovals;\n    mapping(uint256 => address) public ellipticalToOwner;\n\n    /// @notice Emitted when a user requests a new elliptical\n    /// @param requestId request id\n    event RequestedElliptical(bytes32 indexed requestId);\n\n    modifier requireSufficientLink() {\n        require(\n            LINK.balanceOf(address(this)) >= fee,\n            \"Please fill contract with LINK\"\n        );\n        _;\n    }\n\n    modifier requireIsBelowMaxPerAddress() {\n        require(\n            addressEllipticalCount[_msgSender()] < maxPerAddress,\n            \"An address cannot mint more than two ellipticals!\"\n        );\n        _;\n    }\n\n    modifier requireIsBelowMaxSupply() {\n        require(\n            getEllipticalsCount() < maxSupply,\n            \"No more ellipticals can be minted!\"\n        );\n        _;\n    }\n\n    modifier requireIsReady() {\n        require(\n            _isReady(_msgSender()),\n            \"An address cannot mint more than one elliptical within a 24 hour period!\"\n        );\n        _;\n    }\n\n    modifier requireIsOwnerOf(uint256 _tokenId) {\n        require(\n            ellipticalToOwner[_tokenId] == _msgSender(),\n            \"Only the owner can approve a token transfer!\"\n        );\n        _;\n    }\n\n    constructor(\n        address _VRFCoordinator,\n        address _LinkToken,\n        bytes32 _keyHash,\n        address _priceFeed,\n        uint8 _maxSupply\n    )\n        VRFConsumerBase(_VRFCoordinator, _LinkToken)\n        ERC721(\"EllipticalArtNFT\", \"EA\")\n    {\n        VRFCoordinator = _VRFCoordinator;\n        priceFeed = AggregatorV3Interface(_priceFeed);\n        LinkToken = _LinkToken;\n        keyHash = _keyHash;\n        fee = 0.1 * 10**18; // 0.1 LINK\n        maxSupply = _maxSupply;\n    }\n\n    /// @notice Request a new elliptical\n    /// @dev requestRandomness() makes a request to the Chainlink oracle for a verifiably random number\n    /// @param _name a name for the elliptical\n    /// @param _description a description for the elliptical\n    /// @return request id associated with the VRF request\n    function requestNewRandomElliptical(\n        string memory _name,\n        string memory _description\n    )\n        public\n        requireSufficientLink\n        requireIsBelowMaxSupply\n        requireIsBelowMaxPerAddress\n        requireIsReady\n        returns (bytes32)\n    {\n        bytes32 requestId = requestRandomness(keyHash, fee);\n        requestToEllipticalName[requestId] = _name;\n        requestToEllipticalDescription[requestId] = _description;\n        requestToSender[requestId] = _msgSender();\n        _triggerCooldown(_msgSender());\n        emit RequestedElliptical(requestId);\n        return requestId;\n    }\n\n    /// @notice Return the URI for a given token\n    /// @param _tokenId id for the token\n    /// @return the token URI, which resolves to a JSON containing the token metadata\n    function getTokenURI(uint256 _tokenId) public view returns (string memory) {\n        return tokenURI(_tokenId);\n    }\n\n    /// @notice Set the URI where the token metadata is stored\n    /// @param tokenId id for the token\n    /// @param _tokenURI the token URI, which resolves to a JSON containing the token metadata\n    function setTokenURI(uint256 tokenId, string memory _tokenURI) public {\n        require(\n            _isApprovedOrOwner(_msgSender(), tokenId),\n            \"ERC721: transfer caller is not owner nor approved\"\n        );\n        _setTokenURI(tokenId, _tokenURI);\n    }\n\n    /// @dev The function that receives the verifiable random number and does something with it\n    /// @param _requestId id identifying the VRF request\n    /// @param _randomNumber random number generated by the Chainlink VRF\n    function fulfillRandomness(bytes32 _requestId, uint256 _randomNumber)\n        internal\n        override\n    {\n        uint256 id = ellipticals.length;\n        uint256 v1 = uint256(_getLatestPrice());\n        uint256 v2 = _getRandomNumber(_randomNumber, 1);\n        uint256 v3 = _getRandomNumber(_randomNumber, 2);\n        uint256 alpha = _getRandomNumber(_randomNumber, 3);\n        uint256 x = _getRandomNumber(_randomNumber, 4);\n        uint256 y = _getRandomNumber(_randomNumber, 5);\n        uint256 w = _getRandomNumber(_randomNumber, 6);\n        uint256 h = _getRandomNumber(_randomNumber, 7);\n\n        Elliptical memory elliptical = Elliptical(\n            requestToEllipticalName[_requestId],\n            requestToEllipticalDescription[_requestId],\n            v1,\n            v2,\n            v3,\n            alpha,\n            x,\n            y,\n            w,\n            h\n        );\n        address _sender = requestToSender[_requestId];\n        ellipticals.push(elliptical);\n        ellipticalToOwner[id] = _msgSender();\n        addressEllipticalCount[_sender]++;\n        _safeMint(_sender, id);\n    }\n\n    /// @notice Get the total number of ellipticals already minted in the contract\n    /// @return count of ellipticals\n    function getEllipticalsCount() public view returns (uint256) {\n        return ellipticals.length;\n    }\n\n    /// @notice Transfer a token from one address to another\n    /// @param _from the address to transfer from\n    /// @param _to the address to transfer to\n    /// @param _tokenId the token to transfer\n    function transferFrom(\n        address _from,\n        address _to,\n        uint256 _tokenId\n    ) public override {\n        require(\n            ellipticalToOwner[_tokenId] == _msgSender() ||\n                ellipticalApprovals[_tokenId] == _msgSender()\n        );\n        _transfer(_from, _to, _tokenId);\n    }\n\n    /// @notice Approve an address to transfer a token on the owner's behalf\n    /// @param _approved the address to approve\n    /// @param _tokenId the token to give approval for\n    function approve(address _approved, uint256 _tokenId)\n        public\n        override\n        requireIsOwnerOf(_tokenId)\n    {\n        ellipticalApprovals[_tokenId] = _approved;\n        emit Approval(_msgSender(), _approved, _tokenId);\n    }\n\n    /// @notice Return the token URI for a given token\n    /// @param _tokenId the token id\n    /// @return the token URI\n    function tokenURI(uint256 _tokenId)\n        public\n        view\n        override(ERC721, ERC721URIStorage)\n        returns (string memory)\n    {\n        return super.tokenURI(_tokenId);\n    }\n\n    /// @notice Transfer a token from one address to another\n    /// @dev This function is called by the public transferFrom function\n    /// @param _from the address to transfer from\n    /// @param _to the address to transfer to\n    /// @param _tokenId the token to transfer\n    function _transfer(\n        address _from,\n        address _to,\n        uint256 _tokenId\n    ) internal override {\n        addressEllipticalCount[_to]++;\n        addressEllipticalCount[_msgSender()]--;\n        ellipticalToOwner[_tokenId] = _to;\n        emit Transfer(_from, _to, _tokenId);\n    }\n\n    /// @notice Burn a token\n    /// @param _tokenId the id of the token to be burnt\n    function _burn(uint256 _tokenId)\n        internal\n        override(ERC721, ERC721URIStorage)\n    {\n        super._burn(_tokenId);\n    }\n\n    /// @notice Get the latest price feed for a coin\n    /// @dev Using Chainlink price feeds, the price feed address to use is provided during contract initialization\n    /// @return most recent round of price data\n    function _getLatestPrice() private view returns (int256) {\n        (, int256 price, , , ) = priceFeed.latestRoundData();\n        return price;\n    }\n\n    /// @notice Generate a random number in a given range\n    /// @dev Feed in the Chainlink VRF random number\n    /// @param _randomNumber random number\n    /// @param _nonce nonce or seed\n    /// @return a random number in a given range\n    function _getRandomNumber(uint256 _randomNumber, uint256 _nonce)\n        private\n        pure\n        returns (uint256)\n    {\n        return uint256(keccak256(abi.encode(_randomNumber, _nonce)));\n    }\n\n    /// @notice Trigger a cooldown period for each address after every mint\n    /// @dev keep in mind block.timestamp is susceptible to miner manipulation\n    /// @param _address the address to set a cooldown period for\n    function _triggerCooldown(address _address) private {\n        addressToReadyTime[_address] = uint32(block.timestamp + cooldownTime);\n    }\n\n    /// @notice Check whether an address is ready to mint\n    /// @dev Keep in mind block.timestamp is susceptible to miner manipulation\n    /// @param _address the address to check\n    /// @return true if the address is ready to mint; otherwise, return false\n    function _isReady(address _address) internal view returns (bool) {\n        return (addressToReadyTime[_address] == 0 ||\n            addressToReadyTime[_address] <= block.timestamp);\n    }\n}\n",
  "sourcePath": "/Users/houchia/consensys/blockchain-developer-bootcamp-final-project/contracts/contracts/EllipticalArtNFT.sol",
  "compiler": {
    "name": "solc",
    "version": "0.8.9+commit.e5eed63a.Emscripten.clang"
  },
  "schemaVersion": "3.4.1",
  "updatedAt": "2021-11-29T20:50:21.733Z",
  "devdoc": {
    "author": "Hou Chia",
    "events": {
      "RequestedElliptical(bytes32)": {
        "params": {
          "requestId": "request id"
        }
      }
    },
    "kind": "dev",
    "methods": {
      "approve(address,uint256)": {
        "params": {
          "_approved": "the address to approve",
          "_tokenId": "the token to give approval for"
        }
      },
      "balanceOf(address)": {
        "details": "See {IERC721-balanceOf}."
      },
      "getApproved(uint256)": {
        "details": "See {IERC721-getApproved}."
      },
      "getEllipticalsCount()": {
        "returns": {
          "_0": "count of ellipticals"
        }
      },
      "getTokenURI(uint256)": {
        "params": {
          "_tokenId": "id for the token"
        },
        "returns": {
          "_0": "the token URI, which resolves to a JSON containing the token metadata"
        }
      },
      "isApprovedForAll(address,address)": {
        "details": "See {IERC721-isApprovedForAll}."
      },
      "name()": {
        "details": "See {IERC721Metadata-name}."
      },
      "owner()": {
        "details": "Returns the address of the current owner."
      },
      "ownerOf(uint256)": {
        "details": "See {IERC721-ownerOf}."
      },
      "renounceOwnership()": {
        "details": "Leaves the contract without owner. It will not be possible to call `onlyOwner` functions anymore. Can only be called by the current owner. NOTE: Renouncing ownership will leave the contract without an owner, thereby removing any functionality that is only available to the owner."
      },
      "requestNewRandomElliptical(string,string)": {
        "details": "requestRandomness() makes a request to the Chainlink oracle for a verifiably random number",
        "params": {
          "_description": "a description for the elliptical",
          "_name": "a name for the elliptical"
        },
        "returns": {
          "_0": "request id associated with the VRF request"
        }
      },
      "safeTransferFrom(address,address,uint256)": {
        "details": "See {IERC721-safeTransferFrom}."
      },
      "safeTransferFrom(address,address,uint256,bytes)": {
        "details": "See {IERC721-safeTransferFrom}."
      },
      "setApprovalForAll(address,bool)": {
        "details": "See {IERC721-setApprovalForAll}."
      },
      "setTokenURI(uint256,string)": {
        "params": {
          "_tokenURI": "the token URI, which resolves to a JSON containing the token metadata",
          "tokenId": "id for the token"
        }
      },
      "supportsInterface(bytes4)": {
        "details": "See {IERC165-supportsInterface}."
      },
      "symbol()": {
        "details": "See {IERC721Metadata-symbol}."
      },
      "tokenURI(uint256)": {
        "params": {
          "_tokenId": "the token id"
        },
        "returns": {
          "_0": "the token URI"
        }
      },
      "transferFrom(address,address,uint256)": {
        "params": {
          "_from": "the address to transfer from",
          "_to": "the address to transfer to",
          "_tokenId": "the token to transfer"
        }
      },
      "transferOwnership(address)": {
        "details": "Transfers ownership of the contract to a new account (`newOwner`). Can only be called by the current owner."
      }
    },
    "stateVariables": {
      "LinkToken": {
        "details": "Used as an input to the Chainlink VRF, set during contract initialization"
      },
      "VRFCoordinator": {
        "details": "Used as an input to the Chainlink VRF, set during contract initialization"
      },
      "cooldownTime": {
        "details": "Used to ensure that no address can mint more than 1 elliptical within a day"
      },
      "fee": {
        "details": "Used as an input to the Chainlink VRF, set during contract initialization"
      },
      "keyHash": {
        "details": "public key used to generate randomness, set during contract initialization"
      },
      "maxPerAddress": {
        "details": "Used to ensure that no address can mint more than 2 ellipticals"
      },
      "maxSupply": {
        "details": "This value is set during contract initialization, and cannot be updated"
      }
    },
    "title": "Contract for creating tradeable, randomly generated, and rare elliptical art",
    "version": 1
  },
  "userdoc": {
    "events": {
      "RequestedElliptical(bytes32)": {
        "notice": "Emitted when a user requests a new elliptical"
      }
    },
    "kind": "user",
    "methods": {
      "LinkToken()": {
        "notice": "Chainlink token address at a given network"
      },
      "VRFCoordinator()": {
        "notice": "Chainlink VRFCoordinator address"
      },
      "approve(address,uint256)": {
        "notice": "Approve an address to transfer a token on the owner's behalf"
      },
      "getEllipticalsCount()": {
        "notice": "Get the total number of ellipticals already minted in the contract"
      },
      "getTokenURI(uint256)": {
        "notice": "Return the URI for a given token"
      },
      "requestNewRandomElliptical(string,string)": {
        "notice": "Request a new elliptical"
      },
      "setTokenURI(uint256,string)": {
        "notice": "Set the URI where the token metadata is stored"
      },
      "tokenURI(uint256)": {
        "notice": "Return the token URI for a given token"
      },
      "transferFrom(address,address,uint256)": {
        "notice": "Transfer a token from one address to another"
      }
    },
    "notice": "You can use this contract to generate tradeable, randomly generated, and rare elliptical art",
    "version": 1
  }
}