{
  "contractName": "EllipticalArtNFT",
  "abi": [
    {
      "inputs": [
        {
          "internalType": "address",
          "name": "_VRFCoordinator",
          "type": "address"
        },
        {
          "internalType": "address",
          "name": "_LinkToken",
          "type": "address"
        },
        {
          "internalType": "bytes32",
          "name": "_keyHash",
          "type": "bytes32"
        },
        {
          "internalType": "address",
          "name": "_priceFeed",
          "type": "address"
        },
        {
          "internalType": "uint8",
          "name": "_maxSupply",
          "type": "uint8"
        }
      ],
      "stateMutability": "nonpayable",
      "type": "constructor"
    },
    {
      "anonymous": false,
      "inputs": [
        {
          "indexed": true,
          "internalType": "address",
          "name": "owner",
          "type": "address"
        },
        {
          "indexed": true,
          "internalType": "address",
          "name": "approved",
          "type": "address"
        },
        {
          "indexed": true,
          "internalType": "uint256",
          "name": "tokenId",
          "type": "uint256"
        }
      ],
      "name": "Approval",
      "type": "event"
    },
    {
      "anonymous": false,
      "inputs": [
        {
          "indexed": true,
          "internalType": "address",
          "name": "owner",
          "type": "address"
        },
        {
          "indexed": true,
          "internalType": "address",
          "name": "operator",
          "type": "address"
        },
        {
          "indexed": false,
          "internalType": "bool",
          "name": "approved",
          "type": "bool"
        }
      ],
      "name": "ApprovalForAll",
      "type": "event"
    },
    {
      "anonymous": false,
      "inputs": [
        {
          "indexed": true,
          "internalType": "address",
          "name": "previousOwner",
          "type": "address"
        },
        {
          "indexed": true,
          "internalType": "address",
          "name": "newOwner",
          "type": "address"
        }
      ],
      "name": "OwnershipTransferred",
      "type": "event"
    },
    {
      "anonymous": false,
      "inputs": [
        {
          "indexed": true,
          "internalType": "bytes32",
          "name": "requestId",
          "type": "bytes32"
        }
      ],
      "name": "RequestedElliptical",
      "type": "event"
    },
    {
      "anonymous": false,
      "inputs": [
        {
          "indexed": true,
          "internalType": "address",
          "name": "from",
          "type": "address"
        },
        {
          "indexed": true,
          "internalType": "address",
          "name": "to",
          "type": "address"
        },
        {
          "indexed": true,
          "internalType": "uint256",
          "name": "tokenId",
          "type": "uint256"
        }
      ],
      "name": "Transfer",
      "type": "event"
    },
    {
      "inputs": [],
      "name": "LinkToken",
      "outputs": [
        {
          "internalType": "address",
          "name": "",
          "type": "address"
        }
      ],
      "stateMutability": "view",
      "type": "function",
      "constant": true
    },
    {
      "inputs": [],
      "name": "VRFCoordinator",
      "outputs": [
        {
          "internalType": "address",
          "name": "",
          "type": "address"
        }
      ],
      "stateMutability": "view",
      "type": "function",
      "constant": true
    },
    {
      "inputs": [
        {
          "internalType": "address",
          "name": "owner",
          "type": "address"
        }
      ],
      "name": "balanceOf",
      "outputs": [
        {
          "internalType": "uint256",
          "name": "",
          "type": "uint256"
        }
      ],
      "stateMutability": "view",
      "type": "function",
      "constant": true
    },
    {
      "inputs": [
        {
          "internalType": "uint256",
          "name": "",
          "type": "uint256"
        }
      ],
      "name": "ellipticalToOwner",
      "outputs": [
        {
          "internalType": "address",
          "name": "",
          "type": "address"
        }
      ],
      "stateMutability": "view",
      "type": "function",
      "constant": true
    },
    {
      "inputs": [
        {
          "internalType": "uint256",
          "name": "",
          "type": "uint256"
        }
      ],
      "name": "ellipticals",
      "outputs": [
        {
          "internalType": "string",
          "name": "name",
          "type": "string"
        },
        {
          "internalType": "uint256",
          "name": "v1",
          "type": "uint256"
        },
        {
          "internalType": "uint256",
          "name": "v2",
          "type": "uint256"
        },
        {
          "internalType": "uint256",
          "name": "v3",
          "type": "uint256"
        },
        {
          "internalType": "uint256",
          "name": "alpha",
          "type": "uint256"
        },
        {
          "internalType": "uint256",
          "name": "x",
          "type": "uint256"
        },
        {
          "internalType": "uint256",
          "name": "y",
          "type": "uint256"
        },
        {
          "internalType": "uint256",
          "name": "w",
          "type": "uint256"
        },
        {
          "internalType": "uint256",
          "name": "h",
          "type": "uint256"
        }
      ],
      "stateMutability": "view",
      "type": "function",
      "constant": true
    },
    {
      "inputs": [
        {
          "internalType": "uint256",
          "name": "tokenId",
          "type": "uint256"
        }
      ],
      "name": "getApproved",
      "outputs": [
        {
          "internalType": "address",
          "name": "",
          "type": "address"
        }
      ],
      "stateMutability": "view",
      "type": "function",
      "constant": true
    },
    {
      "inputs": [
        {
          "internalType": "address",
          "name": "owner",
          "type": "address"
        },
        {
          "internalType": "address",
          "name": "operator",
          "type": "address"
        }
      ],
      "name": "isApprovedForAll",
      "outputs": [
        {
          "internalType": "bool",
          "name": "",
          "type": "bool"
        }
      ],
      "stateMutability": "view",
      "type": "function",
      "constant": true
    },
    {
      "inputs": [],
      "name": "name",
      "outputs": [
        {
          "internalType": "string",
          "name": "",
          "type": "string"
        }
      ],
      "stateMutability": "view",
      "type": "function",
      "constant": true
    },
    {
      "inputs": [],
      "name": "owner",
      "outputs": [
        {
          "internalType": "address",
          "name": "",
          "type": "address"
        }
      ],
      "stateMutability": "view",
      "type": "function",
      "constant": true
    },
    {
      "inputs": [
        {
          "internalType": "uint256",
          "name": "tokenId",
          "type": "uint256"
        }
      ],
      "name": "ownerOf",
      "outputs": [
        {
          "internalType": "address",
          "name": "",
          "type": "address"
        }
      ],
      "stateMutability": "view",
      "type": "function",
      "constant": true
    },
    {
      "inputs": [
        {
          "internalType": "bytes32",
          "name": "requestId",
          "type": "bytes32"
        },
        {
          "internalType": "uint256",
          "name": "randomness",
          "type": "uint256"
        }
      ],
      "name": "rawFulfillRandomness",
      "outputs": [],
      "stateMutability": "nonpayable",
      "type": "function"
    },
    {
      "inputs": [],
      "name": "renounceOwnership",
      "outputs": [],
      "stateMutability": "nonpayable",
      "type": "function"
    },
    {
      "inputs": [
        {
          "internalType": "bytes32",
          "name": "",
          "type": "bytes32"
        }
      ],
      "name": "requestToEllipticalName",
      "outputs": [
        {
          "internalType": "string",
          "name": "",
          "type": "string"
        }
      ],
      "stateMutability": "view",
      "type": "function",
      "constant": true
    },
    {
      "inputs": [
        {
          "internalType": "bytes32",
          "name": "",
          "type": "bytes32"
        }
      ],
      "name": "requestToSender",
      "outputs": [
        {
          "internalType": "address",
          "name": "",
          "type": "address"
        }
      ],
      "stateMutability": "view",
      "type": "function",
      "constant": true
    },
    {
      "inputs": [
        {
          "internalType": "address",
          "name": "from",
          "type": "address"
        },
        {
          "internalType": "address",
          "name": "to",
          "type": "address"
        },
        {
          "internalType": "uint256",
          "name": "tokenId",
          "type": "uint256"
        }
      ],
      "name": "safeTransferFrom",
      "outputs": [],
      "stateMutability": "nonpayable",
      "type": "function"
    },
    {
      "inputs": [
        {
          "internalType": "address",
          "name": "from",
          "type": "address"
        },
        {
          "internalType": "address",
          "name": "to",
          "type": "address"
        },
        {
          "internalType": "uint256",
          "name": "tokenId",
          "type": "uint256"
        },
        {
          "internalType": "bytes",
          "name": "_data",
          "type": "bytes"
        }
      ],
      "name": "safeTransferFrom",
      "outputs": [],
      "stateMutability": "nonpayable",
      "type": "function"
    },
    {
      "inputs": [
        {
          "internalType": "address",
          "name": "operator",
          "type": "address"
        },
        {
          "internalType": "bool",
          "name": "approved",
          "type": "bool"
        }
      ],
      "name": "setApprovalForAll",
      "outputs": [],
      "stateMutability": "nonpayable",
      "type": "function"
    },
    {
      "inputs": [
        {
          "internalType": "bytes4",
          "name": "interfaceId",
          "type": "bytes4"
        }
      ],
      "name": "supportsInterface",
      "outputs": [
        {
          "internalType": "bool",
          "name": "",
          "type": "bool"
        }
      ],
      "stateMutability": "view",
      "type": "function",
      "constant": true
    },
    {
      "inputs": [],
      "name": "symbol",
      "outputs": [
        {
          "internalType": "string",
          "name": "",
          "type": "string"
        }
      ],
      "stateMutability": "view",
      "type": "function",
      "constant": true
    },
    {
      "inputs": [
        {
          "internalType": "address",
          "name": "newOwner",
          "type": "address"
        }
      ],
      "name": "transferOwnership",
      "outputs": [],
      "stateMutability": "nonpayable",
      "type": "function"
    },
    {
      "inputs": [
        {
          "internalType": "string",
          "name": "_name",
          "type": "string"
        }
      ],
      "name": "requestNewRandomElliptical",
      "outputs": [
        {
          "internalType": "bytes32",
          "name": "",
          "type": "bytes32"
        }
      ],
      "stateMutability": "nonpayable",
      "type": "function"
    },
    {
      "inputs": [
        {
          "internalType": "uint256",
          "name": "_tokenId",
          "type": "uint256"
        }
      ],
      "name": "getTokenURI",
      "outputs": [
        {
          "internalType": "string",
          "name": "",
          "type": "string"
        }
      ],
      "stateMutability": "view",
      "type": "function",
      "constant": true
    },
    {
      "inputs": [
        {
          "internalType": "uint256",
          "name": "tokenId",
          "type": "uint256"
        },
        {
          "internalType": "string",
          "name": "_tokenURI",
          "type": "string"
        }
      ],
      "name": "setTokenURI",
      "outputs": [],
      "stateMutability": "nonpayable",
      "type": "function"
    },
    {
      "inputs": [],
      "name": "getEllipticalsCount",
      "outputs": [
        {
          "internalType": "uint256",
          "name": "",
          "type": "uint256"
        }
      ],
      "stateMutability": "view",
      "type": "function",
      "constant": true
    },
    {
      "inputs": [
        {
          "internalType": "uint256",
          "name": "_tokenId",
          "type": "uint256"
        }
      ],
      "name": "getEllipticalDimensions",
      "outputs": [
        {
          "internalType": "uint256",
          "name": "",
          "type": "uint256"
        },
        {
          "internalType": "uint256",
          "name": "",
          "type": "uint256"
        },
        {
          "internalType": "uint256",
          "name": "",
          "type": "uint256"
        },
        {
          "internalType": "uint256",
          "name": "",
          "type": "uint256"
        },
        {
          "internalType": "uint256",
          "name": "",
          "type": "uint256"
        },
        {
          "internalType": "uint256",
          "name": "",
          "type": "uint256"
        },
        {
          "internalType": "uint256",
          "name": "",
          "type": "uint256"
        },
        {
          "internalType": "uint256",
          "name": "",
          "type": "uint256"
        }
      ],
      "stateMutability": "view",
      "type": "function",
      "constant": true
    },
    {
      "inputs": [
        {
          "internalType": "address",
          "name": "_from",
          "type": "address"
        },
        {
          "internalType": "address",
          "name": "_to",
          "type": "address"
        },
        {
          "internalType": "uint256",
          "name": "_tokenId",
          "type": "uint256"
        }
      ],
      "name": "transferFrom",
      "outputs": [],
      "stateMutability": "nonpayable",
      "type": "function"
    },
    {
      "inputs": [
        {
          "internalType": "address",
          "name": "_approved",
          "type": "address"
        },
        {
          "internalType": "uint256",
          "name": "_tokenId",
          "type": "uint256"
        }
      ],
      "name": "approve",
      "outputs": [],
      "stateMutability": "nonpayable",
      "type": "function"
    },
    {
      "inputs": [
        {
          "internalType": "uint256",
          "name": "_tokenId",
          "type": "uint256"
        }
      ],
      "name": "tokenURI",
      "outputs": [
        {
          "internalType": "string",
          "name": "",
          "type": "string"
        }
      ],
      "stateMutability": "view",
      "type": "function",
      "constant": true
    }
  ],
  "bytecode": "0x60c060405262015180600e556002600f60006101000a81548160ff021916908360ff1602179055503480156200003457600080fd5b5060405162004cc338038062004cc383398181016040528101906200005a9190620004e6565b84846040518060400160405280601081526020017f456c6c6970746963616c4172744e4654000000000000000000000000000000008152506040518060400160405280600281526020017f45410000000000000000000000000000000000000000000000000000000000008152508160009080519060200190620000e092919062000353565b508060019080519060200190620000f992919062000353565b5050508173ffffffffffffffffffffffffffffffffffffffff1660a08173ffffffffffffffffffffffffffffffffffffffff16815250508073ffffffffffffffffffffffffffffffffffffffff1660808173ffffffffffffffffffffffffffffffffffffffff16815250505050620001866200017a6200028560201b60201c565b6200028d60201b60201c565b84600c60006101000a81548173ffffffffffffffffffffffffffffffffffffffff021916908373ffffffffffffffffffffffffffffffffffffffff16021790555081600960006101000a81548173ffffffffffffffffffffffffffffffffffffffff021916908373ffffffffffffffffffffffffffffffffffffffff16021790555083600d60006101000a81548173ffffffffffffffffffffffffffffffffffffffff021916908373ffffffffffffffffffffffffffffffffffffffff16021790555082600a8190555067016345785d8a0000600b8190555080600f60016101000a81548160ff021916908360ff1602179055505050505050620005d3565b600033905090565b6000600860009054906101000a900473ffffffffffffffffffffffffffffffffffffffff16905081600860006101000a81548173ffffffffffffffffffffffffffffffffffffffff021916908373ffffffffffffffffffffffffffffffffffffffff1602179055508173ffffffffffffffffffffffffffffffffffffffff168173ffffffffffffffffffffffffffffffffffffffff167f8be0079c531659141344cd1fd0a4f28419497f9722a3daafe3b4186f6b6457e060405160405180910390a35050565b82805462000361906200059d565b90600052602060002090601f016020900481019282620003855760008555620003d1565b82601f10620003a057805160ff1916838001178555620003d1565b82800160010185558215620003d1579182015b82811115620003d0578251825591602001919060010190620003b3565b5b509050620003e09190620003e4565b5090565b5b80821115620003ff576000816000905550600101620003e5565b5090565b600080fd5b600073ffffffffffffffffffffffffffffffffffffffff82169050919050565b6000620004358262000408565b9050919050565b620004478162000428565b81146200045357600080fd5b50565b60008151905062000467816200043c565b92915050565b6000819050919050565b62000482816200046d565b81146200048e57600080fd5b50565b600081519050620004a28162000477565b92915050565b600060ff82169050919050565b620004c081620004a8565b8114620004cc57600080fd5b50565b600081519050620004e081620004b5565b92915050565b600080600080600060a0868803121562000505576200050462000403565b5b6000620005158882890162000456565b9550506020620005288882890162000456565b94505060406200053b8882890162000491565b93505060606200054e8882890162000456565b92505060806200056188828901620004cf565b9150509295509295909350565b7f4e487b7100000000000000000000000000000000000000000000000000000000600052602260045260246000fd5b60006002820490506001821680620005b657607f821691505b60208210811415620005cd57620005cc6200056e565b5b50919050565b60805160a0516146bc6200060760003960008181610f9801526122ca01526000818161153f015261228e01526146bc6000f3fe608060405234801561001057600080fd5b50600436106101c45760003560e01c806370a08231116100f9578063b54f40bc11610097578063e985e9c511610071578063e985e9c51461054c578063ebebf72d1461057c578063f2fde38b1461059a578063ffd76f41146105b6576101c4565b8063b54f40bc146104c8578063b88d4fde14610500578063c87b56dd1461051c576101c4565b806392eb8b13116100d357806392eb8b131461044257806394985ddd1461047257806395d89b411461048e578063a22cb465146104ac576101c4565b806370a08231146103ea578063715018a61461041a5780638da5cb5b14610424576101c4565b806333b6086311610166578063431df2a111610140578063431df2a1146103355780634f8e2fdf146103655780636352211e1461038357806367be5c30146103b3576101c4565b806333b60863146102cb5780633bb3a24d146102e957806342842e0e14610319576101c4565b8063095ea7b3116101a2578063095ea7b314610247578063162094c41461026357806323b872dd1461027f578063274ac0c31461029b576101c4565b806301ffc9a7146101c957806306fdde03146101f9578063081812fc14610217575b600080fd5b6101e360048036038101906101de9190612cdf565b6105e6565b6040516101f09190612d27565b60405180910390f35b6102016106c8565b60405161020e9190612ddb565b60405180910390f35b610231600480360381019061022c9190612e33565b61075a565b60405161023e9190612ea1565b60405180910390f35b610261600480360381019061025c9190612ee8565b6107df565b005b61027d6004803603810190610278919061305d565b610941565b005b610299600480360381019061029491906130b9565b61099f565b005b6102b560048036038101906102b09190613142565b610a91565b6040516102c29190612ea1565b60405180910390f35b6102d3610ac4565b6040516102e09190612ea1565b60405180910390f35b61030360048036038101906102fe9190612e33565b610aea565b6040516103109190612ddb565b60405180910390f35b610333600480360381019061032e91906130b9565b610afc565b005b61034f600480360381019061034a9190613142565b610b1c565b60405161035c9190612ddb565b60405180910390f35b61036d610bbc565b60405161037a9190612ea1565b60405180910390f35b61039d60048036038101906103989190612e33565b610be2565b6040516103aa9190612ea1565b60405180910390f35b6103cd60048036038101906103c89190612e33565b610c94565b6040516103e198979695949392919061317e565b60405180910390f35b61040460048036038101906103ff91906131fc565b610df9565b6040516104119190613229565b60405180910390f35b610422610eb1565b005b61042c610f39565b6040516104399190612ea1565b60405180910390f35b61045c60048036038101906104579190612e33565b610f63565b6040516104699190612ea1565b60405180910390f35b61048c60048036038101906104879190613244565b610f96565b005b610496611032565b6040516104a39190612ddb565b60405180910390f35b6104c660048036038101906104c191906132b0565b6110c4565b005b6104e260048036038101906104dd9190612e33565b611245565b6040516104f7999897969594939291906132f0565b60405180910390f35b61051a60048036038101906105159190613425565b61132b565b005b61053660048036038101906105319190612e33565b61138d565b6040516105439190612ddb565b60405180910390f35b610566600480360381019061056191906134a8565b61139f565b6040516105739190612d27565b60405180910390f35b610584611433565b6040516105919190613229565b60405180910390f35b6105b460048036038101906105af91906131fc565b611440565b005b6105d060048036038101906105cb91906134e8565b611538565b6040516105dd9190613540565b60405180910390f35b60007f80ac58cd000000000000000000000000000000000000000000000000000000007bffffffffffffffffffffffffffffffffffffffffffffffffffffffff1916827bffffffffffffffffffffffffffffffffffffffffffffffffffffffff191614806106b157507f5b5e139f000000000000000000000000000000000000000000000000000000007bffffffffffffffffffffffffffffffffffffffffffffffffffffffff1916827bffffffffffffffffffffffffffffffffffffffffffffffffffffffff1916145b806106c157506106c082611844565b5b9050919050565b6060600080546106d79061358a565b80601f01602080910402602001604051908101604052809291908181526020018280546107039061358a565b80156107505780601f1061072557610100808354040283529160200191610750565b820191906000526020600020905b81548152906001019060200180831161073357829003601f168201915b5050505050905090565b6000610765826118ae565b6107a4576040517f08c379a000000000000000000000000000000000000000000000000000000000815260040161079b9061362e565b60405180910390fd5b6004600083815260200190815260200160002060009054906101000a900473ffffffffffffffffffffffffffffffffffffffff169050919050565b806107e861191a565b73ffffffffffffffffffffffffffffffffffffffff166017600083815260200190815260200160002060009054906101000a900473ffffffffffffffffffffffffffffffffffffffff1673ffffffffffffffffffffffffffffffffffffffff1614610888576040517f08c379a000000000000000000000000000000000000000000000000000000000815260040161087f906136c0565b60405180910390fd5b826016600084815260200190815260200160002060006101000a81548173ffffffffffffffffffffffffffffffffffffffff021916908373ffffffffffffffffffffffffffffffffffffffff160217905550818373ffffffffffffffffffffffffffffffffffffffff166108fa61191a565b73ffffffffffffffffffffffffffffffffffffffff167f8c5be1e5ebec7d5bd14f71427d1e84f3dd0314c0f7b2291e5b200ac8c7c3b92560405160405180910390a4505050565b61095261094c61191a565b83611922565b610991576040517f08c379a000000000000000000000000000000000000000000000000000000000815260040161098890613752565b60405180910390fd5b61099b8282611a00565b5050565b6109a761191a565b73ffffffffffffffffffffffffffffffffffffffff166017600083815260200190815260200160002060009054906101000a900473ffffffffffffffffffffffffffffffffffffffff1673ffffffffffffffffffffffffffffffffffffffff161480610a785750610a1661191a565b73ffffffffffffffffffffffffffffffffffffffff166016600083815260200190815260200160002060009054906101000a900473ffffffffffffffffffffffffffffffffffffffff1673ffffffffffffffffffffffffffffffffffffffff16145b610a8157600080fd5b610a8c838383611a74565b505050565b60126020528060005260406000206000915054906101000a900473ffffffffffffffffffffffffffffffffffffffff1681565b600c60009054906101000a900473ffffffffffffffffffffffffffffffffffffffff1681565b6060610af58261138d565b9050919050565b610b178383836040518060200160405280600081525061132b565b505050565b60116020528060005260406000206000915090508054610b3b9061358a565b80601f0160208091040260200160405190810160405280929190818152602001828054610b679061358a565b8015610bb45780601f10610b8957610100808354040283529160200191610bb4565b820191906000526020600020905b815481529060010190602001808311610b9757829003601f168201915b505050505081565b600d60009054906101000a900473ffffffffffffffffffffffffffffffffffffffff1681565b6000806002600084815260200190815260200160002060009054906101000a900473ffffffffffffffffffffffffffffffffffffffff169050600073ffffffffffffffffffffffffffffffffffffffff168173ffffffffffffffffffffffffffffffffffffffff161415610c8b576040517f08c379a0000000000000000000000000000000000000000000000000000000008152600401610c82906137e4565b60405180910390fd5b80915050919050565b600080600080600080600080600060108a81548110610cb657610cb5613804565b5b906000526020600020906009020160405180610120016040529081600082018054610ce09061358a565b80601f0160208091040260200160405190810160405280929190818152602001828054610d0c9061358a565b8015610d595780601f10610d2e57610100808354040283529160200191610d59565b820191906000526020600020905b815481529060010190602001808311610d3c57829003601f168201915b5050505050815260200160018201548152602001600282015481526020016003820154815260200160048201548152602001600582015481526020016006820154815260200160078201548152602001600882015481525050905080602001518160400151826060015183608001518460a001518560c001518660e001518761010001519850985098509850985098509850985050919395975091939597565b60008073ffffffffffffffffffffffffffffffffffffffff168273ffffffffffffffffffffffffffffffffffffffff161415610e6a576040517f08c379a0000000000000000000000000000000000000000000000000000000008152600401610e61906138a5565b60405180910390fd5b600360008373ffffffffffffffffffffffffffffffffffffffff1673ffffffffffffffffffffffffffffffffffffffff168152602001908152602001600020549050919050565b610eb961191a565b73ffffffffffffffffffffffffffffffffffffffff16610ed7610f39565b73ffffffffffffffffffffffffffffffffffffffff1614610f2d576040517f08c379a0000000000000000000000000000000000000000000000000000000008152600401610f2490613911565b60405180910390fd5b610f376000611c17565b565b6000600860009054906101000a900473ffffffffffffffffffffffffffffffffffffffff16905090565b60176020528060005260406000206000915054906101000a900473ffffffffffffffffffffffffffffffffffffffff1681565b7f000000000000000000000000000000000000000000000000000000000000000073ffffffffffffffffffffffffffffffffffffffff163373ffffffffffffffffffffffffffffffffffffffff1614611024576040517f08c379a000000000000000000000000000000000000000000000000000000000815260040161101b9061397d565b60405180910390fd5b61102e8282611cdd565b5050565b6060600180546110419061358a565b80601f016020809104026020016040519081016040528092919081815260200182805461106d9061358a565b80156110ba5780601f1061108f576101008083540402835291602001916110ba565b820191906000526020600020905b81548152906001019060200180831161109d57829003601f168201915b5050505050905090565b6110cc61191a565b73ffffffffffffffffffffffffffffffffffffffff168273ffffffffffffffffffffffffffffffffffffffff16141561113a576040517f08c379a0000000000000000000000000000000000000000000000000000000008152600401611131906139e9565b60405180910390fd5b806005600061114761191a565b73ffffffffffffffffffffffffffffffffffffffff1673ffffffffffffffffffffffffffffffffffffffff16815260200190815260200160002060008473ffffffffffffffffffffffffffffffffffffffff1673ffffffffffffffffffffffffffffffffffffffff16815260200190815260200160002060006101000a81548160ff0219169083151502179055508173ffffffffffffffffffffffffffffffffffffffff166111f461191a565b73ffffffffffffffffffffffffffffffffffffffff167f17307eab39ab6107e8899845ad3d59bd9653f200f220920489ca2b5937696c31836040516112399190612d27565b60405180910390a35050565b6010818154811061125557600080fd5b90600052602060002090600902016000915090508060000180546112789061358a565b80601f01602080910402602001604051908101604052809291908181526020018280546112a49061358a565b80156112f15780601f106112c6576101008083540402835291602001916112f1565b820191906000526020600020905b8154815290600101906020018083116112d457829003601f168201915b5050505050908060010154908060020154908060030154908060040154908060050154908060060154908060070154908060080154905089565b61133c61133661191a565b83611922565b61137b576040517f08c379a000000000000000000000000000000000000000000000000000000000815260040161137290613752565b60405180910390fd5b6113878484848461201b565b50505050565b606061139882612077565b9050919050565b6000600560008473ffffffffffffffffffffffffffffffffffffffff1673ffffffffffffffffffffffffffffffffffffffff16815260200190815260200160002060008373ffffffffffffffffffffffffffffffffffffffff1673ffffffffffffffffffffffffffffffffffffffff16815260200190815260200160002060009054906101000a900460ff16905092915050565b6000601080549050905090565b61144861191a565b73ffffffffffffffffffffffffffffffffffffffff16611466610f39565b73ffffffffffffffffffffffffffffffffffffffff16146114bc576040517f08c379a00000000000000000000000000000000000000000000000000000000081526004016114b390613911565b60405180910390fd5b600073ffffffffffffffffffffffffffffffffffffffff168173ffffffffffffffffffffffffffffffffffffffff16141561152c576040517f08c379a000000000000000000000000000000000000000000000000000000000815260040161152390613a7b565b60405180910390fd5b61153581611c17565b50565b6000600b547f000000000000000000000000000000000000000000000000000000000000000073ffffffffffffffffffffffffffffffffffffffff166370a08231306040518263ffffffff1660e01b81526004016115969190612ea1565b60206040518083038186803b1580156115ae57600080fd5b505afa1580156115c2573d6000803e3d6000fd5b505050506040513d601f19601f820116820180604052508101906115e69190613ab0565b1015611627576040517f08c379a000000000000000000000000000000000000000000000000000000000815260040161161e90613b29565b60405180910390fd5b600f60019054906101000a900460ff1660ff16611642611433565b14611682576040517f08c379a000000000000000000000000000000000000000000000000000000000815260040161167990613bbb565b60405180910390fd5b600f60009054906101000a900460ff1660ff16601560006116a161191a565b73ffffffffffffffffffffffffffffffffffffffff1673ffffffffffffffffffffffffffffffffffffffff16815260200190815260200160002060009054906101000a900460ff1660ff161061172c576040517f08c379a000000000000000000000000000000000000000000000000000000000815260040161172390613c4d565b60405180910390fd5b61173c61173761191a565b6121c9565b61177b576040517f08c379a000000000000000000000000000000000000000000000000000000000815260040161177290613d05565b60405180910390fd5b600061178b600a54600b5461228a565b9050826011600083815260200190815260200160002090805190602001906117b4929190612bd0565b506117bd61191a565b6012600083815260200190815260200160002060006101000a81548173ffffffffffffffffffffffffffffffffffffffff021916908373ffffffffffffffffffffffffffffffffffffffff160217905550807f9bdd58ca7efbbe7568872b890c7258ba3441e8b99fa6dfd476f1098bdf83a99260405160405180910390a280915050919050565b60007f01ffc9a7000000000000000000000000000000000000000000000000000000007bffffffffffffffffffffffffffffffffffffffffffffffffffffffff1916827bffffffffffffffffffffffffffffffffffffffffffffffffffffffff1916149050919050565b60008073ffffffffffffffffffffffffffffffffffffffff166002600084815260200190815260200160002060009054906101000a900473ffffffffffffffffffffffffffffffffffffffff1673ffffffffffffffffffffffffffffffffffffffff1614159050919050565b600033905090565b600061192d826118ae565b61196c576040517f08c379a000000000000000000000000000000000000000000000000000000000815260040161196390613d97565b60405180910390fd5b600061197783610be2565b90508073ffffffffffffffffffffffffffffffffffffffff168473ffffffffffffffffffffffffffffffffffffffff1614806119e657508373ffffffffffffffffffffffffffffffffffffffff166119ce8461075a565b73ffffffffffffffffffffffffffffffffffffffff16145b806119f757506119f6818561139f565b5b91505092915050565b611a09826118ae565b611a48576040517f08c379a0000000000000000000000000000000000000000000000000000000008152600401611a3f90613e29565b60405180910390fd5b80600660008481526020019081526020016000209080519060200190611a6f929190612bd0565b505050565b601560008373ffffffffffffffffffffffffffffffffffffffff1673ffffffffffffffffffffffffffffffffffffffff168152602001908152602001600020600081819054906101000a900460ff1680929190611ad090613e85565b91906101000a81548160ff021916908360ff1602179055505060156000611af561191a565b73ffffffffffffffffffffffffffffffffffffffff1673ffffffffffffffffffffffffffffffffffffffff168152602001908152602001600020600081819054906101000a900460ff1680929190611b4c90613eaf565b91906101000a81548160ff021916908360ff16021790555050816017600083815260200190815260200160002060006101000a81548173ffffffffffffffffffffffffffffffffffffffff021916908373ffffffffffffffffffffffffffffffffffffffff160217905550808273ffffffffffffffffffffffffffffffffffffffff168473ffffffffffffffffffffffffffffffffffffffff167fddf252ad1be2c89b69c2b068fc378daa952ba7f163c4a11628f55a4df523b3ef60405160405180910390a4505050565b6000600860009054906101000a900473ffffffffffffffffffffffffffffffffffffffff16905081600860006101000a81548173ffffffffffffffffffffffffffffffffffffffff021916908373ffffffffffffffffffffffffffffffffffffffff1602179055508173ffffffffffffffffffffffffffffffffffffffff168173ffffffffffffffffffffffffffffffffffffffff167f8be0079c531659141344cd1fd0a4f28419497f9722a3daafe3b4186f6b6457e060405160405180910390a35050565b60006010805490509050600060ff611cf36123ec565b611cfd9190613f08565b90506000611d0e84600160ff61249c565b90506000611d1f85600260ff61249c565b90506000611d3086600360ff61249c565b90506000611d428760046101f461249c565b90506000611d548860056101f461249c565b90506000611d65896006606461249c565b90506000611d768a6007606461249c565b90506000604051806101200160405280601160008f81526020019081526020016000208054611da49061358a565b80601f0160208091040260200160405190810160405280929190818152602001828054611dd09061358a565b8015611e1d5780601f10611df257610100808354040283529160200191611e1d565b820191906000526020600020905b815481529060010190602001808311611e0057829003601f168201915b505050505081526020018a81526020018981526020018881526020018781526020018681526020018581526020018481526020018381525090506000601260008e815260200190815260200160002060009054906101000a900473ffffffffffffffffffffffffffffffffffffffff16905060108290806001815401808255809150506001900390600052602060002090600902016000909190919091506000820151816000019080519060200190611ed7929190612bd0565b506020820151816001015560408201518160020155606082015181600301556080820151816004015560a0820151816005015560c0820151816006015560e0820151816007015561010082015181600801555050611f3361191a565b601760008d815260200190815260200160002060006101000a81548173ffffffffffffffffffffffffffffffffffffffff021916908373ffffffffffffffffffffffffffffffffffffffff160217905550601560008273ffffffffffffffffffffffffffffffffffffffff1673ffffffffffffffffffffffffffffffffffffffff168152602001908152602001600020600081819054906101000a900460ff1680929190611fe090613e85565b91906101000a81548160ff021916908360ff16021790555050612002816124de565b61200c818c61254c565b50505050505050505050505050565b612026848484611a74565b6120328484848461256a565b612071576040517f08c379a000000000000000000000000000000000000000000000000000000000815260040161206890613fab565b60405180910390fd5b50505050565b6060612082826118ae565b6120c1576040517f08c379a00000000000000000000000000000000000000000000000000000000081526004016120b89061403d565b60405180910390fd5b60006006600084815260200190815260200160002080546120e19061358a565b80601f016020809104026020016040519081016040528092919081815260200182805461210d9061358a565b801561215a5780601f1061212f5761010080835404028352916020019161215a565b820191906000526020600020905b81548152906001019060200180831161213d57829003601f168201915b50505050509050600061216b612701565b90506000815114156121815781925050506121c4565b6000825111156121b657808260405160200161219e929190614099565b604051602081830303815290604052925050506121c4565b6121bf84612718565b925050505b919050565b600080601460008473ffffffffffffffffffffffffffffffffffffffff1673ffffffffffffffffffffffffffffffffffffffff16815260200190815260200160002060009054906101000a900463ffffffff1663ffffffff161480612283575042601460008473ffffffffffffffffffffffffffffffffffffffff1673ffffffffffffffffffffffffffffffffffffffff16815260200190815260200160002060009054906101000a900463ffffffff1663ffffffff1611155b9050919050565b60007f000000000000000000000000000000000000000000000000000000000000000073ffffffffffffffffffffffffffffffffffffffff16634000aea07f0000000000000000000000000000000000000000000000000000000000000000848660006040516020016122fe9291906140bd565b6040516020818303038152906040526040518463ffffffff1660e01b815260040161232b9392919061413b565b602060405180830381600087803b15801561234557600080fd5b505af1158015612359573d6000803e3d6000fd5b505050506040513d601f19601f8201168201806040525081019061237d919061418e565b5060006123a08460003060076000898152602001908152602001600020546127bf565b9050600160076000868152602001908152602001600020546123c291906141bb565b60076000868152602001908152602001600020819055506123e384826127fb565b91505092915050565b600080600960009054906101000a900473ffffffffffffffffffffffffffffffffffffffff1673ffffffffffffffffffffffffffffffffffffffff1663feaf968c6040518163ffffffff1660e01b815260040160a06040518083038186803b15801561245757600080fd5b505afa15801561246b573d6000803e3d6000fd5b505050506040513d601f19601f8201168201806040525081019061248f9190614289565b5050509150508091505090565b60008184846040516020016124b2929190614304565b6040516020818303038152906040528051906020012060001c6124d59190613f08565b90509392505050565b600e54426124ec91906141bb565b601460008373ffffffffffffffffffffffffffffffffffffffff1673ffffffffffffffffffffffffffffffffffffffff16815260200190815260200160002060006101000a81548163ffffffff021916908363ffffffff16021790555050565b61256682826040518060200160405280600081525061282e565b5050565b600061258b8473ffffffffffffffffffffffffffffffffffffffff16612889565b156126f4578373ffffffffffffffffffffffffffffffffffffffff1663150b7a026125b461191a565b8786866040518563ffffffff1660e01b81526004016125d6949392919061432d565b602060405180830381600087803b1580156125f057600080fd5b505af192505050801561262157506040513d601f19601f8201168201806040525081019061261e919061438e565b60015b6126a4573d8060008114612651576040519150601f19603f3d011682016040523d82523d6000602084013e612656565b606091505b5060008151141561269c576040517f08c379a000000000000000000000000000000000000000000000000000000000815260040161269390613fab565b60405180910390fd5b805181602001fd5b63150b7a0260e01b7bffffffffffffffffffffffffffffffffffffffffffffffffffffffff1916817bffffffffffffffffffffffffffffffffffffffffffffffffffffffff1916149150506126f9565b600190505b949350505050565b606060405180602001604052806000815250905090565b6060612723826118ae565b612762576040517f08c379a00000000000000000000000000000000000000000000000000000000081526004016127599061442d565b60405180910390fd5b600061276c612701565b9050600081511161278c57604051806020016040528060008152506127b7565b806127968461289c565b6040516020016127a7929190614099565b6040516020818303038152906040525b915050919050565b6000848484846040516020016127d8949392919061444d565b6040516020818303038152906040528051906020012060001c9050949350505050565b600082826040516020016128109291906144d4565b60405160208183030381529060405280519060200120905092915050565b61283883836129fd565b612845600084848461256a565b612884576040517f08c379a000000000000000000000000000000000000000000000000000000000815260040161287b90613fab565b60405180910390fd5b505050565b600080823b905060008111915050919050565b606060008214156128e4576040518060400160405280600181526020017f300000000000000000000000000000000000000000000000000000000000000081525090506129f8565b600082905060005b600082146129165780806128ff90614500565b915050600a8261290f9190614549565b91506128ec565b60008167ffffffffffffffff81111561293257612931612f32565b5b6040519080825280601f01601f1916602001820160405280156129645781602001600182028036833780820191505090505b5090505b600085146129f15760018261297d919061457a565b9150600a8561298c9190613f08565b603061299891906141bb565b60f81b8183815181106129ae576129ad613804565b5b60200101907effffffffffffffffffffffffffffffffffffffffffffffffffffffffffffff1916908160001a905350600a856129ea9190614549565b9450612968565b8093505050505b919050565b600073ffffffffffffffffffffffffffffffffffffffff168273ffffffffffffffffffffffffffffffffffffffff161415612a6d576040517f08c379a0000000000000000000000000000000000000000000000000000000008152600401612a64906145fa565b60405180910390fd5b612a76816118ae565b15612ab6576040517f08c379a0000000000000000000000000000000000000000000000000000000008152600401612aad90614666565b60405180910390fd5b612ac260008383612bcb565b6001600360008473ffffffffffffffffffffffffffffffffffffffff1673ffffffffffffffffffffffffffffffffffffffff1681526020019081526020016000206000828254612b1291906141bb565b92505081905550816002600083815260200190815260200160002060006101000a81548173ffffffffffffffffffffffffffffffffffffffff021916908373ffffffffffffffffffffffffffffffffffffffff160217905550808273ffffffffffffffffffffffffffffffffffffffff16600073ffffffffffffffffffffffffffffffffffffffff167fddf252ad1be2c89b69c2b068fc378daa952ba7f163c4a11628f55a4df523b3ef60405160405180910390a45050565b505050565b828054612bdc9061358a565b90600052602060002090601f016020900481019282612bfe5760008555612c45565b82601f10612c1757805160ff1916838001178555612c45565b82800160010185558215612c45579182015b82811115612c44578251825591602001919060010190612c29565b5b509050612c529190612c56565b5090565b5b80821115612c6f576000816000905550600101612c57565b5090565b6000604051905090565b600080fd5b600080fd5b60007fffffffff0000000000000000000000000000000000000000000000000000000082169050919050565b612cbc81612c87565b8114612cc757600080fd5b50565b600081359050612cd981612cb3565b92915050565b600060208284031215612cf557612cf4612c7d565b5b6000612d0384828501612cca565b91505092915050565b60008115159050919050565b612d2181612d0c565b82525050565b6000602082019050612d3c6000830184612d18565b92915050565b600081519050919050565b600082825260208201905092915050565b60005b83811015612d7c578082015181840152602081019050612d61565b83811115612d8b576000848401525b50505050565b6000601f19601f8301169050919050565b6000612dad82612d42565b612db78185612d4d565b9350612dc7818560208601612d5e565b612dd081612d91565b840191505092915050565b60006020820190508181036000830152612df58184612da2565b905092915050565b6000819050919050565b612e1081612dfd565b8114612e1b57600080fd5b50565b600081359050612e2d81612e07565b92915050565b600060208284031215612e4957612e48612c7d565b5b6000612e5784828501612e1e565b91505092915050565b600073ffffffffffffffffffffffffffffffffffffffff82169050919050565b6000612e8b82612e60565b9050919050565b612e9b81612e80565b82525050565b6000602082019050612eb66000830184612e92565b92915050565b612ec581612e80565b8114612ed057600080fd5b50565b600081359050612ee281612ebc565b92915050565b60008060408385031215612eff57612efe612c7d565b5b6000612f0d85828601612ed3565b9250506020612f1e85828601612e1e565b9150509250929050565b600080fd5b600080fd5b7f4e487b7100000000000000000000000000000000000000000000000000000000600052604160045260246000fd5b612f6a82612d91565b810181811067ffffffffffffffff82111715612f8957612f88612f32565b5b80604052505050565b6000612f9c612c73565b9050612fa88282612f61565b919050565b600067ffffffffffffffff821115612fc857612fc7612f32565b5b612fd182612d91565b9050602081019050919050565b82818337600083830152505050565b6000613000612ffb84612fad565b612f92565b90508281526020810184848401111561301c5761301b612f2d565b5b613027848285612fde565b509392505050565b600082601f83011261304457613043612f28565b5b8135613054848260208601612fed565b91505092915050565b6000806040838503121561307457613073612c7d565b5b600061308285828601612e1e565b925050602083013567ffffffffffffffff8111156130a3576130a2612c82565b5b6130af8582860161302f565b9150509250929050565b6000806000606084860312156130d2576130d1612c7d565b5b60006130e086828701612ed3565b93505060206130f186828701612ed3565b925050604061310286828701612e1e565b9150509250925092565b6000819050919050565b61311f8161310c565b811461312a57600080fd5b50565b60008135905061313c81613116565b92915050565b60006020828403121561315857613157612c7d565b5b60006131668482850161312d565b91505092915050565b61317881612dfd565b82525050565b600061010082019050613194600083018b61316f565b6131a1602083018a61316f565b6131ae604083018961316f565b6131bb606083018861316f565b6131c8608083018761316f565b6131d560a083018661316f565b6131e260c083018561316f565b6131ef60e083018461316f565b9998505050505050505050565b60006020828403121561321257613211612c7d565b5b600061322084828501612ed3565b91505092915050565b600060208201905061323e600083018461316f565b92915050565b6000806040838503121561325b5761325a612c7d565b5b60006132698582860161312d565b925050602061327a85828601612e1e565b9150509250929050565b61328d81612d0c565b811461329857600080fd5b50565b6000813590506132aa81613284565b92915050565b600080604083850312156132c7576132c6612c7d565b5b60006132d585828601612ed3565b92505060206132e68582860161329b565b9150509250929050565b600061012082019050818103600083015261330b818c612da2565b905061331a602083018b61316f565b613327604083018a61316f565b613334606083018961316f565b613341608083018861316f565b61334e60a083018761316f565b61335b60c083018661316f565b61336860e083018561316f565b61337661010083018461316f565b9a9950505050505050505050565b600067ffffffffffffffff82111561339f5761339e612f32565b5b6133a882612d91565b9050602081019050919050565b60006133c86133c384613384565b612f92565b9050828152602081018484840111156133e4576133e3612f2d565b5b6133ef848285612fde565b509392505050565b600082601f83011261340c5761340b612f28565b5b813561341c8482602086016133b5565b91505092915050565b6000806000806080858703121561343f5761343e612c7d565b5b600061344d87828801612ed3565b945050602061345e87828801612ed3565b935050604061346f87828801612e1e565b925050606085013567ffffffffffffffff8111156134905761348f612c82565b5b61349c878288016133f7565b91505092959194509250565b600080604083850312156134bf576134be612c7d565b5b60006134cd85828601612ed3565b92505060206134de85828601612ed3565b9150509250929050565b6000602082840312156134fe576134fd612c7d565b5b600082013567ffffffffffffffff81111561351c5761351b612c82565b5b6135288482850161302f565b91505092915050565b61353a8161310c565b82525050565b60006020820190506135556000830184613531565b92915050565b7f4e487b7100000000000000000000000000000000000000000000000000000000600052602260045260246000fd5b600060028204905060018216806135a257607f821691505b602082108114156135b6576135b561355b565b5b50919050565b7f4552433732313a20617070726f76656420717565727920666f72206e6f6e657860008201527f697374656e7420746f6b656e0000000000000000000000000000000000000000602082015250565b6000613618602c83612d4d565b9150613623826135bc565b604082019050919050565b600060208201905081810360008301526136478161360b565b9050919050565b7f4f6e6c7920746865206f776e65722063616e20617070726f7665206120746f6b60008201527f656e207472616e73666572210000000000000000000000000000000000000000602082015250565b60006136aa602c83612d4d565b91506136b58261364e565b604082019050919050565b600060208201905081810360008301526136d98161369d565b9050919050565b7f4552433732313a207472616e736665722063616c6c6572206973206e6f74206f60008201527f776e6572206e6f7220617070726f766564000000000000000000000000000000602082015250565b600061373c603183612d4d565b9150613747826136e0565b604082019050919050565b6000602082019050818103600083015261376b8161372f565b9050919050565b7f4552433732313a206f776e657220717565727920666f72206e6f6e657869737460008201527f656e7420746f6b656e0000000000000000000000000000000000000000000000602082015250565b60006137ce602983612d4d565b91506137d982613772565b604082019050919050565b600060208201905081810360008301526137fd816137c1565b9050919050565b7f4e487b7100000000000000000000000000000000000000000000000000000000600052603260045260246000fd5b7f4552433732313a2062616c616e636520717565727920666f7220746865207a6560008201527f726f206164647265737300000000000000000000000000000000000000000000602082015250565b600061388f602a83612d4d565b915061389a82613833565b604082019050919050565b600060208201905081810360008301526138be81613882565b9050919050565b7f4f776e61626c653a2063616c6c6572206973206e6f7420746865206f776e6572600082015250565b60006138fb602083612d4d565b9150613906826138c5565b602082019050919050565b6000602082019050818103600083015261392a816138ee565b9050919050565b7f4f6e6c7920565246436f6f7264696e61746f722063616e2066756c66696c6c00600082015250565b6000613967601f83612d4d565b915061397282613931565b602082019050919050565b600060208201905081810360008301526139968161395a565b9050919050565b7f4552433732313a20617070726f766520746f2063616c6c657200000000000000600082015250565b60006139d3601983612d4d565b91506139de8261399d565b602082019050919050565b60006020820190508181036000830152613a02816139c6565b9050919050565b7f4f776e61626c653a206e6577206f776e657220697320746865207a65726f206160008201527f6464726573730000000000000000000000000000000000000000000000000000602082015250565b6000613a65602683612d4d565b9150613a7082613a09565b604082019050919050565b60006020820190508181036000830152613a9481613a58565b9050919050565b600081519050613aaa81612e07565b92915050565b600060208284031215613ac657613ac5612c7d565b5b6000613ad484828501613a9b565b91505092915050565b7f506c656173652066696c6c20636f6e74726163742077697468204c494e4b0000600082015250565b6000613b13601e83612d4d565b9150613b1e82613add565b602082019050919050565b60006020820190508181036000830152613b4281613b06565b9050919050565b7f4e6f206d6f726520656c6c6970746963616c732063616e206265206d696e746560008201527f6421000000000000000000000000000000000000000000000000000000000000602082015250565b6000613ba5602283612d4d565b9150613bb082613b49565b604082019050919050565b60006020820190508181036000830152613bd481613b98565b9050919050565b7f416e20616464726573732063616e6e6f74206d696e74206d6f7265207468616e60008201527f2074776f20656c6c6970746963616c7321000000000000000000000000000000602082015250565b6000613c37603183612d4d565b9150613c4282613bdb565b604082019050919050565b60006020820190508181036000830152613c6681613c2a565b9050919050565b7f416e20616464726573732063616e6e6f74206d696e74206d6f7265207468616e60008201527f206f6e6520656c6c6970746963616c2077697468696e206120323420686f757260208201527f20706572696f6421000000000000000000000000000000000000000000000000604082015250565b6000613cef604883612d4d565b9150613cfa82613c6d565b606082019050919050565b60006020820190508181036000830152613d1e81613ce2565b9050919050565b7f4552433732313a206f70657261746f7220717565727920666f72206e6f6e657860008201527f697374656e7420746f6b656e0000000000000000000000000000000000000000602082015250565b6000613d81602c83612d4d565b9150613d8c82613d25565b604082019050919050565b60006020820190508181036000830152613db081613d74565b9050919050565b7f45524337323155524953746f726167653a2055524920736574206f66206e6f6e60008201527f6578697374656e7420746f6b656e000000000000000000000000000000000000602082015250565b6000613e13602e83612d4d565b9150613e1e82613db7565b604082019050919050565b60006020820190508181036000830152613e4281613e06565b9050919050565b7f4e487b7100000000000000000000000000000000000000000000000000000000600052601160045260246000fd5b600060ff82169050919050565b6000613e9082613e78565b915060ff821415613ea457613ea3613e49565b5b600182019050919050565b6000613eba82613e78565b91506000821415613ece57613ecd613e49565b5b600182039050919050565b7f4e487b7100000000000000000000000000000000000000000000000000000000600052601260045260246000fd5b6000613f1382612dfd565b9150613f1e83612dfd565b925082613f2e57613f2d613ed9565b5b828206905092915050565b7f4552433732313a207472616e7366657220746f206e6f6e20455243373231526560008201527f63656976657220696d706c656d656e7465720000000000000000000000000000602082015250565b6000613f95603283612d4d565b9150613fa082613f39565b604082019050919050565b60006020820190508181036000830152613fc481613f88565b9050919050565b7f45524337323155524953746f726167653a2055524920717565727920666f722060008201527f6e6f6e6578697374656e7420746f6b656e000000000000000000000000000000602082015250565b6000614027603183612d4d565b915061403282613fcb565b604082019050919050565b600060208201905081810360008301526140568161401a565b9050919050565b600081905092915050565b600061407382612d42565b61407d818561405d565b935061408d818560208601612d5e565b80840191505092915050565b60006140a58285614068565b91506140b18284614068565b91508190509392505050565b60006040820190506140d26000830185613531565b6140df602083018461316f565b9392505050565b600081519050919050565b600082825260208201905092915050565b600061410d826140e6565b61411781856140f1565b9350614127818560208601612d5e565b61413081612d91565b840191505092915050565b60006060820190506141506000830186612e92565b61415d602083018561316f565b818103604083015261416f8184614102565b9050949350505050565b60008151905061418881613284565b92915050565b6000602082840312156141a4576141a3612c7d565b5b60006141b284828501614179565b91505092915050565b60006141c682612dfd565b91506141d183612dfd565b9250827fffffffffffffffffffffffffffffffffffffffffffffffffffffffffffffffff0382111561420657614205613e49565b5b828201905092915050565b600069ffffffffffffffffffff82169050919050565b61423081614211565b811461423b57600080fd5b50565b60008151905061424d81614227565b92915050565b6000819050919050565b61426681614253565b811461427157600080fd5b50565b6000815190506142838161425d565b92915050565b600080600080600060a086880312156142a5576142a4612c7d565b5b60006142b38882890161423e565b95505060206142c488828901614274565b94505060406142d588828901613a9b565b93505060606142e688828901613a9b565b92505060806142f78882890161423e565b9150509295509295909350565b6000604082019050614319600083018561316f565b614326602083018461316f565b9392505050565b60006080820190506143426000830187612e92565b61434f6020830186612e92565b61435c604083018561316f565b818103606083015261436e8184614102565b905095945050505050565b60008151905061438881612cb3565b92915050565b6000602082840312156143a4576143a3612c7d565b5b60006143b284828501614379565b91505092915050565b7f4552433732314d657461646174613a2055524920717565727920666f72206e6f60008201527f6e6578697374656e7420746f6b656e0000000000000000000000000000000000602082015250565b6000614417602f83612d4d565b9150614422826143bb565b604082019050919050565b600060208201905081810360008301526144468161440a565b9050919050565b60006080820190506144626000830187613531565b61446f602083018661316f565b61447c6040830185612e92565b614489606083018461316f565b95945050505050565b6000819050919050565b6144ad6144a88261310c565b614492565b82525050565b6000819050919050565b6144ce6144c982612dfd565b6144b3565b82525050565b60006144e0828561449c565b6020820191506144f082846144bd565b6020820191508190509392505050565b600061450b82612dfd565b91507fffffffffffffffffffffffffffffffffffffffffffffffffffffffffffffffff82141561453e5761453d613e49565b5b600182019050919050565b600061455482612dfd565b915061455f83612dfd565b92508261456f5761456e613ed9565b5b828204905092915050565b600061458582612dfd565b915061459083612dfd565b9250828210156145a3576145a2613e49565b5b828203905092915050565b7f4552433732313a206d696e7420746f20746865207a65726f2061646472657373600082015250565b60006145e4602083612d4d565b91506145ef826145ae565b602082019050919050565b60006020820190508181036000830152614613816145d7565b9050919050565b7f4552433732313a20746f6b656e20616c7265616479206d696e74656400000000600082015250565b6000614650601c83612d4d565b915061465b8261461a565b602082019050919050565b6000602082019050818103600083015261467f81614643565b905091905056fea2646970667358221220c57d7fbf45df9d584b2ca7049bba599d49fa386a64428b0288d6b8e285e847a464736f6c63430008090033",
  "immutableReferences": {
    "808": [
      {
        "length": 32,
        "start": 5439
      },
      {
        "length": 32,
        "start": 8846
      }
    ],
    "810": [
      {
        "length": 32,
        "start": 3992
      },
      {
        "length": 32,
        "start": 8906
      }
    ]
  },
  "source": "// SPDX-License-Identifier: MIT\npragma solidity 0.8.9;\n\nimport \"@openzeppelin/contracts/token/ERC721/extensions/ERC721URIStorage.sol\";\nimport \"@openzeppelin/contracts/token/ERC721/ERC721.sol\";\nimport \"@chainlink/contracts/src/v0.8/VRFConsumerBase.sol\";\nimport \"@openzeppelin/contracts/access/Ownable.sol\";\nimport \"@openzeppelin/contracts/utils/Strings.sol\";\nimport \"@chainlink/contracts/src/v0.8/interfaces/AggregatorV3Interface.sol\";\n\n/// @title Contract for creating tradeable, randomly generated, and rare elliptical art\n/// @author Hou Chia\n/// @notice You can use this contract to generate tradeable, randomly generated, and rare elliptical art\n\ncontract EllipticalArtNFT is\n    ERC721,\n    ERC721URIStorage,\n    VRFConsumerBase,\n    Ownable\n{\n    AggregatorV3Interface internal priceFeed;\n\n    /// @notice key hash.\n    /// @dev public key used to generate randomness, set during contract initialization\n    bytes32 internal keyHash;\n\n    /// @notice fee required to fulfill a VRF request for generating a verifiably random number\n    /// @dev Used as an input to the Chainlink VRF, set during contract initialization\n    uint256 internal fee;\n\n    /// @notice Chainlink VRFCoordinator address\n    /// @dev Used as an input to the Chainlink VRF, set during contract initialization\n    address public VRFCoordinator;\n\n    /// @notice Chainlink token address at a given network\n    /// @dev Used as an input to the Chainlink VRF, set during contract initialization\n    address public LinkToken;\n\n    /// @notice Cooldown period before an address can mint another elliptical\n    /// @dev Used to ensure that no address can mint more than 1 elliptical within a day\n    uint256 cooldownTime = 1 days;\n\n    /// @notice The maximum number of ellipticals that can be created per address\n    /// @dev Used to ensure that no address can mint more than 2 ellipticals\n    uint8 maxPerAddress = 2;\n\n    /// @notice The maximum number of ellipticals that can be created on this contract\n    /// @dev This value is set during contract initialization, and cannot be updated\n    uint8 maxSupply;\n\n    struct Elliptical {\n        string name;\n        uint256 v1;\n        uint256 v2;\n        uint256 v3;\n        uint256 alpha;\n        uint256 x;\n        uint256 y;\n        uint256 w;\n        uint256 h;\n    }\n\n    Elliptical[] public ellipticals;\n\n    mapping(bytes32 => string) public requestToEllipticalName;\n    mapping(bytes32 => address) public requestToSender;\n    mapping(bytes32 => uint256) requestToTokenId;\n    mapping(address => uint32) addressToReadyTime;\n    mapping(address => uint8) addressEllipticalCount;\n    mapping(uint256 => address) ellipticalApprovals;\n    mapping(uint256 => address) public ellipticalToOwner;\n\n    /// @notice Emitted when a user requests a new elliptical\n    /// @param requestId request id\n    event RequestedElliptical(bytes32 indexed requestId);\n\n    modifier requireSufficientLink() {\n        require(\n            LINK.balanceOf(address(this)) >= fee,\n            \"Please fill contract with LINK\"\n        );\n        _;\n    }\n\n    modifier requireIsBelowMaxPerAddress() {\n        require(\n            addressEllipticalCount[_msgSender()] < maxPerAddress,\n            \"An address cannot mint more than two ellipticals!\"\n        );\n        _;\n    }\n\n    modifier requireIsBelowMaxSupply() {\n        require(\n            getEllipticalsCount() == maxSupply,\n            \"No more ellipticals can be minted!\"\n        );\n        _;\n    }\n\n    modifier requireIsReady() {\n        require(\n            _isReady(_msgSender()),\n            \"An address cannot mint more than one elliptical within a 24 hour period!\"\n        );\n        _;\n    }\n\n    modifier requireIsOwnerOf(uint256 _tokenId) {\n        require(\n            ellipticalToOwner[_tokenId] == _msgSender(),\n            \"Only the owner can approve a token transfer!\"\n        );\n        _;\n    }\n\n    constructor(\n        address _VRFCoordinator,\n        address _LinkToken,\n        bytes32 _keyHash,\n        address _priceFeed,\n        uint8 _maxSupply\n    )\n        VRFConsumerBase(_VRFCoordinator, _LinkToken)\n        ERC721(\"EllipticalArtNFT\", \"EA\")\n    {\n        VRFCoordinator = _VRFCoordinator;\n        priceFeed = AggregatorV3Interface(_priceFeed);\n        LinkToken = _LinkToken;\n        keyHash = _keyHash;\n        fee = 0.1 * 10**18; // 0.1 LINK\n        maxSupply = _maxSupply;\n    }\n\n    /// @notice Request a new elliptical\n    /// @dev requestRandomness() makes a request to the Chainlink oracle for a verifiably random number\n    /// @param _name a name for the elliptical\n    /// @return request id associated with the VRF request\n    function requestNewRandomElliptical(string memory _name)\n        public\n        requireSufficientLink\n        requireIsBelowMaxSupply\n        requireIsBelowMaxPerAddress\n        requireIsReady\n        returns (bytes32)\n    {\n        bytes32 requestId = requestRandomness(keyHash, fee);\n        requestToEllipticalName[requestId] = _name;\n        requestToSender[requestId] = _msgSender();\n        emit RequestedElliptical(requestId);\n        return requestId;\n    }\n\n    /// @notice Return the URI for a given token\n    /// @param _tokenId id for the token\n    /// @return the token URI, which resolves to a JSON containing the token metadata\n    function getTokenURI(uint256 _tokenId) public view returns (string memory) {\n        return tokenURI(_tokenId);\n    }\n\n    /// @notice Set the URI where the token metadata is stored\n    /// @param tokenId id for the token\n    /// @param _tokenURI the token URI, which resolves to a JSON containing the token metadata\n    function setTokenURI(uint256 tokenId, string memory _tokenURI) public {\n        require(\n            _isApprovedOrOwner(_msgSender(), tokenId),\n            \"ERC721: transfer caller is not owner nor approved\"\n        );\n        _setTokenURI(tokenId, _tokenURI);\n    }\n\n    /// @dev The function that receives the verifiable random number and does something with it\n    /// @param _requestId id identifying the VRF request\n    /// @param _randomNumber random number generated by the Chainlink VRF\n    function fulfillRandomness(bytes32 _requestId, uint256 _randomNumber)\n        internal\n        override\n    {\n        uint256 id = ellipticals.length;\n        uint256 v1 = uint256(_getLatestPrice()) % 255;\n        uint256 v2 = _getRandomNumber(_randomNumber, 1, 255);\n        uint256 v3 = _getRandomNumber(_randomNumber, 2, 255);\n        uint256 alpha = _getRandomNumber(_randomNumber, 3, 255);\n        uint256 x = _getRandomNumber(_randomNumber, 4, 500);\n        uint256 y = _getRandomNumber(_randomNumber, 5, 500);\n        uint256 w = _getRandomNumber(_randomNumber, 6, 100);\n        uint256 h = _getRandomNumber(_randomNumber, 7, 100);\n\n        Elliptical memory elliptical = Elliptical(\n            requestToEllipticalName[_requestId],\n            v1,\n            v2,\n            v3,\n            alpha,\n            x,\n            y,\n            w,\n            h\n        );\n        address _sender = requestToSender[_requestId];\n        ellipticals.push(elliptical);\n        ellipticalToOwner[id] = _msgSender();\n        addressEllipticalCount[_sender]++;\n        _triggerCooldown(_sender);\n        _safeMint(_sender, id);\n    }\n\n    /// @notice Get the total number of ellipticals already minted in the contract\n    /// @return count of ellipticals\n    function getEllipticalsCount() public view returns (uint256) {\n        return ellipticals.length;\n    }\n\n    /// @notice Get the attributes for an elliptical image\n    /// @param _tokenId token id for the desired elliptical\n    /// @return attributes of the elliptical image\n    function getEllipticalDimensions(uint256 _tokenId)\n        public\n        view\n        returns (\n            uint256,\n            uint256,\n            uint256,\n            uint256,\n            uint256,\n            uint256,\n            uint256,\n            uint256\n        )\n    {\n        Elliptical memory elliptical = ellipticals[_tokenId];\n        return (\n            elliptical.v1,\n            elliptical.v2,\n            elliptical.v3,\n            elliptical.alpha,\n            elliptical.x,\n            elliptical.y,\n            elliptical.w,\n            elliptical.h\n        );\n    }\n\n    /// @notice Transfer a token from one address to another\n    /// @param _from the address to transfer from\n    /// @param _to the address to transfer to\n    /// @param _tokenId the token to transfer\n    function transferFrom(\n        address _from,\n        address _to,\n        uint256 _tokenId\n    ) public override {\n        require(\n            ellipticalToOwner[_tokenId] == _msgSender() ||\n                ellipticalApprovals[_tokenId] == _msgSender()\n        );\n        _transfer(_from, _to, _tokenId);\n    }\n\n    /// @notice Approve an address to transfer a token on the owner's behalf\n    /// @param _approved the address to approve\n    /// @param _tokenId the token to give approval for\n    function approve(address _approved, uint256 _tokenId)\n        public\n        override\n        requireIsOwnerOf(_tokenId)\n    {\n        ellipticalApprovals[_tokenId] = _approved;\n        emit Approval(_msgSender(), _approved, _tokenId);\n    }\n\n    /// @notice Return the token URI for a given token\n    /// @param _tokenId the token id\n    /// @return the token URI\n    function tokenURI(uint256 _tokenId)\n        public\n        view\n        override(ERC721, ERC721URIStorage)\n        returns (string memory)\n    {\n        return super.tokenURI(_tokenId);\n    }\n\n    /// @notice Transfer a token from one address to another\n    /// @dev This function is called by the public transferFrom function\n    /// @param _from the address to transfer from\n    /// @param _to the address to transfer to\n    /// @param _tokenId the token to transfer\n    function _transfer(\n        address _from,\n        address _to,\n        uint256 _tokenId\n    ) internal override {\n        addressEllipticalCount[_to]++;\n        addressEllipticalCount[_msgSender()]--;\n        ellipticalToOwner[_tokenId] = _to;\n        emit Transfer(_from, _to, _tokenId);\n    }\n\n    /// @notice Burn a token\n    /// @param _tokenId the id of the token to be burnt\n    function _burn(uint256 _tokenId)\n        internal\n        override(ERC721, ERC721URIStorage)\n    {\n        super._burn(_tokenId);\n    }\n\n    /// @notice Get the latest price feed for a coin\n    /// @dev Using Chainlink price feeds, the price feed address to use is provided during contract initialization\n    /// @return most recent round of price data\n    function _getLatestPrice() private view returns (int256) {\n        (, int256 price, , , ) = priceFeed.latestRoundData();\n        return price;\n    }\n\n    /// @notice Generate a random number in a given range\n    /// @dev Feed in the Chainlink VRF random number\n    /// @param _randomNumber random number\n    /// @param _nonce nonce or seed\n    /// @param _range the returned value should be in the specified range\n    /// @return a random number in a given range\n    function _getRandomNumber(\n        uint256 _randomNumber,\n        uint256 _nonce,\n        uint256 _range\n    ) private pure returns (uint256) {\n        return uint256(keccak256(abi.encode(_randomNumber, _nonce))) % _range;\n    }\n\n    /// @notice Trigger a cooldown period for each address after every mint\n    /// @dev keep in mind block.timestamp is susceptible to miner manipulation\n    /// @param _address the address to set a cooldown period for\n    function _triggerCooldown(address _address) private {\n        addressToReadyTime[_address] = uint32(block.timestamp + cooldownTime);\n    }\n\n    /// @notice Check whether an address is ready to mint\n    /// @dev Keep in mind block.timestamp is susceptible to miner manipulation\n    /// @param _address the address to check\n    /// @return true if the address is ready to mint; otherwise, return false\n    function _isReady(address _address) internal view returns (bool) {\n        return (addressToReadyTime[_address] == 0 ||\n            addressToReadyTime[_address] <= block.timestamp);\n    }\n}\n",
  "sourcePath": "/Users/houchia/consensys/blockchain-developer-bootcamp-final-project/contracts/contracts/EllipticalArtNFT.sol",
  "compiler": {
    "name": "solc",
    "version": "0.8.9+commit.e5eed63a.Emscripten.clang"
  },
  "schemaVersion": "3.4.1",
  "updatedAt": "2021-11-27T19:59:10.615Z",
  "networkType": "ethereum",
  "devdoc": {
    "author": "Hou Chia",
    "events": {
      "RequestedElliptical(bytes32)": {
        "params": {
          "requestId": "request id"
        }
      }
    },
    "kind": "dev",
    "methods": {
      "approve(address,uint256)": {
        "params": {
          "_approved": "the address to approve",
          "_tokenId": "the token to give approval for"
        }
      },
      "balanceOf(address)": {
        "details": "See {IERC721-balanceOf}."
      },
      "getApproved(uint256)": {
        "details": "See {IERC721-getApproved}."
      },
      "getEllipticalDimensions(uint256)": {
        "params": {
          "_tokenId": "token id for the desired elliptical"
        },
        "returns": {
          "_0": "attributes of the elliptical image"
        }
      },
      "getEllipticalsCount()": {
        "returns": {
          "_0": "count of ellipticals"
        }
      },
      "getTokenURI(uint256)": {
        "params": {
          "_tokenId": "id for the token"
        },
        "returns": {
          "_0": "the token URI, which resolves to a JSON containing the token metadata"
        }
      },
      "isApprovedForAll(address,address)": {
        "details": "See {IERC721-isApprovedForAll}."
      },
      "name()": {
        "details": "See {IERC721Metadata-name}."
      },
      "owner()": {
        "details": "Returns the address of the current owner."
      },
      "ownerOf(uint256)": {
        "details": "See {IERC721-ownerOf}."
      },
      "renounceOwnership()": {
        "details": "Leaves the contract without owner. It will not be possible to call `onlyOwner` functions anymore. Can only be called by the current owner. NOTE: Renouncing ownership will leave the contract without an owner, thereby removing any functionality that is only available to the owner."
      },
      "requestNewRandomElliptical(string)": {
        "details": "requestRandomness() makes a request to the Chainlink oracle for a verifiably random number",
        "params": {
          "_name": "a name for the elliptical"
        },
        "returns": {
          "_0": "request id associated with the VRF request"
        }
      },
      "safeTransferFrom(address,address,uint256)": {
        "details": "See {IERC721-safeTransferFrom}."
      },
      "safeTransferFrom(address,address,uint256,bytes)": {
        "details": "See {IERC721-safeTransferFrom}."
      },
      "setApprovalForAll(address,bool)": {
        "details": "See {IERC721-setApprovalForAll}."
      },
      "setTokenURI(uint256,string)": {
        "params": {
          "_tokenURI": "the token URI, which resolves to a JSON containing the token metadata",
          "tokenId": "id for the token"
        }
      },
      "supportsInterface(bytes4)": {
        "details": "See {IERC165-supportsInterface}."
      },
      "symbol()": {
        "details": "See {IERC721Metadata-symbol}."
      },
      "tokenURI(uint256)": {
        "params": {
          "_tokenId": "the token id"
        },
        "returns": {
          "_0": "the token URI"
        }
      },
      "transferFrom(address,address,uint256)": {
        "params": {
          "_from": "the address to transfer from",
          "_to": "the address to transfer to",
          "_tokenId": "the token to transfer"
        }
      },
      "transferOwnership(address)": {
        "details": "Transfers ownership of the contract to a new account (`newOwner`). Can only be called by the current owner."
      }
    },
    "stateVariables": {
      "LinkToken": {
        "details": "Used as an input to the Chainlink VRF, set during contract initialization"
      },
      "VRFCoordinator": {
        "details": "Used as an input to the Chainlink VRF, set during contract initialization"
      },
      "cooldownTime": {
        "details": "Used to ensure that no address can mint more than 1 elliptical within a day"
      },
      "fee": {
        "details": "Used as an input to the Chainlink VRF, set during contract initialization"
      },
      "keyHash": {
        "details": "public key used to generate randomness, set during contract initialization"
      },
      "maxPerAddress": {
        "details": "Used to ensure that no address can mint more than 2 ellipticals"
      },
      "maxSupply": {
        "details": "This value is set during contract initialization, and cannot be updated"
      }
    },
    "title": "Contract for creating tradeable, randomly generated, and rare elliptical art",
    "version": 1
  },
  "userdoc": {
    "events": {
      "RequestedElliptical(bytes32)": {
        "notice": "Emitted when a user requests a new elliptical"
      }
    },
    "kind": "user",
    "methods": {
      "LinkToken()": {
        "notice": "Chainlink token address at a given network"
      },
      "VRFCoordinator()": {
        "notice": "Chainlink VRFCoordinator address"
      },
      "approve(address,uint256)": {
        "notice": "Approve an address to transfer a token on the owner's behalf"
      },
      "getEllipticalDimensions(uint256)": {
        "notice": "Get the attributes for an elliptical image"
      },
      "getEllipticalsCount()": {
        "notice": "Get the total number of ellipticals already minted in the contract"
      },
      "getTokenURI(uint256)": {
        "notice": "Return the URI for a given token"
      },
      "requestNewRandomElliptical(string)": {
        "notice": "Request a new elliptical"
      },
      "setTokenURI(uint256,string)": {
        "notice": "Set the URI where the token metadata is stored"
      },
      "tokenURI(uint256)": {
        "notice": "Return the token URI for a given token"
      },
      "transferFrom(address,address,uint256)": {
        "notice": "Transfer a token from one address to another"
      }
    },
    "notice": "You can use this contract to generate tradeable, randomly generated, and rare elliptical art",
    "version": 1
  }
}