{
  "contractName": "VRFCoordinatorMock",
  "abi": [
    {
      "inputs": [
        {
          "internalType": "address",
          "name": "linkAddress",
          "type": "address"
        }
      ],
      "stateMutability": "nonpayable",
      "type": "constructor"
    },
    {
      "anonymous": false,
      "inputs": [
        {
          "indexed": true,
          "internalType": "address",
          "name": "sender",
          "type": "address"
        },
        {
          "indexed": true,
          "internalType": "bytes32",
          "name": "keyHash",
          "type": "bytes32"
        },
        {
          "indexed": true,
          "internalType": "uint256",
          "name": "seed",
          "type": "uint256"
        }
      ],
      "name": "RandomnessRequest",
      "type": "event"
    },
    {
      "inputs": [],
      "name": "LINK",
      "outputs": [
        {
          "internalType": "contract LinkTokenInterface",
          "name": "",
          "type": "address"
        }
      ],
      "stateMutability": "view",
      "type": "function"
    },
    {
      "inputs": [
        {
          "internalType": "address",
          "name": "sender",
          "type": "address"
        },
        {
          "internalType": "bytes",
          "name": "_data",
          "type": "bytes"
        }
      ],
      "name": "onTokenTransfer",
      "outputs": [],
      "stateMutability": "nonpayable",
      "type": "function"
    },
    {
      "inputs": [
        {
          "internalType": "bytes32",
          "name": "requestId",
          "type": "bytes32"
        },
        {
          "internalType": "uint256",
          "name": "randomness",
          "type": "uint256"
        },
        {
          "internalType": "address",
          "name": "consumerContract",
          "type": "address"
        }
      ],
      "name": "callBackWithRandomness",
      "outputs": [
        {
          "internalType": "bool",
          "name": "",
          "type": "bool"
        }
      ],
      "stateMutability": "nonpayable",
      "type": "function"
    }
  ],
  "bytecode": "0x608060405234801561001057600080fd5b50604051610a08380380610a08833981810160405281019061003291906100db565b806000806101000a81548173ffffffffffffffffffffffffffffffffffffffff021916908373ffffffffffffffffffffffffffffffffffffffff16021790555050610108565b600080fd5b600073ffffffffffffffffffffffffffffffffffffffff82169050919050565b60006100a88261007d565b9050919050565b6100b88161009d565b81146100c357600080fd5b50565b6000815190506100d5816100af565b92915050565b6000602082840312156100f1576100f0610078565b5b60006100ff848285016100c6565b91505092915050565b6108f1806101176000396000f3fe608060405234801561001057600080fd5b50600436106100415760003560e01c80630b086ad8146100465780631b6b6d2314610062578063cf55fe9714610080575b600080fd5b610060600480360381019061005b91906104c5565b6100b0565b005b61006a6101a4565b6040516100779190610580565b60405180910390f35b61009a60048036038101906100959190610607565b6101c8565b6040516100a79190610675565b60405180910390f35b60008054906101000a900473ffffffffffffffffffffffffffffffffffffffff1673ffffffffffffffffffffffffffffffffffffffff163373ffffffffffffffffffffffffffffffffffffffff161461013e576040517f08c379a0000000000000000000000000000000000000000000000000000000008152600401610135906106ed565b60405180910390fd5b600080828060200190518101906101559190610737565b9150915080828573ffffffffffffffffffffffffffffffffffffffff167f7a9a0a6960d95b32cded93c30e63e7c2eb9e877230813c172110ea54dc1c915c60405160405180910390a450505050565b60008054906101000a900473ffffffffffffffffffffffffffffffffffffffff1681565b60008060006394985ddd60e01b86866040516024016101e8929190610795565b604051602081830303815290604052907bffffffffffffffffffffffffffffffffffffffffffffffffffffffff19166020820180517bffffffffffffffffffffffffffffffffffffffffffffffffffffffff838183161783525050505090506000620324b09050805a1015610292576040517f08c379a00000000000000000000000000000000000000000000000000000000081526004016102899061080a565b60405180910390fd5b60008573ffffffffffffffffffffffffffffffffffffffff16836040516102b991906108a4565b6000604051808303816000865af19150503d80600081146102f6576040519150601f19603f3d011682016040523d82523d6000602084013e6102fb565b606091505b50509050809450505050509392505050565b6000604051905090565b600080fd5b600080fd5b600073ffffffffffffffffffffffffffffffffffffffff82169050919050565b600061034c82610321565b9050919050565b61035c81610341565b811461036757600080fd5b50565b60008135905061037981610353565b92915050565b600080fd5b600080fd5b6000601f19601f8301169050919050565b7f4e487b7100000000000000000000000000000000000000000000000000000000600052604160045260246000fd5b6103d282610389565b810181811067ffffffffffffffff821117156103f1576103f061039a565b5b80604052505050565b600061040461030d565b905061041082826103c9565b919050565b600067ffffffffffffffff8211156104305761042f61039a565b5b61043982610389565b9050602081019050919050565b82818337600083830152505050565b600061046861046384610415565b6103fa565b90508281526020810184848401111561048457610483610384565b5b61048f848285610446565b509392505050565b600082601f8301126104ac576104ab61037f565b5b81356104bc848260208601610455565b91505092915050565b600080604083850312156104dc576104db610317565b5b60006104ea8582860161036a565b925050602083013567ffffffffffffffff81111561050b5761050a61031c565b5b61051785828601610497565b9150509250929050565b6000819050919050565b600061054661054161053c84610321565b610521565b610321565b9050919050565b60006105588261052b565b9050919050565b600061056a8261054d565b9050919050565b61057a8161055f565b82525050565b60006020820190506105956000830184610571565b92915050565b6000819050919050565b6105ae8161059b565b81146105b957600080fd5b50565b6000813590506105cb816105a5565b92915050565b6000819050919050565b6105e4816105d1565b81146105ef57600080fd5b50565b600081359050610601816105db565b92915050565b6000806000606084860312156106205761061f610317565b5b600061062e868287016105bc565b935050602061063f868287016105f2565b92505060406106508682870161036a565b9150509250925092565b60008115159050919050565b61066f8161065a565b82525050565b600060208201905061068a6000830184610666565b92915050565b600082825260208201905092915050565b7f4d75737420757365204c494e4b20746f6b656e00000000000000000000000000600082015250565b60006106d7601383610690565b91506106e2826106a1565b602082019050919050565b60006020820190508181036000830152610706816106ca565b9050919050565b60008151905061071c816105a5565b92915050565b600081519050610731816105db565b92915050565b6000806040838503121561074e5761074d610317565b5b600061075c8582860161070d565b925050602061076d85828601610722565b9150509250929050565b6107808161059b565b82525050565b61078f816105d1565b82525050565b60006040820190506107aa6000830185610777565b6107b76020830184610786565b9392505050565b7f6e6f7420656e6f7567682067617320666f7220636f6e73756d65720000000000600082015250565b60006107f4601b83610690565b91506107ff826107be565b602082019050919050565b60006020820190508181036000830152610823816107e7565b9050919050565b600081519050919050565b600081905092915050565b60005b8381101561085e578082015181840152602081019050610843565b8381111561086d576000848401525b50505050565b600061087e8261082a565b6108888185610835565b9350610898818560208601610840565b80840191505092915050565b60006108b08284610873565b91508190509291505056fea26469706673582212209764aa19b19300dc8216bd3ad09455389cdcb1624d514c7c476039f2550262cd64736f6c63430008090033",
  "immutableReferences": {},
  "source": "// SPDX-License-Identifier: MIT\npragma solidity 0.8.9;\n\nimport \"../interfaces/LinkTokenInterface.sol\";\nimport \"../VRFConsumerBase.sol\";\n\ncontract VRFCoordinatorMock {\n\n    LinkTokenInterface public LINK;\n\n    event RandomnessRequest(address indexed sender, bytes32 indexed keyHash, uint256 indexed seed);\n\n    constructor(address linkAddress) {\n        LINK = LinkTokenInterface(linkAddress);\n    }\n\n    function onTokenTransfer(address sender, bytes memory _data)\n        public\n        onlyLINK\n    {\n        (bytes32 keyHash, uint256 seed) = abi.decode(_data, (bytes32, uint256));\n        emit RandomnessRequest(sender, keyHash, seed);\n    }\n\n    function callBackWithRandomness(\n        bytes32 requestId,\n        uint256 randomness,\n        address consumerContract\n    ) public returns (bool) {\n        VRFConsumerBase v;\n        bytes memory resp = abi.encodeWithSelector(v.rawFulfillRandomness.selector, requestId, randomness);\n        uint256 b = 206000;\n        require(gasleft() >= b, \"not enough gas for consumer\");\n        (bool success, ) = consumerContract.call(resp);\n        return success;\n    }\n\n    modifier onlyLINK() {\n        require(msg.sender == address(LINK), \"Must use LINK token\");\n        _;\n    }\n}",
  "sourcePath": "@chainlink/contracts/src/v0.6/tests/VRFCoordinatorMock.sol",
  "compiler": {
    "name": "solc",
    "version": "0.8.9+commit.e5eed63a.Emscripten.clang"
  },
  "schemaVersion": "3.4.1",
  "updatedAt": "2021-11-29T20:50:21.760Z",
  "devdoc": {
    "kind": "dev",
    "methods": {},
    "version": 1
  },
  "userdoc": {
    "kind": "user",
    "methods": {},
    "version": 1
  }
}