{
  "contractName": "DungeonsAndDragonsCharacter",
  "abi": [
    {
      "inputs": [
        {
          "internalType": "address",
          "name": "_VRFCoordinator",
          "type": "address"
        },
        {
          "internalType": "address",
          "name": "_LinkToken",
          "type": "address"
        },
        {
          "internalType": "bytes32",
          "name": "_keyHash",
          "type": "bytes32"
        },
        {
          "internalType": "address",
          "name": "_priceFeed",
          "type": "address"
        }
      ],
      "stateMutability": "nonpayable",
      "type": "constructor"
    },
    {
      "anonymous": false,
      "inputs": [
        {
          "indexed": true,
          "internalType": "address",
          "name": "owner",
          "type": "address"
        },
        {
          "indexed": true,
          "internalType": "address",
          "name": "approved",
          "type": "address"
        },
        {
          "indexed": true,
          "internalType": "uint256",
          "name": "tokenId",
          "type": "uint256"
        }
      ],
      "name": "Approval",
      "type": "event"
    },
    {
      "anonymous": false,
      "inputs": [
        {
          "indexed": true,
          "internalType": "address",
          "name": "owner",
          "type": "address"
        },
        {
          "indexed": true,
          "internalType": "address",
          "name": "operator",
          "type": "address"
        },
        {
          "indexed": false,
          "internalType": "bool",
          "name": "approved",
          "type": "bool"
        }
      ],
      "name": "ApprovalForAll",
      "type": "event"
    },
    {
      "anonymous": false,
      "inputs": [
        {
          "indexed": true,
          "internalType": "address",
          "name": "previousOwner",
          "type": "address"
        },
        {
          "indexed": true,
          "internalType": "address",
          "name": "newOwner",
          "type": "address"
        }
      ],
      "name": "OwnershipTransferred",
      "type": "event"
    },
    {
      "anonymous": false,
      "inputs": [
        {
          "indexed": true,
          "internalType": "bytes32",
          "name": "requestId",
          "type": "bytes32"
        }
      ],
      "name": "RequestedCharacter",
      "type": "event"
    },
    {
      "anonymous": false,
      "inputs": [
        {
          "indexed": true,
          "internalType": "address",
          "name": "from",
          "type": "address"
        },
        {
          "indexed": true,
          "internalType": "address",
          "name": "to",
          "type": "address"
        },
        {
          "indexed": true,
          "internalType": "uint256",
          "name": "tokenId",
          "type": "uint256"
        }
      ],
      "name": "Transfer",
      "type": "event"
    },
    {
      "inputs": [],
      "name": "LinkToken",
      "outputs": [
        {
          "internalType": "address",
          "name": "",
          "type": "address"
        }
      ],
      "stateMutability": "view",
      "type": "function",
      "constant": true
    },
    {
      "inputs": [],
      "name": "VRFCoordinator",
      "outputs": [
        {
          "internalType": "address",
          "name": "",
          "type": "address"
        }
      ],
      "stateMutability": "view",
      "type": "function",
      "constant": true
    },
    {
      "inputs": [
        {
          "internalType": "address",
          "name": "to",
          "type": "address"
        },
        {
          "internalType": "uint256",
          "name": "tokenId",
          "type": "uint256"
        }
      ],
      "name": "approve",
      "outputs": [],
      "stateMutability": "nonpayable",
      "type": "function"
    },
    {
      "inputs": [
        {
          "internalType": "address",
          "name": "owner",
          "type": "address"
        }
      ],
      "name": "balanceOf",
      "outputs": [
        {
          "internalType": "uint256",
          "name": "",
          "type": "uint256"
        }
      ],
      "stateMutability": "view",
      "type": "function",
      "constant": true
    },
    {
      "inputs": [
        {
          "internalType": "uint256",
          "name": "",
          "type": "uint256"
        }
      ],
      "name": "characters",
      "outputs": [
        {
          "internalType": "int256",
          "name": "strength",
          "type": "int256"
        },
        {
          "internalType": "uint256",
          "name": "dexterity",
          "type": "uint256"
        },
        {
          "internalType": "uint256",
          "name": "constitution",
          "type": "uint256"
        },
        {
          "internalType": "uint256",
          "name": "intelligence",
          "type": "uint256"
        },
        {
          "internalType": "uint256",
          "name": "wisdom",
          "type": "uint256"
        },
        {
          "internalType": "uint256",
          "name": "charisma",
          "type": "uint256"
        },
        {
          "internalType": "uint256",
          "name": "experience",
          "type": "uint256"
        },
        {
          "internalType": "string",
          "name": "name",
          "type": "string"
        }
      ],
      "stateMutability": "view",
      "type": "function",
      "constant": true
    },
    {
      "inputs": [
        {
          "internalType": "uint256",
          "name": "tokenId",
          "type": "uint256"
        }
      ],
      "name": "getApproved",
      "outputs": [
        {
          "internalType": "address",
          "name": "",
          "type": "address"
        }
      ],
      "stateMutability": "view",
      "type": "function",
      "constant": true
    },
    {
      "inputs": [
        {
          "internalType": "address",
          "name": "owner",
          "type": "address"
        },
        {
          "internalType": "address",
          "name": "operator",
          "type": "address"
        }
      ],
      "name": "isApprovedForAll",
      "outputs": [
        {
          "internalType": "bool",
          "name": "",
          "type": "bool"
        }
      ],
      "stateMutability": "view",
      "type": "function",
      "constant": true
    },
    {
      "inputs": [],
      "name": "name",
      "outputs": [
        {
          "internalType": "string",
          "name": "",
          "type": "string"
        }
      ],
      "stateMutability": "view",
      "type": "function",
      "constant": true
    },
    {
      "inputs": [],
      "name": "owner",
      "outputs": [
        {
          "internalType": "address",
          "name": "",
          "type": "address"
        }
      ],
      "stateMutability": "view",
      "type": "function",
      "constant": true
    },
    {
      "inputs": [
        {
          "internalType": "uint256",
          "name": "tokenId",
          "type": "uint256"
        }
      ],
      "name": "ownerOf",
      "outputs": [
        {
          "internalType": "address",
          "name": "",
          "type": "address"
        }
      ],
      "stateMutability": "view",
      "type": "function",
      "constant": true
    },
    {
      "inputs": [],
      "name": "randomResult",
      "outputs": [
        {
          "internalType": "uint256",
          "name": "",
          "type": "uint256"
        }
      ],
      "stateMutability": "view",
      "type": "function",
      "constant": true
    },
    {
      "inputs": [
        {
          "internalType": "bytes32",
          "name": "requestId",
          "type": "bytes32"
        },
        {
          "internalType": "uint256",
          "name": "randomness",
          "type": "uint256"
        }
      ],
      "name": "rawFulfillRandomness",
      "outputs": [],
      "stateMutability": "nonpayable",
      "type": "function"
    },
    {
      "inputs": [],
      "name": "renounceOwnership",
      "outputs": [],
      "stateMutability": "nonpayable",
      "type": "function"
    },
    {
      "inputs": [
        {
          "internalType": "bytes32",
          "name": "",
          "type": "bytes32"
        }
      ],
      "name": "requestToCharacterName",
      "outputs": [
        {
          "internalType": "string",
          "name": "",
          "type": "string"
        }
      ],
      "stateMutability": "view",
      "type": "function",
      "constant": true
    },
    {
      "inputs": [
        {
          "internalType": "bytes32",
          "name": "",
          "type": "bytes32"
        }
      ],
      "name": "requestToSender",
      "outputs": [
        {
          "internalType": "address",
          "name": "",
          "type": "address"
        }
      ],
      "stateMutability": "view",
      "type": "function",
      "constant": true
    },
    {
      "inputs": [
        {
          "internalType": "address",
          "name": "from",
          "type": "address"
        },
        {
          "internalType": "address",
          "name": "to",
          "type": "address"
        },
        {
          "internalType": "uint256",
          "name": "tokenId",
          "type": "uint256"
        }
      ],
      "name": "safeTransferFrom",
      "outputs": [],
      "stateMutability": "nonpayable",
      "type": "function"
    },
    {
      "inputs": [
        {
          "internalType": "address",
          "name": "from",
          "type": "address"
        },
        {
          "internalType": "address",
          "name": "to",
          "type": "address"
        },
        {
          "internalType": "uint256",
          "name": "tokenId",
          "type": "uint256"
        },
        {
          "internalType": "bytes",
          "name": "_data",
          "type": "bytes"
        }
      ],
      "name": "safeTransferFrom",
      "outputs": [],
      "stateMutability": "nonpayable",
      "type": "function"
    },
    {
      "inputs": [
        {
          "internalType": "address",
          "name": "operator",
          "type": "address"
        },
        {
          "internalType": "bool",
          "name": "approved",
          "type": "bool"
        }
      ],
      "name": "setApprovalForAll",
      "outputs": [],
      "stateMutability": "nonpayable",
      "type": "function"
    },
    {
      "inputs": [
        {
          "internalType": "bytes4",
          "name": "interfaceId",
          "type": "bytes4"
        }
      ],
      "name": "supportsInterface",
      "outputs": [
        {
          "internalType": "bool",
          "name": "",
          "type": "bool"
        }
      ],
      "stateMutability": "view",
      "type": "function",
      "constant": true
    },
    {
      "inputs": [],
      "name": "symbol",
      "outputs": [
        {
          "internalType": "string",
          "name": "",
          "type": "string"
        }
      ],
      "stateMutability": "view",
      "type": "function",
      "constant": true
    },
    {
      "inputs": [
        {
          "internalType": "uint256",
          "name": "tokenId",
          "type": "uint256"
        }
      ],
      "name": "tokenURI",
      "outputs": [
        {
          "internalType": "string",
          "name": "",
          "type": "string"
        }
      ],
      "stateMutability": "view",
      "type": "function",
      "constant": true
    },
    {
      "inputs": [
        {
          "internalType": "address",
          "name": "from",
          "type": "address"
        },
        {
          "internalType": "address",
          "name": "to",
          "type": "address"
        },
        {
          "internalType": "uint256",
          "name": "tokenId",
          "type": "uint256"
        }
      ],
      "name": "transferFrom",
      "outputs": [],
      "stateMutability": "nonpayable",
      "type": "function"
    },
    {
      "inputs": [
        {
          "internalType": "address",
          "name": "newOwner",
          "type": "address"
        }
      ],
      "name": "transferOwnership",
      "outputs": [],
      "stateMutability": "nonpayable",
      "type": "function"
    },
    {
      "inputs": [
        {
          "internalType": "string",
          "name": "name",
          "type": "string"
        }
      ],
      "name": "requestNewRandomCharacter",
      "outputs": [
        {
          "internalType": "bytes32",
          "name": "",
          "type": "bytes32"
        }
      ],
      "stateMutability": "nonpayable",
      "type": "function"
    },
    {
      "inputs": [
        {
          "internalType": "uint256",
          "name": "tokenId",
          "type": "uint256"
        }
      ],
      "name": "getTokenURI",
      "outputs": [
        {
          "internalType": "string",
          "name": "",
          "type": "string"
        }
      ],
      "stateMutability": "view",
      "type": "function",
      "constant": true
    },
    {
      "inputs": [
        {
          "internalType": "uint256",
          "name": "tokenId",
          "type": "uint256"
        },
        {
          "internalType": "string",
          "name": "_tokenURI",
          "type": "string"
        }
      ],
      "name": "setTokenURI",
      "outputs": [],
      "stateMutability": "nonpayable",
      "type": "function"
    },
    {
      "inputs": [
        {
          "internalType": "uint256",
          "name": "tokenId",
          "type": "uint256"
        }
      ],
      "name": "getLevel",
      "outputs": [
        {
          "internalType": "uint256",
          "name": "",
          "type": "uint256"
        }
      ],
      "stateMutability": "view",
      "type": "function",
      "constant": true
    },
    {
      "inputs": [],
      "name": "getNumberOfCharacters",
      "outputs": [
        {
          "internalType": "uint256",
          "name": "",
          "type": "uint256"
        }
      ],
      "stateMutability": "view",
      "type": "function",
      "constant": true
    },
    {
      "inputs": [
        {
          "internalType": "uint256",
          "name": "tokenId",
          "type": "uint256"
        }
      ],
      "name": "getCharacterOverView",
      "outputs": [
        {
          "internalType": "string",
          "name": "",
          "type": "string"
        },
        {
          "internalType": "uint256",
          "name": "",
          "type": "uint256"
        },
        {
          "internalType": "uint256",
          "name": "",
          "type": "uint256"
        },
        {
          "internalType": "uint256",
          "name": "",
          "type": "uint256"
        }
      ],
      "stateMutability": "view",
      "type": "function",
      "constant": true
    },
    {
      "inputs": [],
      "name": "getLatestPrice",
      "outputs": [
        {
          "internalType": "int256",
          "name": "",
          "type": "int256"
        }
      ],
      "stateMutability": "view",
      "type": "function",
      "constant": true
    },
    {
      "inputs": [
        {
          "internalType": "uint256",
          "name": "tokenId",
          "type": "uint256"
        }
      ],
      "name": "getCharacterStats",
      "outputs": [
        {
          "internalType": "int256",
          "name": "",
          "type": "int256"
        },
        {
          "internalType": "uint256",
          "name": "",
          "type": "uint256"
        },
        {
          "internalType": "uint256",
          "name": "",
          "type": "uint256"
        },
        {
          "internalType": "uint256",
          "name": "",
          "type": "uint256"
        },
        {
          "internalType": "uint256",
          "name": "",
          "type": "uint256"
        },
        {
          "internalType": "uint256",
          "name": "",
          "type": "uint256"
        },
        {
          "internalType": "uint256",
          "name": "",
          "type": "uint256"
        }
      ],
      "stateMutability": "view",
      "type": "function",
      "constant": true
    }
  ],
  "bytecode": "0x60c06040523480156200001157600080fd5b5060405162004c3838038062004c38833981810160405281019062000037919062000469565b83836040518060400160405280601b81526020017f44756e67656f6e73416e64447261676f6e7343686172616374657200000000008152506040518060400160405280600381526020017f44264400000000000000000000000000000000000000000000000000000000008152508160009080519060200190620000bd92919062000314565b508060019080519060200190620000d692919062000314565b5050508173ffffffffffffffffffffffffffffffffffffffff1660a08173ffffffffffffffffffffffffffffffffffffffff16815250508073ffffffffffffffffffffffffffffffffffffffff1660808173ffffffffffffffffffffffffffffffffffffffff1681525050505062000163620001576200024660201b60201c565b6200024e60201b60201c565b83600d60006101000a81548173ffffffffffffffffffffffffffffffffffffffff021916908373ffffffffffffffffffffffffffffffffffffffff16021790555080600960006101000a81548173ffffffffffffffffffffffffffffffffffffffff021916908373ffffffffffffffffffffffffffffffffffffffff16021790555082600e60006101000a81548173ffffffffffffffffffffffffffffffffffffffff021916908373ffffffffffffffffffffffffffffffffffffffff16021790555081600a8190555067016345785d8a0000600b819055505050505062000540565b600033905090565b6000600860009054906101000a900473ffffffffffffffffffffffffffffffffffffffff16905081600860006101000a81548173ffffffffffffffffffffffffffffffffffffffff021916908373ffffffffffffffffffffffffffffffffffffffff1602179055508173ffffffffffffffffffffffffffffffffffffffff168173ffffffffffffffffffffffffffffffffffffffff167f8be0079c531659141344cd1fd0a4f28419497f9722a3daafe3b4186f6b6457e060405160405180910390a35050565b82805462000322906200050a565b90600052602060002090601f01602090048101928262000346576000855562000392565b82601f106200036157805160ff191683800117855562000392565b8280016001018555821562000392579182015b828111156200039157825182559160200191906001019062000374565b5b509050620003a19190620003a5565b5090565b5b80821115620003c0576000816000905550600101620003a6565b5090565b600080fd5b600073ffffffffffffffffffffffffffffffffffffffff82169050919050565b6000620003f682620003c9565b9050919050565b6200040881620003e9565b81146200041457600080fd5b50565b6000815190506200042881620003fd565b92915050565b6000819050919050565b62000443816200042e565b81146200044f57600080fd5b50565b600081519050620004638162000438565b92915050565b60008060008060808587031215620004865762000485620003c4565b5b6000620004968782880162000417565b9450506020620004a98782880162000417565b9350506040620004bc8782880162000452565b9250506060620004cf8782880162000417565b91505092959194509250565b7f4e487b7100000000000000000000000000000000000000000000000000000000600052602260045260246000fd5b600060028204905060018216806200052357607f821691505b602082108114156200053a5762000539620004db565b5b50919050565b60805160a0516146c462000574600039600081816113d70152611d8d0152600081816109ea0152611d5101526146c46000f3fe608060405234801561001057600080fd5b50600436106101e55760003560e01c806362d36dec1161010f57806394985ddd116100a2578063c87b56dd11610071578063c87b56dd146105c8578063de6d5667146105f8578063e985e9c514610628578063f2fde38b14610658576101e5565b806394985ddd1461055657806395d89b4114610572578063a22cb46514610590578063b88d4fde146105ac576101e5565b8063715018a6116100de578063715018a6146104e057806386481d40146104ea5780638da5cb5b1461051a5780638e15f47314610538576101e5565b806362d36dec1461042c5780636352211e1461044a5780636fe0c0461461047a57806370a08231146104b0576101e5565b8063274ac0c31161018757806342842e0e1161015657806342842e0e146103885780634810bc59146103a45780634f8e2fdf146103db5780634f95b5f0146103f9576101e5565b8063274ac0c3146102ec57806333b608631461031c5780633bb3a24d1461033a57806342619f661461036a576101e5565b8063095ea7b3116101c3578063095ea7b314610268578063162094c4146102845780631a65e8ab146102a057806323b872dd146102d0576101e5565b806301ffc9a7146101ea57806306fdde031461021a578063081812fc14610238575b600080fd5b61020460048036038101906101ff9190612c86565b610674565b6040516102119190612cce565b60405180910390f35b610222610756565b60405161022f9190612d82565b60405180910390f35b610252600480360381019061024d9190612dda565b6107e8565b60405161025f9190612e48565b60405180910390f35b610282600480360381019061027d9190612e8f565b61086d565b005b61029e60048036038101906102999190613004565b610985565b005b6102ba60048036038101906102b59190613060565b6109e3565b6040516102c791906130c2565b60405180910390f35b6102ea60048036038101906102e591906130dd565b610b94565b005b6103066004803603810190610301919061315c565b610bf4565b6040516103139190612e48565b60405180910390f35b610324610c27565b6040516103319190612e48565b60405180910390f35b610354600480360381019061034f9190612dda565b610c4d565b6040516103619190612d82565b60405180910390f35b610372610c5f565b60405161037f9190613198565b60405180910390f35b6103a2600480360381019061039d91906130dd565b610c65565b005b6103be60048036038101906103b99190612dda565b610c85565b6040516103d29897969594939291906131cc565b60405180910390f35b6103e3610d65565b6040516103f09190612e48565b60405180910390f35b610413600480360381019061040e9190612dda565b610d8b565b6040516104239493929190613251565b60405180910390f35b610434610f97565b6040516104419190613198565b60405180910390f35b610464600480360381019061045f9190612dda565b610fa4565b6040516104719190612e48565b60405180910390f35b610494600480360381019061048f9190612dda565b611056565b6040516104a7979695949392919061329d565b60405180910390f35b6104ca60048036038101906104c5919061330c565b611184565b6040516104d79190613198565b60405180910390f35b6104e861123c565b005b61050460048036038101906104ff9190612dda565b6112c4565b6040516105119190613198565b60405180910390f35b6105226112fb565b60405161052f9190612e48565b60405180910390f35b610540611325565b60405161054d9190613339565b60405180910390f35b610570600480360381019061056b9190613354565b6113d5565b005b61057a611471565b6040516105879190612d82565b60405180910390f35b6105aa60048036038101906105a591906133c0565b611503565b005b6105c660048036038101906105c191906134a1565b611684565b005b6105e260048036038101906105dd9190612dda565b6116e6565b6040516105ef9190612d82565b60405180910390f35b610612600480360381019061060d919061315c565b611838565b60405161061f9190612d82565b60405180910390f35b610642600480360381019061063d9190613524565b6118d8565b60405161064f9190612cce565b60405180910390f35b610672600480360381019061066d919061330c565b61196c565b005b60007f80ac58cd000000000000000000000000000000000000000000000000000000007bffffffffffffffffffffffffffffffffffffffffffffffffffffffff1916827bffffffffffffffffffffffffffffffffffffffffffffffffffffffff1916148061073f57507f5b5e139f000000000000000000000000000000000000000000000000000000007bffffffffffffffffffffffffffffffffffffffffffffffffffffffff1916827bffffffffffffffffffffffffffffffffffffffffffffffffffffffff1916145b8061074f575061074e82611a64565b5b9050919050565b60606000805461076590613593565b80601f016020809104026020016040519081016040528092919081815260200182805461079190613593565b80156107de5780601f106107b3576101008083540402835291602001916107de565b820191906000526020600020905b8154815290600101906020018083116107c157829003601f168201915b5050505050905090565b60006107f382611ace565b610832576040517f08c379a000000000000000000000000000000000000000000000000000000000815260040161082990613637565b60405180910390fd5b6004600083815260200190815260200160002060009054906101000a900473ffffffffffffffffffffffffffffffffffffffff169050919050565b600061087882610fa4565b90508073ffffffffffffffffffffffffffffffffffffffff168373ffffffffffffffffffffffffffffffffffffffff1614156108e9576040517f08c379a00000000000000000000000000000000000000000000000000000000081526004016108e0906136c9565b60405180910390fd5b8073ffffffffffffffffffffffffffffffffffffffff16610908611b3a565b73ffffffffffffffffffffffffffffffffffffffff161480610937575061093681610931611b3a565b6118d8565b5b610976576040517f08c379a000000000000000000000000000000000000000000000000000000000815260040161096d9061375b565b60405180910390fd5b6109808383611b42565b505050565b610996610990611b3a565b83611bfb565b6109d5576040517f08c379a00000000000000000000000000000000000000000000000000000000081526004016109cc906137ed565b60405180910390fd5b6109df8282611cd9565b5050565b6000600b547f000000000000000000000000000000000000000000000000000000000000000073ffffffffffffffffffffffffffffffffffffffff166370a08231306040518263ffffffff1660e01b8152600401610a419190612e48565b60206040518083038186803b158015610a5957600080fd5b505afa158015610a6d573d6000803e3d6000fd5b505050506040513d601f19601f82011682018060405250810190610a919190613822565b1015610ad2576040517f08c379a0000000000000000000000000000000000000000000000000000000008152600401610ac9906138c1565b60405180910390fd5b6000610ae2600a54600b54611d4d565b905082601060008381526020019081526020016000209080519060200190610b0b929190612b77565b50336011600083815260200190815260200160002060006101000a81548173ffffffffffffffffffffffffffffffffffffffff021916908373ffffffffffffffffffffffffffffffffffffffff160217905550807fae43951bb2a1ed0b4a9a572e125cad10aa9f8cb508a52f32e6c3bcbdc434ed8e60405160405180910390a280915050919050565b610ba5610b9f611b3a565b82611bfb565b610be4576040517f08c379a0000000000000000000000000000000000000000000000000000000008152600401610bdb906137ed565b60405180910390fd5b610bef838383611eaf565b505050565b60116020528060005260406000206000915054906101000a900473ffffffffffffffffffffffffffffffffffffffff1681565b600d60009054906101000a900473ffffffffffffffffffffffffffffffffffffffff1681565b6060610c58826116e6565b9050919050565b600c5481565b610c8083838360405180602001604052806000815250611684565b505050565b600f8181548110610c9557600080fd5b9060005260206000209060080201600091509050806000015490806001015490806002015490806003015490806004015490806005015490806006015490806007018054610ce290613593565b80601f0160208091040260200160405190810160405280929190818152602001828054610d0e90613593565b8015610d5b5780601f10610d3057610100808354040283529160200191610d5b565b820191906000526020600020905b815481529060010190602001808311610d3e57829003601f168201915b5050505050905088565b600e60009054906101000a900473ffffffffffffffffffffffffffffffffffffffff1681565b60606000806000600f8581548110610da657610da56138e1565b5b9060005260206000209060080201600701600f8681548110610dcb57610dca6138e1565b5b906000526020600020906008020160050154600f8781548110610df157610df06138e1565b5b906000526020600020906008020160040154600f8881548110610e1757610e166138e1565b5b906000526020600020906008020160030154600f8981548110610e3d57610e3c6138e1565b5b906000526020600020906008020160020154600f8a81548110610e6357610e626138e1565b5b906000526020600020906008020160010154600f8b81548110610e8957610e886138e1565b5b906000526020600020906008020160000154610ea5919061393f565b610eaf919061393f565b610eb9919061393f565b610ec3919061393f565b610ecd919061393f565b610ed6876112c4565b600f8881548110610eea57610ee96138e1565b5b906000526020600020906008020160060154838054610f0890613593565b80601f0160208091040260200160405190810160405280929190818152602001828054610f3490613593565b8015610f815780601f10610f5657610100808354040283529160200191610f81565b820191906000526020600020905b815481529060010190602001808311610f6457829003601f168201915b5050505050935093509350935093509193509193565b6000600f80549050905090565b6000806002600084815260200190815260200160002060009054906101000a900473ffffffffffffffffffffffffffffffffffffffff169050600073ffffffffffffffffffffffffffffffffffffffff168173ffffffffffffffffffffffffffffffffffffffff16141561104d576040517f08c379a000000000000000000000000000000000000000000000000000000000815260040161104490613a07565b60405180910390fd5b80915050919050565b6000806000806000806000600f8881548110611075576110746138e1565b5b906000526020600020906008020160000154600f898154811061109b5761109a6138e1565b5b906000526020600020906008020160010154600f8a815481106110c1576110c06138e1565b5b906000526020600020906008020160020154600f8b815481106110e7576110e66138e1565b5b906000526020600020906008020160030154600f8c8154811061110d5761110c6138e1565b5b906000526020600020906008020160040154600f8d81548110611133576111326138e1565b5b906000526020600020906008020160050154600f8e81548110611159576111586138e1565b5b9060005260206000209060080201600601549650965096509650965096509650919395979092949650565b60008073ffffffffffffffffffffffffffffffffffffffff168273ffffffffffffffffffffffffffffffffffffffff1614156111f5576040517f08c379a00000000000000000000000000000000000000000000000000000000081526004016111ec90613a99565b60405180910390fd5b600360008373ffffffffffffffffffffffffffffffffffffffff1673ffffffffffffffffffffffffffffffffffffffff168152602001908152602001600020549050919050565b611244611b3a565b73ffffffffffffffffffffffffffffffffffffffff166112626112fb565b73ffffffffffffffffffffffffffffffffffffffff16146112b8576040517f08c379a00000000000000000000000000000000000000000000000000000000081526004016112af90613b05565b60405180910390fd5b6112c2600061210b565b565b60006112f4600f83815481106112dd576112dc6138e1565b5b9060005260206000209060080201600601546121d1565b9050919050565b6000600860009054906101000a900473ffffffffffffffffffffffffffffffffffffffff16905090565b600080600960009054906101000a900473ffffffffffffffffffffffffffffffffffffffff1673ffffffffffffffffffffffffffffffffffffffff1663feaf968c6040518163ffffffff1660e01b815260040160a06040518083038186803b15801561139057600080fd5b505afa1580156113a4573d6000803e3d6000fd5b505050506040513d601f19601f820116820180604052508101906113c89190613b93565b5050509150508091505090565b7f000000000000000000000000000000000000000000000000000000000000000073ffffffffffffffffffffffffffffffffffffffff163373ffffffffffffffffffffffffffffffffffffffff1614611463576040517f08c379a000000000000000000000000000000000000000000000000000000000815260040161145a90613c5a565b60405180910390fd5b61146d828261222e565b5050565b60606001805461148090613593565b80601f01602080910402602001604051908101604052809291908181526020018280546114ac90613593565b80156114f95780601f106114ce576101008083540402835291602001916114f9565b820191906000526020600020905b8154815290600101906020018083116114dc57829003601f168201915b5050505050905090565b61150b611b3a565b73ffffffffffffffffffffffffffffffffffffffff168273ffffffffffffffffffffffffffffffffffffffff161415611579576040517f08c379a000000000000000000000000000000000000000000000000000000000815260040161157090613cc6565b60405180910390fd5b8060056000611586611b3a565b73ffffffffffffffffffffffffffffffffffffffff1673ffffffffffffffffffffffffffffffffffffffff16815260200190815260200160002060008473ffffffffffffffffffffffffffffffffffffffff1673ffffffffffffffffffffffffffffffffffffffff16815260200190815260200160002060006101000a81548160ff0219169083151502179055508173ffffffffffffffffffffffffffffffffffffffff16611633611b3a565b73ffffffffffffffffffffffffffffffffffffffff167f17307eab39ab6107e8899845ad3d59bd9653f200f220920489ca2b5937696c31836040516116789190612cce565b60405180910390a35050565b61169561168f611b3a565b83611bfb565b6116d4576040517f08c379a00000000000000000000000000000000000000000000000000000000081526004016116cb906137ed565b60405180910390fd5b6116e084848484612455565b50505050565b60606116f182611ace565b611730576040517f08c379a000000000000000000000000000000000000000000000000000000000815260040161172790613d58565b60405180910390fd5b600060066000848152602001908152602001600020805461175090613593565b80601f016020809104026020016040519081016040528092919081815260200182805461177c90613593565b80156117c95780601f1061179e576101008083540402835291602001916117c9565b820191906000526020600020905b8154815290600101906020018083116117ac57829003601f168201915b5050505050905060006117da6124b1565b90506000815114156117f0578192505050611833565b60008251111561182557808260405160200161180d929190613db4565b60405160208183030381529060405292505050611833565b61182e846124c8565b925050505b919050565b6010602052806000526040600020600091509050805461185790613593565b80601f016020809104026020016040519081016040528092919081815260200182805461188390613593565b80156118d05780601f106118a5576101008083540402835291602001916118d0565b820191906000526020600020905b8154815290600101906020018083116118b357829003601f168201915b505050505081565b6000600560008473ffffffffffffffffffffffffffffffffffffffff1673ffffffffffffffffffffffffffffffffffffffff16815260200190815260200160002060008373ffffffffffffffffffffffffffffffffffffffff1673ffffffffffffffffffffffffffffffffffffffff16815260200190815260200160002060009054906101000a900460ff16905092915050565b611974611b3a565b73ffffffffffffffffffffffffffffffffffffffff166119926112fb565b73ffffffffffffffffffffffffffffffffffffffff16146119e8576040517f08c379a00000000000000000000000000000000000000000000000000000000081526004016119df90613b05565b60405180910390fd5b600073ffffffffffffffffffffffffffffffffffffffff168173ffffffffffffffffffffffffffffffffffffffff161415611a58576040517f08c379a0000000000000000000000000000000000000000000000000000000008152600401611a4f90613e4a565b60405180910390fd5b611a618161210b565b50565b60007f01ffc9a7000000000000000000000000000000000000000000000000000000007bffffffffffffffffffffffffffffffffffffffffffffffffffffffff1916827bffffffffffffffffffffffffffffffffffffffffffffffffffffffff1916149050919050565b60008073ffffffffffffffffffffffffffffffffffffffff166002600084815260200190815260200160002060009054906101000a900473ffffffffffffffffffffffffffffffffffffffff1673ffffffffffffffffffffffffffffffffffffffff1614159050919050565b600033905090565b816004600083815260200190815260200160002060006101000a81548173ffffffffffffffffffffffffffffffffffffffff021916908373ffffffffffffffffffffffffffffffffffffffff160217905550808273ffffffffffffffffffffffffffffffffffffffff16611bb583610fa4565b73ffffffffffffffffffffffffffffffffffffffff167f8c5be1e5ebec7d5bd14f71427d1e84f3dd0314c0f7b2291e5b200ac8c7c3b92560405160405180910390a45050565b6000611c0682611ace565b611c45576040517f08c379a0000000000000000000000000000000000000000000000000000000008152600401611c3c90613edc565b60405180910390fd5b6000611c5083610fa4565b90508073ffffffffffffffffffffffffffffffffffffffff168473ffffffffffffffffffffffffffffffffffffffff161480611cbf57508373ffffffffffffffffffffffffffffffffffffffff16611ca7846107e8565b73ffffffffffffffffffffffffffffffffffffffff16145b80611cd05750611ccf81856118d8565b5b91505092915050565b611ce282611ace565b611d21576040517f08c379a0000000000000000000000000000000000000000000000000000000008152600401611d1890613f6e565b60405180910390fd5b80600660008481526020019081526020016000209080519060200190611d48929190612b77565b505050565b60007f000000000000000000000000000000000000000000000000000000000000000073ffffffffffffffffffffffffffffffffffffffff16634000aea07f000000000000000000000000000000000000000000000000000000000000000084866000604051602001611dc1929190613f8e565b6040516020818303038152906040526040518463ffffffff1660e01b8152600401611dee9392919061400c565b602060405180830381600087803b158015611e0857600080fd5b505af1158015611e1c573d6000803e3d6000fd5b505050506040513d601f19601f82011682018060405250810190611e40919061405f565b506000611e6384600030600760008981526020019081526020016000205461256f565b905060016007600086815260200190815260200160002054611e85919061393f565b6007600086815260200190815260200160002081905550611ea684826125ab565b91505092915050565b8273ffffffffffffffffffffffffffffffffffffffff16611ecf82610fa4565b73ffffffffffffffffffffffffffffffffffffffff1614611f25576040517f08c379a0000000000000000000000000000000000000000000000000000000008152600401611f1c906140fe565b60405180910390fd5b600073ffffffffffffffffffffffffffffffffffffffff168273ffffffffffffffffffffffffffffffffffffffff161415611f95576040517f08c379a0000000000000000000000000000000000000000000000000000000008152600401611f8c90614190565b60405180910390fd5b611fa08383836125de565b611fab600082611b42565b6001600360008573ffffffffffffffffffffffffffffffffffffffff1673ffffffffffffffffffffffffffffffffffffffff1681526020019081526020016000206000828254611ffb91906141b0565b925050819055506001600360008473ffffffffffffffffffffffffffffffffffffffff1673ffffffffffffffffffffffffffffffffffffffff1681526020019081526020016000206000828254612052919061393f565b92505081905550816002600083815260200190815260200160002060006101000a81548173ffffffffffffffffffffffffffffffffffffffff021916908373ffffffffffffffffffffffffffffffffffffffff160217905550808273ffffffffffffffffffffffffffffffffffffffff168473ffffffffffffffffffffffffffffffffffffffff167fddf252ad1be2c89b69c2b068fc378daa952ba7f163c4a11628f55a4df523b3ef60405160405180910390a4505050565b6000600860009054906101000a900473ffffffffffffffffffffffffffffffffffffffff16905081600860006101000a81548173ffffffffffffffffffffffffffffffffffffffff021916908373ffffffffffffffffffffffffffffffffffffffff1602179055508173ffffffffffffffffffffffffffffffffffffffff168173ffffffffffffffffffffffffffffffffffffffff167f8be0079c531659141344cd1fd0a4f28419497f9722a3daafe3b4186f6b6457e060405160405180910390a35050565b60008060026001846121e3919061393f565b6121ed9190614213565b90508291505b8181101561222857809150600281828561220d9190614213565b612217919061393f565b6122219190614213565b90506121f3565b50919050565b6000600f8054905090506000633b9aca00612247611325565b6122519190614244565b9050600060648461226291906142ae565b905060006122718560016125e3565b905060006122808660026125e3565b9050600061228f8760036125e3565b9050600061229e8860046125e3565b9050600080604051806101000160405280898152602001888152602001878152602001868152602001858152602001848152602001838152602001601060008e815260200190815260200160002080546122f790613593565b80601f016020809104026020016040519081016040528092919081815260200182805461232390613593565b80156123705780601f1061234557610100808354040283529160200191612370565b820191906000526020600020905b81548152906001019060200180831161235357829003601f168201915b50505050508152509050600f819080600181540180825580915050600190039060005260206000209060080201600090919091909150600082015181600001556020820151816001015560408201518160020155606082015181600301556080820151816004015560a0820151816005015560c0820151816006015560e0820151816007019080519060200190612408929190612b77565b505050612448601160008d815260200190815260200160002060009054906101000a900473ffffffffffffffffffffffffffffffffffffffff168a612625565b5050505050505050505050565b612460848484611eaf565b61246c84848484612643565b6124ab576040517f08c379a00000000000000000000000000000000000000000000000000000000081526004016124a290614351565b60405180910390fd5b50505050565b606060405180602001604052806000815250905090565b60606124d382611ace565b612512576040517f08c379a0000000000000000000000000000000000000000000000000000000008152600401612509906143e3565b60405180910390fd5b600061251c6124b1565b9050600081511161253c5760405180602001604052806000815250612567565b80612546846127da565b604051602001612557929190613db4565b6040516020818303038152906040525b915050919050565b6000848484846040516020016125889493929190614403565b6040516020818303038152906040528051906020012060001c9050949350505050565b600082826040516020016125c092919061448a565b60405160208183030381529060405280519060200120905092915050565b505050565b6000606483836040516020016125fa9291906144b6565b6040516020818303038152906040528051906020012060001c61261d91906142ae565b905092915050565b61263f82826040518060200160405280600081525061293b565b5050565b60006126648473ffffffffffffffffffffffffffffffffffffffff16612996565b156127cd578373ffffffffffffffffffffffffffffffffffffffff1663150b7a0261268d611b3a565b8786866040518563ffffffff1660e01b81526004016126af94939291906144df565b602060405180830381600087803b1580156126c957600080fd5b505af19250505080156126fa57506040513d601f19601f820116820180604052508101906126f79190614540565b60015b61277d573d806000811461272a576040519150601f19603f3d011682016040523d82523d6000602084013e61272f565b606091505b50600081511415612775576040517f08c379a000000000000000000000000000000000000000000000000000000000815260040161276c90614351565b60405180910390fd5b805181602001fd5b63150b7a0260e01b7bffffffffffffffffffffffffffffffffffffffffffffffffffffffff1916817bffffffffffffffffffffffffffffffffffffffffffffffffffffffff1916149150506127d2565b600190505b949350505050565b60606000821415612822576040518060400160405280600181526020017f30000000000000000000000000000000000000000000000000000000000000008152509050612936565b600082905060005b6000821461285457808061283d9061456d565b915050600a8261284d9190614213565b915061282a565b60008167ffffffffffffffff8111156128705761286f612ed9565b5b6040519080825280601f01601f1916602001820160405280156128a25781602001600182028036833780820191505090505b5090505b6000851461292f576001826128bb91906141b0565b9150600a856128ca91906142ae565b60306128d6919061393f565b60f81b8183815181106128ec576128eb6138e1565b5b60200101907effffffffffffffffffffffffffffffffffffffffffffffffffffffffffffff1916908160001a905350600a856129289190614213565b94506128a6565b8093505050505b919050565b61294583836129a9565b6129526000848484612643565b612991576040517f08c379a000000000000000000000000000000000000000000000000000000000815260040161298890614351565b60405180910390fd5b505050565b600080823b905060008111915050919050565b600073ffffffffffffffffffffffffffffffffffffffff168273ffffffffffffffffffffffffffffffffffffffff161415612a19576040517f08c379a0000000000000000000000000000000000000000000000000000000008152600401612a1090614602565b60405180910390fd5b612a2281611ace565b15612a62576040517f08c379a0000000000000000000000000000000000000000000000000000000008152600401612a599061466e565b60405180910390fd5b612a6e600083836125de565b6001600360008473ffffffffffffffffffffffffffffffffffffffff1673ffffffffffffffffffffffffffffffffffffffff1681526020019081526020016000206000828254612abe919061393f565b92505081905550816002600083815260200190815260200160002060006101000a81548173ffffffffffffffffffffffffffffffffffffffff021916908373ffffffffffffffffffffffffffffffffffffffff160217905550808273ffffffffffffffffffffffffffffffffffffffff16600073ffffffffffffffffffffffffffffffffffffffff167fddf252ad1be2c89b69c2b068fc378daa952ba7f163c4a11628f55a4df523b3ef60405160405180910390a45050565b828054612b8390613593565b90600052602060002090601f016020900481019282612ba55760008555612bec565b82601f10612bbe57805160ff1916838001178555612bec565b82800160010185558215612bec579182015b82811115612beb578251825591602001919060010190612bd0565b5b509050612bf99190612bfd565b5090565b5b80821115612c16576000816000905550600101612bfe565b5090565b6000604051905090565b600080fd5b600080fd5b60007fffffffff0000000000000000000000000000000000000000000000000000000082169050919050565b612c6381612c2e565b8114612c6e57600080fd5b50565b600081359050612c8081612c5a565b92915050565b600060208284031215612c9c57612c9b612c24565b5b6000612caa84828501612c71565b91505092915050565b60008115159050919050565b612cc881612cb3565b82525050565b6000602082019050612ce36000830184612cbf565b92915050565b600081519050919050565b600082825260208201905092915050565b60005b83811015612d23578082015181840152602081019050612d08565b83811115612d32576000848401525b50505050565b6000601f19601f8301169050919050565b6000612d5482612ce9565b612d5e8185612cf4565b9350612d6e818560208601612d05565b612d7781612d38565b840191505092915050565b60006020820190508181036000830152612d9c8184612d49565b905092915050565b6000819050919050565b612db781612da4565b8114612dc257600080fd5b50565b600081359050612dd481612dae565b92915050565b600060208284031215612df057612def612c24565b5b6000612dfe84828501612dc5565b91505092915050565b600073ffffffffffffffffffffffffffffffffffffffff82169050919050565b6000612e3282612e07565b9050919050565b612e4281612e27565b82525050565b6000602082019050612e5d6000830184612e39565b92915050565b612e6c81612e27565b8114612e7757600080fd5b50565b600081359050612e8981612e63565b92915050565b60008060408385031215612ea657612ea5612c24565b5b6000612eb485828601612e7a565b9250506020612ec585828601612dc5565b9150509250929050565b600080fd5b600080fd5b7f4e487b7100000000000000000000000000000000000000000000000000000000600052604160045260246000fd5b612f1182612d38565b810181811067ffffffffffffffff82111715612f3057612f2f612ed9565b5b80604052505050565b6000612f43612c1a565b9050612f4f8282612f08565b919050565b600067ffffffffffffffff821115612f6f57612f6e612ed9565b5b612f7882612d38565b9050602081019050919050565b82818337600083830152505050565b6000612fa7612fa284612f54565b612f39565b905082815260208101848484011115612fc357612fc2612ed4565b5b612fce848285612f85565b509392505050565b600082601f830112612feb57612fea612ecf565b5b8135612ffb848260208601612f94565b91505092915050565b6000806040838503121561301b5761301a612c24565b5b600061302985828601612dc5565b925050602083013567ffffffffffffffff81111561304a57613049612c29565b5b61305685828601612fd6565b9150509250929050565b60006020828403121561307657613075612c24565b5b600082013567ffffffffffffffff81111561309457613093612c29565b5b6130a084828501612fd6565b91505092915050565b6000819050919050565b6130bc816130a9565b82525050565b60006020820190506130d760008301846130b3565b92915050565b6000806000606084860312156130f6576130f5612c24565b5b600061310486828701612e7a565b935050602061311586828701612e7a565b925050604061312686828701612dc5565b9150509250925092565b613139816130a9565b811461314457600080fd5b50565b60008135905061315681613130565b92915050565b60006020828403121561317257613171612c24565b5b600061318084828501613147565b91505092915050565b61319281612da4565b82525050565b60006020820190506131ad6000830184613189565b92915050565b6000819050919050565b6131c6816131b3565b82525050565b6000610100820190506131e2600083018b6131bd565b6131ef602083018a613189565b6131fc6040830189613189565b6132096060830188613189565b6132166080830187613189565b61322360a0830186613189565b61323060c0830185613189565b81810360e08301526132428184612d49565b90509998505050505050505050565b6000608082019050818103600083015261326b8187612d49565b905061327a6020830186613189565b6132876040830185613189565b6132946060830184613189565b95945050505050565b600060e0820190506132b2600083018a6131bd565b6132bf6020830189613189565b6132cc6040830188613189565b6132d96060830187613189565b6132e66080830186613189565b6132f360a0830185613189565b61330060c0830184613189565b98975050505050505050565b60006020828403121561332257613321612c24565b5b600061333084828501612e7a565b91505092915050565b600060208201905061334e60008301846131bd565b92915050565b6000806040838503121561336b5761336a612c24565b5b600061337985828601613147565b925050602061338a85828601612dc5565b9150509250929050565b61339d81612cb3565b81146133a857600080fd5b50565b6000813590506133ba81613394565b92915050565b600080604083850312156133d7576133d6612c24565b5b60006133e585828601612e7a565b92505060206133f6858286016133ab565b9150509250929050565b600067ffffffffffffffff82111561341b5761341a612ed9565b5b61342482612d38565b9050602081019050919050565b600061344461343f84613400565b612f39565b9050828152602081018484840111156134605761345f612ed4565b5b61346b848285612f85565b509392505050565b600082601f83011261348857613487612ecf565b5b8135613498848260208601613431565b91505092915050565b600080600080608085870312156134bb576134ba612c24565b5b60006134c987828801612e7a565b94505060206134da87828801612e7a565b93505060406134eb87828801612dc5565b925050606085013567ffffffffffffffff81111561350c5761350b612c29565b5b61351887828801613473565b91505092959194509250565b6000806040838503121561353b5761353a612c24565b5b600061354985828601612e7a565b925050602061355a85828601612e7a565b9150509250929050565b7f4e487b7100000000000000000000000000000000000000000000000000000000600052602260045260246000fd5b600060028204905060018216806135ab57607f821691505b602082108114156135bf576135be613564565b5b50919050565b7f4552433732313a20617070726f76656420717565727920666f72206e6f6e657860008201527f697374656e7420746f6b656e0000000000000000000000000000000000000000602082015250565b6000613621602c83612cf4565b915061362c826135c5565b604082019050919050565b6000602082019050818103600083015261365081613614565b9050919050565b7f4552433732313a20617070726f76616c20746f2063757272656e74206f776e6560008201527f7200000000000000000000000000000000000000000000000000000000000000602082015250565b60006136b3602183612cf4565b91506136be82613657565b604082019050919050565b600060208201905081810360008301526136e2816136a6565b9050919050565b7f4552433732313a20617070726f76652063616c6c6572206973206e6f74206f7760008201527f6e6572206e6f7220617070726f76656420666f7220616c6c0000000000000000602082015250565b6000613745603883612cf4565b9150613750826136e9565b604082019050919050565b6000602082019050818103600083015261377481613738565b9050919050565b7f4552433732313a207472616e736665722063616c6c6572206973206e6f74206f60008201527f776e6572206e6f7220617070726f766564000000000000000000000000000000602082015250565b60006137d7603183612cf4565b91506137e28261377b565b604082019050919050565b60006020820190508181036000830152613806816137ca565b9050919050565b60008151905061381c81612dae565b92915050565b60006020828403121561383857613837612c24565b5b60006138468482850161380d565b91505092915050565b7f4e6f7420656e6f756768204c494e4b202d2066696c6c20636f6e74726163742060008201527f7769746820666175636574000000000000000000000000000000000000000000602082015250565b60006138ab602b83612cf4565b91506138b68261384f565b604082019050919050565b600060208201905081810360008301526138da8161389e565b9050919050565b7f4e487b7100000000000000000000000000000000000000000000000000000000600052603260045260246000fd5b7f4e487b7100000000000000000000000000000000000000000000000000000000600052601160045260246000fd5b600061394a82612da4565b915061395583612da4565b9250827fffffffffffffffffffffffffffffffffffffffffffffffffffffffffffffffff0382111561398a57613989613910565b5b828201905092915050565b7f4552433732313a206f776e657220717565727920666f72206e6f6e657869737460008201527f656e7420746f6b656e0000000000000000000000000000000000000000000000602082015250565b60006139f1602983612cf4565b91506139fc82613995565b604082019050919050565b60006020820190508181036000830152613a20816139e4565b9050919050565b7f4552433732313a2062616c616e636520717565727920666f7220746865207a6560008201527f726f206164647265737300000000000000000000000000000000000000000000602082015250565b6000613a83602a83612cf4565b9150613a8e82613a27565b604082019050919050565b60006020820190508181036000830152613ab281613a76565b9050919050565b7f4f776e61626c653a2063616c6c6572206973206e6f7420746865206f776e6572600082015250565b6000613aef602083612cf4565b9150613afa82613ab9565b602082019050919050565b60006020820190508181036000830152613b1e81613ae2565b9050919050565b600069ffffffffffffffffffff82169050919050565b613b4481613b25565b8114613b4f57600080fd5b50565b600081519050613b6181613b3b565b92915050565b613b70816131b3565b8114613b7b57600080fd5b50565b600081519050613b8d81613b67565b92915050565b600080600080600060a08688031215613baf57613bae612c24565b5b6000613bbd88828901613b52565b9550506020613bce88828901613b7e565b9450506040613bdf8882890161380d565b9350506060613bf08882890161380d565b9250506080613c0188828901613b52565b9150509295509295909350565b7f4f6e6c7920565246436f6f7264696e61746f722063616e2066756c66696c6c00600082015250565b6000613c44601f83612cf4565b9150613c4f82613c0e565b602082019050919050565b60006020820190508181036000830152613c7381613c37565b9050919050565b7f4552433732313a20617070726f766520746f2063616c6c657200000000000000600082015250565b6000613cb0601983612cf4565b9150613cbb82613c7a565b602082019050919050565b60006020820190508181036000830152613cdf81613ca3565b9050919050565b7f45524337323155524953746f726167653a2055524920717565727920666f722060008201527f6e6f6e6578697374656e7420746f6b656e000000000000000000000000000000602082015250565b6000613d42603183612cf4565b9150613d4d82613ce6565b604082019050919050565b60006020820190508181036000830152613d7181613d35565b9050919050565b600081905092915050565b6000613d8e82612ce9565b613d988185613d78565b9350613da8818560208601612d05565b80840191505092915050565b6000613dc08285613d83565b9150613dcc8284613d83565b91508190509392505050565b7f4f776e61626c653a206e6577206f776e657220697320746865207a65726f206160008201527f6464726573730000000000000000000000000000000000000000000000000000602082015250565b6000613e34602683612cf4565b9150613e3f82613dd8565b604082019050919050565b60006020820190508181036000830152613e6381613e27565b9050919050565b7f4552433732313a206f70657261746f7220717565727920666f72206e6f6e657860008201527f697374656e7420746f6b656e0000000000000000000000000000000000000000602082015250565b6000613ec6602c83612cf4565b9150613ed182613e6a565b604082019050919050565b60006020820190508181036000830152613ef581613eb9565b9050919050565b7f45524337323155524953746f726167653a2055524920736574206f66206e6f6e60008201527f6578697374656e7420746f6b656e000000000000000000000000000000000000602082015250565b6000613f58602e83612cf4565b9150613f6382613efc565b604082019050919050565b60006020820190508181036000830152613f8781613f4b565b9050919050565b6000604082019050613fa360008301856130b3565b613fb06020830184613189565b9392505050565b600081519050919050565b600082825260208201905092915050565b6000613fde82613fb7565b613fe88185613fc2565b9350613ff8818560208601612d05565b61400181612d38565b840191505092915050565b60006060820190506140216000830186612e39565b61402e6020830185613189565b81810360408301526140408184613fd3565b9050949350505050565b60008151905061405981613394565b92915050565b60006020828403121561407557614074612c24565b5b60006140838482850161404a565b91505092915050565b7f4552433732313a207472616e73666572206f6620746f6b656e2074686174206960008201527f73206e6f74206f776e0000000000000000000000000000000000000000000000602082015250565b60006140e8602983612cf4565b91506140f38261408c565b604082019050919050565b60006020820190508181036000830152614117816140db565b9050919050565b7f4552433732313a207472616e7366657220746f20746865207a65726f2061646460008201527f7265737300000000000000000000000000000000000000000000000000000000602082015250565b600061417a602483612cf4565b91506141858261411e565b604082019050919050565b600060208201905081810360008301526141a98161416d565b9050919050565b60006141bb82612da4565b91506141c683612da4565b9250828210156141d9576141d8613910565b5b828203905092915050565b7f4e487b7100000000000000000000000000000000000000000000000000000000600052601260045260246000fd5b600061421e82612da4565b915061422983612da4565b925082614239576142386141e4565b5b828204905092915050565b600061424f826131b3565b915061425a836131b3565b92508261426a576142696141e4565b5b600160000383147f8000000000000000000000000000000000000000000000000000000000000000831416156142a3576142a2613910565b5b828205905092915050565b60006142b982612da4565b91506142c483612da4565b9250826142d4576142d36141e4565b5b828206905092915050565b7f4552433732313a207472616e7366657220746f206e6f6e20455243373231526560008201527f63656976657220696d706c656d656e7465720000000000000000000000000000602082015250565b600061433b603283612cf4565b9150614346826142df565b604082019050919050565b6000602082019050818103600083015261436a8161432e565b9050919050565b7f4552433732314d657461646174613a2055524920717565727920666f72206e6f60008201527f6e6578697374656e7420746f6b656e0000000000000000000000000000000000602082015250565b60006143cd602f83612cf4565b91506143d882614371565b604082019050919050565b600060208201905081810360008301526143fc816143c0565b9050919050565b600060808201905061441860008301876130b3565b6144256020830186613189565b6144326040830185612e39565b61443f6060830184613189565b95945050505050565b6000819050919050565b61446361445e826130a9565b614448565b82525050565b6000819050919050565b61448461447f82612da4565b614469565b82525050565b60006144968285614452565b6020820191506144a68284614473565b6020820191508190509392505050565b60006040820190506144cb6000830185613189565b6144d86020830184613189565b9392505050565b60006080820190506144f46000830187612e39565b6145016020830186612e39565b61450e6040830185613189565b81810360608301526145208184613fd3565b905095945050505050565b60008151905061453a81612c5a565b92915050565b60006020828403121561455657614555612c24565b5b60006145648482850161452b565b91505092915050565b600061457882612da4565b91507fffffffffffffffffffffffffffffffffffffffffffffffffffffffffffffffff8214156145ab576145aa613910565b5b600182019050919050565b7f4552433732313a206d696e7420746f20746865207a65726f2061646472657373600082015250565b60006145ec602083612cf4565b91506145f7826145b6565b602082019050919050565b6000602082019050818103600083015261461b816145df565b9050919050565b7f4552433732313a20746f6b656e20616c7265616479206d696e74656400000000600082015250565b6000614658601c83612cf4565b915061466382614622565b602082019050919050565b600060208201905081810360008301526146878161464b565b905091905056fea264697066735822122091b644d57c95226d6dc95d863c42d83b02850fea43512f547940fc917012740b64736f6c63430008090033",
  "immutableReferences": {
    "596": [
      {
        "length": 32,
        "start": 2538
      },
      {
        "length": 32,
        "start": 7505
      }
    ],
    "598": [
      {
        "length": 32,
        "start": 5079
      },
      {
        "length": 32,
        "start": 7565
      }
    ]
  },
  "source": "// --Are commented to the specs described by NatSpec Solidity documentation: https://docs.soliditylang.org/en/latest/natspec-format.html\n// --Use at least two design patterns from the \"Smart Contracts\" section: https://docs.google.com/document/d/1tthsXLlv5BDXEGUfoP6_MAsL_8_T0sRBNQs_1OnPxak/edit\n// --Protect against two attack vectors from the \"Smart Contracts\" section with its the SWC number: https://docs.google.com/document/d/1tthsXLlv5BDXEGUfoP6_MAsL_8_T0sRBNQs_1OnPxak/edit\n// --Inherits from at least one library or interface\n// --Can be easily compiled, migrated and tested? YES\n// -- use Chainlink Keepers to pull in data and make NFTs dynamic\n\n// SPDX-License-Identifier: MIT\npragma solidity 0.8.9;\n\nimport \"@openzeppelin/contracts/token/ERC721/extensions/ERC721URIStorage.sol\";\nimport \"@chainlink/contracts/src/v0.8/VRFConsumerBase.sol\";\nimport \"@openzeppelin/contracts/access/Ownable.sol\";\nimport \"@openzeppelin/contracts/utils/Strings.sol\";\nimport \"@chainlink/contracts/src/v0.8/interfaces/AggregatorV3Interface.sol\";\n\ncontract DungeonsAndDragonsCharacter is\n    ERC721URIStorage,\n    VRFConsumerBase,\n    Ownable\n{\n    AggregatorV3Interface internal priceFeed;\n    bytes32 internal keyHash;\n    uint256 internal fee;\n    uint256 public randomResult;\n    address public VRFCoordinator;\n    address public LinkToken;\n\n    struct Character {\n        int256 strength;\n        uint256 dexterity;\n        uint256 constitution;\n        uint256 intelligence;\n        uint256 wisdom;\n        uint256 charisma;\n        uint256 experience;\n        string name;\n    }\n\n    Character[] public characters;\n\n    mapping(bytes32 => string) public requestToCharacterName;\n    mapping(bytes32 => address) public requestToSender;\n    mapping(bytes32 => uint256) requestToTokenId;\n\n    event RequestedCharacter(bytes32 indexed requestId);\n\n    constructor(\n        address _VRFCoordinator,\n        address _LinkToken,\n        bytes32 _keyHash,\n        address _priceFeed\n    )\n        VRFConsumerBase(_VRFCoordinator, _LinkToken)\n        ERC721(\"DungeonsAndDragonsCharacter\", \"D&D\")\n    {\n        VRFCoordinator = _VRFCoordinator;\n        priceFeed = AggregatorV3Interface(_priceFeed);\n        LinkToken = _LinkToken;\n        keyHash = _keyHash;\n        fee = 0.1 * 10**18; // 0.1 LINK\n    }\n\n    function requestNewRandomCharacter(string memory name)\n        public\n        returns (bytes32)\n    {\n        require(\n            LINK.balanceOf(address(this)) >= fee,\n            \"Not enough LINK - fill contract with faucet\"\n        );\n        bytes32 requestId = requestRandomness(keyHash, fee);\n        requestToCharacterName[requestId] = name;\n        requestToSender[requestId] = msg.sender;\n        emit RequestedCharacter(requestId);\n        return requestId;\n    }\n\n    function getTokenURI(uint256 tokenId) public view returns (string memory) {\n        return tokenURI(tokenId);\n    }\n\n    function setTokenURI(uint256 tokenId, string memory _tokenURI) public {\n        require(\n            _isApprovedOrOwner(_msgSender(), tokenId),\n            \"ERC721: transfer caller is not owner nor approved\"\n        );\n        _setTokenURI(tokenId, _tokenURI);\n    }\n\n    function fulfillRandomness(bytes32 requestId, uint256 randomNumber)\n        internal\n        override\n    {\n        uint256 id = characters.length;\n        int256 strength = getLatestPrice() / 1000000000;\n        uint256 dexterity = randomNumber % 100;\n        uint256 constitution = getRandomNumber(randomNumber, 1);\n        uint256 intelligence = getRandomNumber(randomNumber, 2);\n        uint256 wisdom = getRandomNumber(randomNumber, 3);\n        uint256 charisma = getRandomNumber(randomNumber, 4);\n        uint256 experience = 0;\n\n        Character memory character = Character(\n            strength,\n            dexterity,\n            constitution,\n            intelligence,\n            wisdom,\n            charisma,\n            experience,\n            requestToCharacterName[requestId]\n        );\n\n        characters.push(character);\n        _safeMint(requestToSender[requestId], id);\n    }\n\n    function getLevel(uint256 tokenId) public view returns (uint256) {\n        return sqrt(characters[tokenId].experience);\n    }\n\n    function getNumberOfCharacters() public view returns (uint256) {\n        return characters.length;\n    }\n\n    function getCharacterOverView(uint256 tokenId)\n        public\n        view\n        returns (\n            string memory,\n            uint256,\n            uint256,\n            uint256\n        )\n    {\n        return (\n            characters[tokenId].name,\n            uint256(characters[tokenId].strength) +\n                characters[tokenId].dexterity +\n                characters[tokenId].constitution +\n                characters[tokenId].intelligence +\n                characters[tokenId].wisdom +\n                characters[tokenId].charisma,\n            getLevel(tokenId),\n            characters[tokenId].experience\n        );\n    }\n\n    function getLatestPrice() public view returns (int256) {\n        (, int256 price, , , ) = priceFeed.latestRoundData();\n        return price;\n    }\n\n    function getRandomNumber(uint256 _randomNumber, uint256 _nonce)\n        private\n        pure\n        returns (uint256)\n    {\n        return uint256(keccak256(abi.encode(_randomNumber, _nonce))) % 100;\n    }\n\n    function getCharacterStats(uint256 tokenId)\n        public\n        view\n        returns (\n            int256,\n            uint256,\n            uint256,\n            uint256,\n            uint256,\n            uint256,\n            uint256\n        )\n    {\n        return (\n            characters[tokenId].strength,\n            characters[tokenId].dexterity,\n            characters[tokenId].constitution,\n            characters[tokenId].intelligence,\n            characters[tokenId].wisdom,\n            characters[tokenId].charisma,\n            characters[tokenId].experience\n        );\n    }\n\n    function sqrt(uint256 x) internal pure returns (uint256 y) {\n        uint256 z = (x + 1) / 2;\n        y = x;\n        while (z < y) {\n            y = z;\n            z = (x / z + z) / 2;\n        }\n    }\n}\n",
  "sourcePath": "/Users/houchia/consensys/blockchain-developer-bootcamp-final-project/eth-contracts/contracts/DungeonsAndDragonsCharacter.sol",
  "compiler": {
    "name": "solc",
    "version": "0.8.9+commit.e5eed63a.Emscripten.clang"
  },
  "schemaVersion": "3.4.1",
  "updatedAt": "2021-11-25T02:13:02.838Z",
  "networkType": "ethereum",
  "devdoc": {
    "kind": "dev",
    "methods": {
      "approve(address,uint256)": {
        "details": "See {IERC721-approve}."
      },
      "balanceOf(address)": {
        "details": "See {IERC721-balanceOf}."
      },
      "getApproved(uint256)": {
        "details": "See {IERC721-getApproved}."
      },
      "isApprovedForAll(address,address)": {
        "details": "See {IERC721-isApprovedForAll}."
      },
      "name()": {
        "details": "See {IERC721Metadata-name}."
      },
      "owner()": {
        "details": "Returns the address of the current owner."
      },
      "ownerOf(uint256)": {
        "details": "See {IERC721-ownerOf}."
      },
      "renounceOwnership()": {
        "details": "Leaves the contract without owner. It will not be possible to call `onlyOwner` functions anymore. Can only be called by the current owner. NOTE: Renouncing ownership will leave the contract without an owner, thereby removing any functionality that is only available to the owner."
      },
      "safeTransferFrom(address,address,uint256)": {
        "details": "See {IERC721-safeTransferFrom}."
      },
      "safeTransferFrom(address,address,uint256,bytes)": {
        "details": "See {IERC721-safeTransferFrom}."
      },
      "setApprovalForAll(address,bool)": {
        "details": "See {IERC721-setApprovalForAll}."
      },
      "supportsInterface(bytes4)": {
        "details": "See {IERC165-supportsInterface}."
      },
      "symbol()": {
        "details": "See {IERC721Metadata-symbol}."
      },
      "tokenURI(uint256)": {
        "details": "See {IERC721Metadata-tokenURI}."
      },
      "transferFrom(address,address,uint256)": {
        "details": "See {IERC721-transferFrom}."
      },
      "transferOwnership(address)": {
        "details": "Transfers ownership of the contract to a new account (`newOwner`). Can only be called by the current owner."
      }
    },
    "version": 1
  },
  "userdoc": {
    "kind": "user",
    "methods": {},
    "version": 1
  }
}